{
  "_format": "hh-sol-artifact-1",
  "contractName": "cbtest",
  "sourceName": "contracts/cbAGLD.sol",
  "abi": [
    {
      "inputs": [
        {
          "internalType": "address",
          "name": "_childChainManagerProxy",
          "type": "address"
        }
      ],
      "stateMutability": "nonpayable",
      "type": "constructor"
    },
    {
      "anonymous": false,
      "inputs": [
        {
          "indexed": true,
          "internalType": "address",
          "name": "owner",
          "type": "address"
        },
        {
          "indexed": true,
          "internalType": "address",
          "name": "spender",
          "type": "address"
        },
        {
          "indexed": false,
          "internalType": "uint256",
          "name": "value",
          "type": "uint256"
        }
      ],
      "name": "Approval",
      "type": "event"
    },
    {
      "anonymous": false,
      "inputs": [
        {
          "indexed": true,
          "internalType": "address",
          "name": "previousOwner",
          "type": "address"
        },
        {
          "indexed": true,
          "internalType": "address",
          "name": "newOwner",
          "type": "address"
        }
      ],
      "name": "OwnershipTransferred",
      "type": "event"
    },
    {
      "anonymous": false,
      "inputs": [
        {
          "indexed": true,
          "internalType": "address",
          "name": "from",
          "type": "address"
        },
        {
          "indexed": true,
          "internalType": "address",
          "name": "to",
          "type": "address"
        },
        {
          "indexed": false,
          "internalType": "uint256",
          "name": "value",
          "type": "uint256"
        }
      ],
      "name": "Transfer",
      "type": "event"
    },
    {
      "anonymous": false,
      "inputs": [
        {
          "indexed": true,
          "internalType": "address",
          "name": "account",
          "type": "address"
        },
        {
          "indexed": false,
          "internalType": "uint256",
          "name": "burntAmount",
          "type": "uint256"
        }
      ],
      "name": "tokenBurnt",
      "type": "event"
    },
    {
      "anonymous": false,
      "inputs": [
        {
          "indexed": true,
          "internalType": "address",
          "name": "receiver",
          "type": "address"
        },
        {
          "indexed": false,
          "internalType": "uint256",
          "name": "depositedAmount",
          "type": "uint256"
        }
      ],
      "name": "tokenDeposited",
      "type": "event"
    },
    {
      "inputs": [
        {
          "internalType": "address",
          "name": "owner",
          "type": "address"
        },
        {
          "internalType": "address",
          "name": "spender",
          "type": "address"
        }
      ],
      "name": "allowance",
      "outputs": [
        {
          "internalType": "uint256",
          "name": "",
          "type": "uint256"
        }
      ],
      "stateMutability": "view",
      "type": "function"
    },
    {
      "inputs": [
        {
          "internalType": "address",
          "name": "spender",
          "type": "address"
        },
        {
          "internalType": "uint256",
          "name": "amount",
          "type": "uint256"
        }
      ],
      "name": "approve",
      "outputs": [
        {
          "internalType": "bool",
          "name": "",
          "type": "bool"
        }
      ],
      "stateMutability": "nonpayable",
      "type": "function"
    },
    {
      "inputs": [
        {
          "internalType": "address",
          "name": "account",
          "type": "address"
        }
      ],
      "name": "balanceOf",
      "outputs": [
        {
          "internalType": "uint256",
          "name": "",
          "type": "uint256"
        }
      ],
      "stateMutability": "view",
      "type": "function"
    },
    {
      "inputs": [
        {
          "internalType": "uint256",
          "name": "amount",
          "type": "uint256"
        }
      ],
      "name": "burn",
      "outputs": [],
      "stateMutability": "nonpayable",
      "type": "function"
    },
    {
      "inputs": [
        {
          "internalType": "address",
          "name": "account",
          "type": "address"
        },
        {
          "internalType": "uint256",
          "name": "amount",
          "type": "uint256"
        }
      ],
      "name": "burnFrom",
      "outputs": [],
      "stateMutability": "nonpayable",
      "type": "function"
    },
    {
      "inputs": [],
      "name": "childChainManagerProxy",
      "outputs": [
        {
          "internalType": "address",
          "name": "",
          "type": "address"
        }
      ],
      "stateMutability": "view",
      "type": "function"
    },
    {
      "inputs": [],
      "name": "decimals",
      "outputs": [
        {
          "internalType": "uint8",
          "name": "",
          "type": "uint8"
        }
      ],
      "stateMutability": "view",
      "type": "function"
    },
    {
      "inputs": [
        {
          "internalType": "address",
          "name": "spender",
          "type": "address"
        },
        {
          "internalType": "uint256",
          "name": "subtractedValue",
          "type": "uint256"
        }
      ],
      "name": "decreaseAllowance",
      "outputs": [
        {
          "internalType": "bool",
          "name": "",
          "type": "bool"
        }
      ],
      "stateMutability": "nonpayable",
      "type": "function"
    },
    {
      "inputs": [
        {
          "internalType": "address",
          "name": "account",
          "type": "address"
        },
        {
          "internalType": "bytes",
          "name": "depositData",
          "type": "bytes"
        }
      ],
      "name": "deposit",
      "outputs": [],
      "stateMutability": "nonpayable",
      "type": "function"
    },
    {
      "inputs": [
        {
          "internalType": "address",
          "name": "spender",
          "type": "address"
        },
        {
          "internalType": "uint256",
          "name": "addedValue",
          "type": "uint256"
        }
      ],
      "name": "increaseAllowance",
      "outputs": [
        {
          "internalType": "bool",
          "name": "",
          "type": "bool"
        }
      ],
      "stateMutability": "nonpayable",
      "type": "function"
    },
    {
      "inputs": [],
      "name": "name",
      "outputs": [
        {
          "internalType": "string",
          "name": "",
          "type": "string"
        }
      ],
      "stateMutability": "view",
      "type": "function"
    },
    {
      "inputs": [],
      "name": "owner",
      "outputs": [
        {
          "internalType": "address",
          "name": "",
          "type": "address"
        }
      ],
      "stateMutability": "view",
      "type": "function"
    },
    {
      "inputs": [],
      "name": "renounceOwnership",
      "outputs": [],
      "stateMutability": "nonpayable",
      "type": "function"
    },
    {
      "inputs": [],
      "name": "symbol",
      "outputs": [
        {
          "internalType": "string",
          "name": "",
          "type": "string"
        }
      ],
      "stateMutability": "view",
      "type": "function"
    },
    {
      "inputs": [],
      "name": "totalSupply",
      "outputs": [
        {
          "internalType": "uint256",
          "name": "",
          "type": "uint256"
        }
      ],
      "stateMutability": "view",
      "type": "function"
    },
    {
      "inputs": [
        {
          "internalType": "address",
          "name": "recipient",
          "type": "address"
        },
        {
          "internalType": "uint256",
          "name": "amount",
          "type": "uint256"
        }
      ],
      "name": "transfer",
      "outputs": [
        {
          "internalType": "bool",
          "name": "",
          "type": "bool"
        }
      ],
      "stateMutability": "nonpayable",
      "type": "function"
    },
    {
      "inputs": [
        {
          "internalType": "address",
          "name": "sender",
          "type": "address"
        },
        {
          "internalType": "address",
          "name": "recipient",
          "type": "address"
        },
        {
          "internalType": "uint256",
          "name": "amount",
          "type": "uint256"
        }
      ],
      "name": "transferFrom",
      "outputs": [
        {
          "internalType": "bool",
          "name": "",
          "type": "bool"
        }
      ],
      "stateMutability": "nonpayable",
      "type": "function"
    },
    {
      "inputs": [
        {
          "internalType": "address",
          "name": "newOwner",
          "type": "address"
        }
      ],
      "name": "transferOwnership",
      "outputs": [],
      "stateMutability": "nonpayable",
      "type": "function"
    },
    {
      "inputs": [
        {
          "internalType": "address",
          "name": "_newchildChainMangerAddress",
          "type": "address"
        }
      ],
      "name": "updateChildChainManger",
      "outputs": [],
      "stateMutability": "nonpayable",
      "type": "function"
    },
    {
      "inputs": [
        {
          "internalType": "uint256",
          "name": "amount",
          "type": "uint256"
        }
      ],
      "name": "withdraw",
      "outputs": [],
      "stateMutability": "nonpayable",
      "type": "function"
    }
  ],
  "bytecode": "0x60806040523480156200001157600080fd5b506040516200134f3803806200134f8339810160408190526200003491620001db565b604080518082018252600c81526b18da1a5b190818881d195cdd60a21b60208083019182528351808501909452600684526518d89d195cdd60d21b908401528151919291620000869160039162000135565b5080516200009c90600490602084019062000135565b505050620000b9620000b3620000df60201b60201c565b620000e3565b600680546001600160a01b0319166001600160a01b039290921691909117905562000248565b3390565b600580546001600160a01b038381166001600160a01b0319831681179093556040519116919082907f8be0079c531659141344cd1fd0a4f28419497f9722a3daafe3b4186f6b6457e090600090a35050565b82805462000143906200020b565b90600052602060002090601f016020900481019282620001675760008555620001b2565b82601f106200018257805160ff1916838001178555620001b2565b82800160010185558215620001b2579182015b82811115620001b257825182559160200191906001019062000195565b50620001c0929150620001c4565b5090565b5b80821115620001c05760008155600101620001c5565b600060208284031215620001ed578081fd5b81516001600160a01b038116811462000204578182fd5b9392505050565b600181811c908216806200022057607f821691505b602082108114156200024257634e487b7160e01b600052602260045260246000fd5b50919050565b6110f780620002586000396000f3fe608060405234801561001057600080fd5b506004361061012c5760003560e01c8063715018a6116100ad578063a9059cbb11610071578063a9059cbb1461027c578063c961c84f1461028f578063cf2c52cb146102a2578063dd62ed3e146102b5578063f2fde38b146102ee57600080fd5b8063715018a61461023557806379cc67901461023d5780638da5cb5b1461025057806395d89b4114610261578063a457c2d71461026957600080fd5b8063313ce567116100f4578063313ce567146101ac57806339509351146101bb57806342966c68146101ce57806362f629e7146101e157806370a082311461020c57600080fd5b806306fdde0314610131578063095ea7b31461014f57806318160ddd1461017257806323b872dd146101845780632e1a7d4d14610197575b600080fd5b610139610301565b6040516101469190610fb9565b60405180910390f35b61016261015d366004610f78565b610393565b6040519015158152602001610146565b6002545b604051908152602001610146565b610162610192366004610ebf565b6103a9565b6101aa6101a5366004610fa1565b610458565b005b60405160128152602001610146565b6101626101c9366004610f78565b610504565b6101aa6101dc366004610fa1565b610540565b6006546101f4906001600160a01b031681565b6040516001600160a01b039091168152602001610146565b61017661021a366004610e6c565b6001600160a01b031660009081526020819052604090205490565b6101aa61054d565b6101aa61024b366004610f78565b610583565b6005546001600160a01b03166101f4565b610139610609565b610162610277366004610f78565b610618565b61016261028a366004610f78565b6106b1565b6101aa61029d366004610e6c565b6106be565b6101aa6102b0366004610efa565b61077a565b6101766102c3366004610e8d565b6001600160a01b03918216600090815260016020908152604080832093909416825291909152205490565b6101aa6102fc366004610e6c565b610846565b60606003805461031090611070565b80601f016020809104026020016040519081016040528092919081815260200182805461033c90611070565b80156103895780601f1061035e57610100808354040283529160200191610389565b820191906000526020600020905b81548152906001019060200180831161036c57829003601f168201915b5050505050905090565b60006103a03384846108de565b50600192915050565b60006103b6848484610a02565b6001600160a01b0384166000908152600160209081526040808320338452909152902054828110156104405760405162461bcd60e51b815260206004820152602860248201527f45524332303a207472616e7366657220616d6f756e74206578636565647320616044820152676c6c6f77616e636560c01b60648201526084015b60405180910390fd5b61044d85338584036108de565b506001949350505050565b6006546001600160a01b031633146104c35760405162461bcd60e51b815260206004820152602860248201527f77697468647261773a20796f75277265206e6f7420616c6c6f77656420746f20604482015267776974686472617760c01b6064820152608401610437565b6104cc81610540565b60405181815233907f64776496a9bd05a10b89b0b2b8aec45691e64e2563be349a3b1cb2d0dd5ff0259060200160405180910390a250565b3360008181526001602090815260408083206001600160a01b038716845290915281205490916103a091859061053b908690611041565b6108de565b61054a3382610bd1565b50565b6005546001600160a01b031633146105775760405162461bcd60e51b81526004016104379061100c565b6105816000610d1f565b565b600061058f83336102c3565b9050818110156105ed5760405162461bcd60e51b8152602060048201526024808201527f45524332303a206275726e20616d6f756e74206578636565647320616c6c6f77604482015263616e636560e01b6064820152608401610437565b6105fa83338484036108de565b6106048383610bd1565b505050565b60606004805461031090611070565b3360009081526001602090815260408083206001600160a01b03861684529091528120548281101561069a5760405162461bcd60e51b815260206004820152602560248201527f45524332303a2064656372656173656420616c6c6f77616e63652062656c6f77604482015264207a65726f60d81b6064820152608401610437565b6106a733858584036108de565b5060019392505050565b60006103a0338484610a02565b6005546001600160a01b031633146106e85760405162461bcd60e51b81526004016104379061100c565b6001600160a01b0381166107585760405162461bcd60e51b815260206004820152603160248201527f7570646174654368696c64436861696e4d616e6765723a20796f752063616e206044820152706e6f74207365742030206164647265737360781b6064820152608401610437565b600680546001600160a01b0319166001600160a01b0392909216919091179055565b6006546001600160a01b031633146107e35760405162461bcd60e51b815260206004820152602660248201527f6465706f7369743a20796f75277265206e6f7420616c6c6f77656420746f2064604482015265195c1bdcda5d60d21b6064820152608401610437565b60006107f182840184610fa1565b90506107fd8482610d71565b836001600160a01b03167fb03fbb2170e7100f1d18eea2f394452ffd20758779061c6a26747127bb0535b98260405161083891815260200190565b60405180910390a250505050565b6005546001600160a01b031633146108705760405162461bcd60e51b81526004016104379061100c565b6001600160a01b0381166108d55760405162461bcd60e51b815260206004820152602660248201527f4f776e61626c653a206e6577206f776e657220697320746865207a65726f206160448201526564647265737360d01b6064820152608401610437565b61054a81610d1f565b6001600160a01b0383166109405760405162461bcd60e51b8152602060048201526024808201527f45524332303a20617070726f76652066726f6d20746865207a65726f206164646044820152637265737360e01b6064820152608401610437565b6001600160a01b0382166109a15760405162461bcd60e51b815260206004820152602260248201527f45524332303a20617070726f766520746f20746865207a65726f206164647265604482015261737360f01b6064820152608401610437565b6001600160a01b0383811660008181526001602090815260408083209487168084529482529182902085905590518481527f8c5be1e5ebec7d5bd14f71427d1e84f3dd0314c0f7b2291e5b200ac8c7c3b925910160405180910390a3505050565b6001600160a01b038316610a665760405162461bcd60e51b815260206004820152602560248201527f45524332303a207472616e736665722066726f6d20746865207a65726f206164604482015264647265737360d81b6064820152608401610437565b6001600160a01b038216610ac85760405162461bcd60e51b815260206004820152602360248201527f45524332303a207472616e7366657220746f20746865207a65726f206164647260448201526265737360e81b6064820152608401610437565b6001600160a01b03831660009081526020819052604090205481811015610b405760405162461bcd60e51b815260206004820152602660248201527f45524332303a207472616e7366657220616d6f756e7420657863656564732062604482015265616c616e636560d01b6064820152608401610437565b6001600160a01b03808516600090815260208190526040808220858503905591851681529081208054849290610b77908490611041565b92505081905550826001600160a01b0316846001600160a01b03167fddf252ad1be2c89b69c2b068fc378daa952ba7f163c4a11628f55a4df523b3ef84604051610bc391815260200190565b60405180910390a350505050565b6001600160a01b038216610c315760405162461bcd60e51b815260206004820152602160248201527f45524332303a206275726e2066726f6d20746865207a65726f206164647265736044820152607360f81b6064820152608401610437565b6001600160a01b03821660009081526020819052604090205481811015610ca55760405162461bcd60e51b815260206004820152602260248201527f45524332303a206275726e20616d6f756e7420657863656564732062616c616e604482015261636560f01b6064820152608401610437565b6001600160a01b0383166000908152602081905260408120838303905560028054849290610cd4908490611059565b90915550506040518281526000906001600160a01b038516907fddf252ad1be2c89b69c2b068fc378daa952ba7f163c4a11628f55a4df523b3ef9060200160405180910390a3505050565b600580546001600160a01b038381166001600160a01b0319831681179093556040519116919082907f8be0079c531659141344cd1fd0a4f28419497f9722a3daafe3b4186f6b6457e090600090a35050565b6001600160a01b038216610dc75760405162461bcd60e51b815260206004820152601f60248201527f45524332303a206d696e7420746f20746865207a65726f2061646472657373006044820152606401610437565b8060026000828254610dd99190611041565b90915550506001600160a01b03821660009081526020819052604081208054839290610e06908490611041565b90915550506040518181526001600160a01b038316906000907fddf252ad1be2c89b69c2b068fc378daa952ba7f163c4a11628f55a4df523b3ef9060200160405180910390a35050565b80356001600160a01b0381168114610e6757600080fd5b919050565b600060208284031215610e7d578081fd5b610e8682610e50565b9392505050565b60008060408385031215610e9f578081fd5b610ea883610e50565b9150610eb660208401610e50565b90509250929050565b600080600060608486031215610ed3578081fd5b610edc84610e50565b9250610eea60208501610e50565b9150604084013590509250925092565b600080600060408486031215610f0e578283fd5b610f1784610e50565b9250602084013567ffffffffffffffff80821115610f33578384fd5b818601915086601f830112610f46578384fd5b813581811115610f54578485fd5b876020828501011115610f65578485fd5b6020830194508093505050509250925092565b60008060408385031215610f8a578182fd5b610f9383610e50565b946020939093013593505050565b600060208284031215610fb2578081fd5b5035919050565b6000602080835283518082850152825b81811015610fe557858101830151858201604001528201610fc9565b81811115610ff65783604083870101525b50601f01601f1916929092016040019392505050565b6020808252818101527f4f776e61626c653a2063616c6c6572206973206e6f7420746865206f776e6572604082015260600190565b60008219821115611054576110546110ab565b500190565b60008282101561106b5761106b6110ab565b500390565b600181811c9082168061108457607f821691505b602082108114156110a557634e487b7160e01b600052602260045260246000fd5b50919050565b634e487b7160e01b600052601160045260246000fdfea26469706673582212202311f9b4b3ca982b1b200aa999561b313ed390d7213e4549ad3c2356c0504f3464736f6c63430008040033",
  "linkReferences": {},
  "deployedLinkReferences": {}
}