{
  "_format": "hh-sol-artifact-1",
  "contractName": "BattleLoot",
  "sourceName": "contracts/LootGame.sol",
  "abi": [
    {
      "anonymous": false,
      "inputs": [
        {
          "indexed": true,
          "internalType": "address",
          "name": "previousOwner",
          "type": "address"
        },
        {
          "indexed": true,
          "internalType": "address",
          "name": "newOwner",
          "type": "address"
        }
      ],
      "name": "OwnershipTransferred",
      "type": "event"
    },
    {
      "anonymous": false,
      "inputs": [
        {
          "indexed": true,
          "internalType": "uint256",
          "name": "warriorIndex",
          "type": "uint256"
        },
        {
          "indexed": true,
          "internalType": "address",
          "name": "warriorAddress",
          "type": "address"
        },
        {
          "indexed": false,
          "internalType": "address",
          "name": "acceptorAddress",
          "type": "address"
        },
        {
          "indexed": false,
          "internalType": "bool",
          "name": "result",
          "type": "bool"
        }
      ],
      "name": "pvpBattled",
      "type": "event"
    },
    {
      "anonymous": false,
      "inputs": [
        {
          "indexed": true,
          "internalType": "address",
          "name": "receiver",
          "type": "address"
        },
        {
          "indexed": false,
          "internalType": "uint256",
          "name": "totalAmount",
          "type": "uint256"
        }
      ],
      "name": "rewardTokenRefund",
      "type": "event"
    },
    {
      "anonymous": false,
      "inputs": [
        {
          "indexed": true,
          "internalType": "address",
          "name": "newRewardToken",
          "type": "address"
        }
      ],
      "name": "rewardTokenUpdated",
      "type": "event"
    },
    {
      "anonymous": false,
      "inputs": [
        {
          "indexed": true,
          "internalType": "uint256",
          "name": "tokenId",
          "type": "uint256"
        },
        {
          "indexed": false,
          "internalType": "address",
          "name": "playerAddress",
          "type": "address"
        }
      ],
      "name": "roleQuit",
      "type": "event"
    },
    {
      "anonymous": false,
      "inputs": [
        {
          "indexed": true,
          "internalType": "address",
          "name": "role",
          "type": "address"
        },
        {
          "indexed": true,
          "internalType": "uint256",
          "name": "tokenId",
          "type": "uint256"
        },
        {
          "indexed": false,
          "internalType": "uint256",
          "name": "power",
          "type": "uint256"
        }
      ],
      "name": "roleRegistered",
      "type": "event"
    },
    {
      "inputs": [],
      "name": "MAXROUND",
      "outputs": [
        {
          "internalType": "uint256",
          "name": "",
          "type": "uint256"
        }
      ],
      "stateMutability": "view",
      "type": "function"
    },
    {
      "inputs": [
        {
          "internalType": "address",
          "name": "",
          "type": "address"
        }
      ],
      "name": "battleDetails",
      "outputs": [
        {
          "internalType": "address",
          "name": "acceptorAddress",
          "type": "address"
        },
        {
          "internalType": "uint256",
          "name": "challengerPower",
          "type": "uint256"
        },
        {
          "internalType": "uint256",
          "name": "acceptorPower",
          "type": "uint256"
        },
        {
          "internalType": "uint256",
          "name": "happenedTime",
          "type": "uint256"
        },
        {
          "internalType": "bool",
          "name": "result",
          "type": "bool"
        }
      ],
      "stateMutability": "view",
      "type": "function"
    },
    {
      "inputs": [
        {
          "internalType": "uint256",
          "name": "",
          "type": "uint256"
        }
      ],
      "name": "candidateWarriors",
      "outputs": [
        {
          "internalType": "address",
          "name": "warriorAddress",
          "type": "address"
        },
        {
          "internalType": "address",
          "name": "originalNFT",
          "type": "address"
        },
        {
          "internalType": "uint256",
          "name": "originalTokenId",
          "type": "uint256"
        },
        {
          "internalType": "uint256",
          "name": "initialPower",
          "type": "uint256"
        }
      ],
      "stateMutability": "view",
      "type": "function"
    },
    {
      "inputs": [
        {
          "internalType": "address",
          "name": "",
          "type": "address"
        }
      ],
      "name": "currentIndex",
      "outputs": [
        {
          "internalType": "uint256",
          "name": "",
          "type": "uint256"
        }
      ],
      "stateMutability": "view",
      "type": "function"
    },
    {
      "inputs": [],
      "name": "loot",
      "outputs": [
        {
          "internalType": "contract LootProject",
          "name": "",
          "type": "address"
        }
      ],
      "stateMutability": "view",
      "type": "function"
    },
    {
      "inputs": [
        {
          "internalType": "address",
          "name": "_plootAddress",
          "type": "address"
        },
        {
          "internalType": "address",
          "name": "rewardTokenAddress",
          "type": "address"
        }
      ],
      "name": "lootgame_init",
      "outputs": [],
      "stateMutability": "nonpayable",
      "type": "function"
    },
    {
      "inputs": [],
      "name": "owner",
      "outputs": [
        {
          "internalType": "address",
          "name": "",
          "type": "address"
        }
      ],
      "stateMutability": "view",
      "type": "function"
    },
    {
      "inputs": [],
      "name": "pvpBattle",
      "outputs": [],
      "stateMutability": "nonpayable",
      "type": "function"
    },
    {
      "inputs": [
        {
          "internalType": "uint256",
          "name": "tokenId",
          "type": "uint256"
        }
      ],
      "name": "quitFromGame",
      "outputs": [],
      "stateMutability": "nonpayable",
      "type": "function"
    },
    {
      "inputs": [
        {
          "internalType": "address",
          "name": "receiver",
          "type": "address"
        }
      ],
      "name": "refundRewardToken",
      "outputs": [],
      "stateMutability": "nonpayable",
      "type": "function"
    },
    {
      "inputs": [
        {
          "internalType": "uint256",
          "name": "tokenId",
          "type": "uint256"
        },
        {
          "internalType": "uint256",
          "name": "rarityscore",
          "type": "uint256"
        }
      ],
      "name": "registerRole",
      "outputs": [],
      "stateMutability": "nonpayable",
      "type": "function"
    },
    {
      "inputs": [],
      "name": "renounceOwnership",
      "outputs": [],
      "stateMutability": "nonpayable",
      "type": "function"
    },
    {
      "inputs": [],
      "name": "rewardAmountPerRound",
      "outputs": [
        {
          "internalType": "uint256",
          "name": "",
          "type": "uint256"
        }
      ],
      "stateMutability": "view",
      "type": "function"
    },
    {
      "inputs": [],
      "name": "rewardToken",
      "outputs": [
        {
          "internalType": "contract IERC20Upgradeable",
          "name": "",
          "type": "address"
        }
      ],
      "stateMutability": "view",
      "type": "function"
    },
    {
      "inputs": [],
      "name": "totalWarriors",
      "outputs": [
        {
          "internalType": "uint256",
          "name": "",
          "type": "uint256"
        }
      ],
      "stateMutability": "view",
      "type": "function"
    },
    {
      "inputs": [
        {
          "internalType": "address",
          "name": "newOwner",
          "type": "address"
        }
      ],
      "name": "transferOwnership",
      "outputs": [],
      "stateMutability": "nonpayable",
      "type": "function"
    },
    {
      "inputs": [
        {
          "internalType": "address",
          "name": "newRewardToken",
          "type": "address"
        }
      ],
      "name": "updateRewardToken",
      "outputs": [],
      "stateMutability": "nonpayable",
      "type": "function"
    }
  ],
  "bytecode": "0x608060405234801561001057600080fd5b506113f6806100206000396000f3fe608060405234801561001057600080fd5b506004361061010b5760003560e01c80639b7b2ab0116100a2578063e297521111610071578063e2975211146102c3578063f2fde38b146102cb578063f7c618c1146102de578063f8cf31cb146102f1578063fd2fb8be1461030457600080fd5b80639b7b2ab014610231578063c82f744814610244578063d9bd3201146102b1578063da06297e146102ba57600080fd5b80636c93ae84116100de5780636c93ae84146101de578063715018a6146101f15780637758fbf9146101f95780638da5cb5b1461020c57600080fd5b80633b29d3ef146101105780633b9418fd14610193578063551b72ea146101c1578063648a3a4c146101d6575b600080fd5b61015a61011e36600461114b565b606960205260009081526040902080546001820154600283015460038401546004909401546001600160a01b0390931693919290919060ff1685565b604080516001600160a01b03909616865260208601949094529284019190915260608301521515608082015260a0015b60405180910390f35b6101b36101a136600461114b565b606b6020526000908152604090205481565b60405190815260200161018a565b6101d46101cf366004611212565b610317565b005b6101b3600a81565b6101d46101ec36600461114b565b61056f565b6101d46106e5565b6101d461020736600461118a565b61071b565b6033546001600160a01b03165b6040516001600160a01b03909116815260200161018a565b606554610219906001600160a01b031681565b6102866102523660046111e2565b606a6020526000908152604090208054600182015460028301546003909301546001600160a01b0392831693919092169184565b604080516001600160a01b03958616815294909316602085015291830152606082015260800161018a565b6101b360685481565b6101b360675481565b6101d4610800565b6101d46102d936600461114b565b610b38565b606654610219906001600160a01b031681565b6101d46102ff36600461114b565b610bd3565b6101d46103123660046111e2565b610c47565b336065546040516331a9108f60e11b8152600481018590526001600160a01b039283169290911690636352211e9060240160206040518083038186803b15801561036057600080fd5b505afa158015610374573d6000803e3d6000fd5b505050506040513d601f19601f82011682018060405250810190610398919061116e565b6001600160a01b0316146103fe5760405162461bcd60e51b815260206004820152602260248201527f637265617465526f6c653a20796f7520646f206e6f74206f776e20746865206e604482015261199d60f21b60648201526084015b60405180910390fd5b6065546001600160a01b03166323b872dd336040516001600160e01b031960e084901b1681526001600160a01b03909116600482015230602482015260448101859052606401600060405180830381600087803b15801561045e57600080fd5b505af1158015610472573d6000803e3d6000fd5b505050506000606854600161048791906112d7565b6065546000828152606a602052604090206001810180546001600160a01b0319166001600160a01b03909316929092179091556002810185905560030183905590506104d03390565b6000828152606a6020908152604080832080546001600160a01b0319166001600160a01b039590951694909417909355338252606b9052908120829055606880549161051b83611350565b9190505550826105283390565b6001600160a01b03167f951c92325e8d812b9d7b16103b0840c865ba42158affc1d47b9282565ea478a48460405161056291815260200190565b60405180910390a3505050565b6033546001600160a01b031633146105995760405162461bcd60e51b81526004016103f5906112a2565b6066546040516370a0823160e01b81523060048201526000916001600160a01b0316906370a082319060240160206040518083038186803b1580156105dd57600080fd5b505afa1580156105f1573d6000803e3d6000fd5b505050506040513d601f19601f8201168201806040525081019061061591906111fa565b60665460405163a9059cbb60e01b81526001600160a01b0385811660048301526024820184905292935091169063a9059cbb90604401602060405180830381600087803b15801561066557600080fd5b505af1158015610679573d6000803e3d6000fd5b505050506040513d601f19601f8201168201806040525081019061069d91906111c2565b50816001600160a01b03167f47185bfeaa34ad210d128d5a7895842e27012f2f74d46696a180e116568f34fa826040516106d991815260200190565b60405180910390a25050565b6033546001600160a01b0316331461070f5760405162461bcd60e51b81526004016103f5906112a2565b6107196000610dde565b565b600054610100900460ff1680610734575060005460ff16155b6107975760405162461bcd60e51b815260206004820152602e60248201527f496e697469616c697a61626c653a20636f6e747261637420697320616c72656160448201526d191e481a5b9a5d1a585b1a5e995960921b60648201526084016103f5565b600054610100900460ff161580156107b9576000805461ffff19166101011790555b606580546001600160a01b038086166001600160a01b031992831617909255606680549285169290911691909117905580156107fb576000805461ff00191690555b505050565b336000818152606b60205260409020546108725760405162461bcd60e51b815260206004820152602d60248201527f707670426174746c653a20706c6561736520726567697374657220796f75722060448201526c1c9bdb1948185d08199a5c9cdd609a1b60648201526084016103f5565b6001600160a01b038082166000908152606b6020908152604080832054808452606a8352818420825160808101845281548716815260018201549096169386019390935260028301549185019190915260039091015460608401819052909291906108dc90610e30565b6108e542610e30565b6040516020016108f692919061126c565b6040516020818303038152906040528051906020012060001c9050600060685482610921919061136b565b6000818152606a60209081526040808320815160808101835281546001600160a01b03908116825260018301541693810193909352600281015483830152600301546060808401919091528701519087015193945090926109829190610f52565b9050600061099883606001518460400151610f52565b83516001600160a01b038a8116600090815260696020526040902080546001600160a01b03191691909216178155600181018490556002810182905542600390910155905080821115610aa3576001600160a01b03808916600090815260696020526040908190206004908101805460ff19166001179055606654606754925163a9059cbb60e01b815293169263a9059cbb92610a4b928d92016001600160a01b03929092168252602082015260400190565b602060405180830381600087803b158015610a6557600080fd5b505af1158015610a79573d6000803e3d6000fd5b505050506040513d601f19601f82011682018060405250810190610a9d91906111c2565b50610ac7565b6001600160a01b0388166000908152606960205260409020600401805460ff191690555b82516001600160a01b0389811660008181526069602090815260409182902060040154825194909516845260ff9094161515938301939093529189917f88cbf59573b8b94b3c800ad2f9ddb2858fba3be21492269016042fef4cf67f6b910160405180910390a35050505050505050565b6033546001600160a01b03163314610b625760405162461bcd60e51b81526004016103f5906112a2565b6001600160a01b038116610bc75760405162461bcd60e51b815260206004820152602660248201527f4f776e61626c653a206e6577206f776e657220697320746865207a65726f206160448201526564647265737360d01b60648201526084016103f5565b610bd081610dde565b50565b6033546001600160a01b03163314610bfd5760405162461bcd60e51b81526004016103f5906112a2565b606680546001600160a01b0319166001600160a01b0383169081179091556040517f2a6ce8490320414415367a61709a20bd5e1b02565f5594fbf6c4f84d1ff7c4fb90600090a250565b336000908152606b60205260409020548114610cc25760405162461bcd60e51b815260206004820152603460248201527f7175697446726f6d47616d653a20536f7272792c20796f7520646f206e6f7420604482015273309031b0b73234b230ba32903bb0b93934b7b91760611b60648201526084016103f5565b336000908152606b60209081526040808320839055838352606a909152812080546001600160a01b031990811682556001820180549091169055600281018290556003018190556068805491610d1783611339565b90915550506065546001600160a01b03166323b872dd6000336040516001600160e01b031960e085901b1681526001600160a01b0392831660048201529116602482015260448101849052606401600060405180830381600087803b158015610d7f57600080fd5b505af1158015610d93573d6000803e3d6000fd5b50505050807fd4d1aaee65bdd191a514d704597570c968f8a11e16b36e7289947e2935f4929f610dc03390565b6040516001600160a01b03909116815260200160405180910390a250565b603380546001600160a01b038381166001600160a01b0319831681179093556040519116919082907f8be0079c531659141344cd1fd0a4f28419497f9722a3daafe3b4186f6b6457e090600090a35050565b606081610e545750506040805180820190915260018152600360fc1b602082015290565b8160005b8115610e7e5780610e6881611350565b9150610e779050600a836112ef565b9150610e58565b60008167ffffffffffffffff811115610ea757634e487b7160e01b600052604160045260246000fd5b6040519080825280601f01601f191660200182016040528015610ed1576020820181803683370190505b5090505b8415610f4a57610ee6600183611322565b9150610ef3600a8661136b565b610efe9060306112d7565b60f81b818381518110610f2157634e487b7160e01b600052603260045260246000fd5b60200101906001600160f81b031916908160001a905350610f43600a866112ef565b9450610ed5565b949350505050565b600080610f5e83610e30565b610f6785610e30565b610f7042610e30565b604051602001610f8293929190611281565b6040516020818303038152906040528051906020012060001c9050600080610fa986610fdc565b90925090506000610fba8383611322565b905082610fc7828661136b565b610fd191906112d7565b979650505050505050565b6000808261103a5760405162461bcd60e51b815260206004820152602560248201527f7261726974792073636f7265206f66206c6f6f74206d757374206e6f74206265604482015264081b9d5b1b60da1b60648201526084016103f5565b60008311801561104c57506103e88311155b156110655761105c8360056110f6565b91509150915091565b6103e88311801561107857506107d08311155b156110885761105c83600a6110f6565b6107d08311801561109b5750610bb88311155b156110ab5761105c83600f6110f6565b610bb8831180156110be5750610fa08311155b156110ce5761105c8360146110f6565b610fa0831180156110e157506115698311155b156110f15761105c8360196110f6565b915091565b6000808060646111068587611303565b61111091906112ef565b61111a9086611322565b90506000606461112a8688611303565b61113491906112ef565b61113e90876112d7565b9196919550909350505050565b60006020828403121561115c578081fd5b8135611167816113ab565b9392505050565b60006020828403121561117f578081fd5b8151611167816113ab565b6000806040838503121561119c578081fd5b82356111a7816113ab565b915060208301356111b7816113ab565b809150509250929050565b6000602082840312156111d3578081fd5b81518015158114611167578182fd5b6000602082840312156111f3578081fd5b5035919050565b60006020828403121561120b578081fd5b5051919050565b60008060408385031215611224578182fd5b50508035926020909101359150565b60008151815b818110156112535760208185018101518683015201611239565b818111156112615782828601525b509290920192915050565b6000610f4a61127b8386611233565b84611233565b600061129961127b6112938488611233565b86611233565b95945050505050565b6020808252818101527f4f776e61626c653a2063616c6c6572206973206e6f7420746865206f776e6572604082015260600190565b600082198211156112ea576112ea61137f565b500190565b6000826112fe576112fe611395565b500490565b600081600019048311821515161561131d5761131d61137f565b500290565b6000828210156113345761133461137f565b500390565b6000816113485761134861137f565b506000190190565b60006000198214156113645761136461137f565b5060010190565b60008261137a5761137a611395565b500690565b634e487b7160e01b600052601160045260246000fd5b634e487b7160e01b600052601260045260246000fd5b6001600160a01b0381168114610bd057600080fdfea264697066735822122065bf30dc65b49b1f320dc76369f5e24594d3cab5de59f31681a8d782247fd58e64736f6c63430008040033",
  "linkReferences": {},
  "deployedLinkReferences": {}
}