{
  "_format": "hh-sol-artifact-1",
  "contractName": "BattleLoot",
  "sourceName": "contracts/LootGame.sol",
  "abi": [
    {
      "inputs": [
        {
          "internalType": "address",
          "name": "_lootaddress",
          "type": "address"
        },
        {
          "internalType": "address",
          "name": "rewardTokenAddress",
          "type": "address"
        }
      ],
      "stateMutability": "nonpayable",
      "type": "constructor"
    },
    {
      "anonymous": false,
      "inputs": [
        {
          "indexed": true,
          "internalType": "address",
          "name": "previousOwner",
          "type": "address"
        },
        {
          "indexed": true,
          "internalType": "address",
          "name": "newOwner",
          "type": "address"
        }
      ],
      "name": "OwnershipTransferred",
      "type": "event"
    },
    {
      "anonymous": false,
      "inputs": [
        {
          "indexed": true,
          "internalType": "uint256",
          "name": "warriorIndex",
          "type": "uint256"
        },
        {
          "indexed": true,
          "internalType": "address",
          "name": "warriorAddress",
          "type": "address"
        },
        {
          "indexed": false,
          "internalType": "address",
          "name": "acceptorAddress",
          "type": "address"
        },
        {
          "indexed": false,
          "internalType": "bool",
          "name": "result",
          "type": "bool"
        }
      ],
      "name": "pvpBattled",
      "type": "event"
    },
    {
      "anonymous": false,
      "inputs": [
        {
          "indexed": true,
          "internalType": "address",
          "name": "receiver",
          "type": "address"
        },
        {
          "indexed": false,
          "internalType": "uint256",
          "name": "totalAmount",
          "type": "uint256"
        }
      ],
      "name": "rewardTokenRefund",
      "type": "event"
    },
    {
      "anonymous": false,
      "inputs": [
        {
          "indexed": true,
          "internalType": "address",
          "name": "newRewardToken",
          "type": "address"
        }
      ],
      "name": "rewardTokenUpdated",
      "type": "event"
    },
    {
      "anonymous": false,
      "inputs": [
        {
          "indexed": true,
          "internalType": "uint256",
          "name": "tokenId",
          "type": "uint256"
        },
        {
          "indexed": false,
          "internalType": "address",
          "name": "playerAddress",
          "type": "address"
        }
      ],
      "name": "roleQuit",
      "type": "event"
    },
    {
      "anonymous": false,
      "inputs": [
        {
          "indexed": true,
          "internalType": "address",
          "name": "role",
          "type": "address"
        },
        {
          "indexed": true,
          "internalType": "uint256",
          "name": "tokenId",
          "type": "uint256"
        },
        {
          "indexed": false,
          "internalType": "uint256",
          "name": "power",
          "type": "uint256"
        }
      ],
      "name": "roleRegistered",
      "type": "event"
    },
    {
      "inputs": [],
      "name": "MAXROUND",
      "outputs": [
        {
          "internalType": "uint256",
          "name": "",
          "type": "uint256"
        }
      ],
      "stateMutability": "view",
      "type": "function"
    },
    {
      "inputs": [
        {
          "internalType": "address",
          "name": "",
          "type": "address"
        }
      ],
      "name": "battleDetails",
      "outputs": [
        {
          "internalType": "address",
          "name": "acceptorAddress",
          "type": "address"
        },
        {
          "internalType": "uint256",
          "name": "challengerPower",
          "type": "uint256"
        },
        {
          "internalType": "uint256",
          "name": "acceptorPower",
          "type": "uint256"
        },
        {
          "internalType": "uint256",
          "name": "happenedTime",
          "type": "uint256"
        },
        {
          "internalType": "bool",
          "name": "result",
          "type": "bool"
        }
      ],
      "stateMutability": "view",
      "type": "function"
    },
    {
      "inputs": [
        {
          "internalType": "uint256",
          "name": "",
          "type": "uint256"
        }
      ],
      "name": "candidateWarriors",
      "outputs": [
        {
          "internalType": "address",
          "name": "warriorAddress",
          "type": "address"
        },
        {
          "internalType": "address",
          "name": "originalNFT",
          "type": "address"
        },
        {
          "internalType": "uint256",
          "name": "originalTokenId",
          "type": "uint256"
        },
        {
          "internalType": "uint256",
          "name": "initialPower",
          "type": "uint256"
        }
      ],
      "stateMutability": "view",
      "type": "function"
    },
    {
      "inputs": [
        {
          "internalType": "address",
          "name": "",
          "type": "address"
        }
      ],
      "name": "currentIndex",
      "outputs": [
        {
          "internalType": "uint256",
          "name": "",
          "type": "uint256"
        }
      ],
      "stateMutability": "view",
      "type": "function"
    },
    {
      "inputs": [],
      "name": "loot",
      "outputs": [
        {
          "internalType": "contract LootProject",
          "name": "",
          "type": "address"
        }
      ],
      "stateMutability": "view",
      "type": "function"
    },
    {
      "inputs": [],
      "name": "owner",
      "outputs": [
        {
          "internalType": "address",
          "name": "",
          "type": "address"
        }
      ],
      "stateMutability": "view",
      "type": "function"
    },
    {
      "inputs": [],
      "name": "pvpBattle",
      "outputs": [],
      "stateMutability": "nonpayable",
      "type": "function"
    },
    {
      "inputs": [
        {
          "internalType": "uint256",
          "name": "tokenId",
          "type": "uint256"
        }
      ],
      "name": "quitFromGame",
      "outputs": [],
      "stateMutability": "nonpayable",
      "type": "function"
    },
    {
      "inputs": [
        {
          "internalType": "address",
          "name": "receiver",
          "type": "address"
        }
      ],
      "name": "refundRewardToken",
      "outputs": [],
      "stateMutability": "nonpayable",
      "type": "function"
    },
    {
      "inputs": [
        {
          "internalType": "uint256",
          "name": "tokenId",
          "type": "uint256"
        },
        {
          "internalType": "uint256",
          "name": "rarityscore",
          "type": "uint256"
        }
      ],
      "name": "registerRole",
      "outputs": [],
      "stateMutability": "nonpayable",
      "type": "function"
    },
    {
      "inputs": [],
      "name": "renounceOwnership",
      "outputs": [],
      "stateMutability": "nonpayable",
      "type": "function"
    },
    {
      "inputs": [],
      "name": "rewardAmountPerRound",
      "outputs": [
        {
          "internalType": "uint256",
          "name": "",
          "type": "uint256"
        }
      ],
      "stateMutability": "view",
      "type": "function"
    },
    {
      "inputs": [],
      "name": "rewardToken",
      "outputs": [
        {
          "internalType": "contract IERC20",
          "name": "",
          "type": "address"
        }
      ],
      "stateMutability": "view",
      "type": "function"
    },
    {
      "inputs": [],
      "name": "totalWarriors",
      "outputs": [
        {
          "internalType": "uint256",
          "name": "",
          "type": "uint256"
        }
      ],
      "stateMutability": "view",
      "type": "function"
    },
    {
      "inputs": [
        {
          "internalType": "address",
          "name": "newOwner",
          "type": "address"
        }
      ],
      "name": "transferOwnership",
      "outputs": [],
      "stateMutability": "nonpayable",
      "type": "function"
    },
    {
      "inputs": [
        {
          "internalType": "address",
          "name": "newRewardToken",
          "type": "address"
        }
      ],
      "name": "updateRewardToken",
      "outputs": [],
      "stateMutability": "nonpayable",
      "type": "function"
    }
  ],
  "bytecode": "0x608060405234801561001057600080fd5b50604051620013d1380380620013d1833981016040819052610031916100d7565b61003a3361006b565b600180546001600160a01b039384166001600160a01b03199182161790915560028054929093169116179055610109565b600080546001600160a01b038381166001600160a01b0319831681178455604051919092169283917f8be0079c531659141344cd1fd0a4f28419497f9722a3daafe3b4186f6b6457e09190a35050565b80516001600160a01b03811681146100d257600080fd5b919050565b600080604083850312156100e9578182fd5b6100f2836100bb565b9150610100602084016100bb565b90509250929050565b6112b880620001196000396000f3fe608060405234801561001057600080fd5b50600436106101005760003560e01c8063c82f744811610097578063f2fde38b11610066578063f2fde38b146102ad578063f7c618c1146102c0578063f8cf31cb146102d3578063fd2fb8be146102e657600080fd5b8063c82f744814610226578063d9bd320114610293578063da06297e1461029c578063e2975211146102a557600080fd5b80636c93ae84116100d35780636c93ae84146101d3578063715018a6146101e65780638da5cb5b146101ee5780639b7b2ab01461021357600080fd5b80633b29d3ef146101055780633b9418fd14610188578063551b72ea146101b6578063648a3a4c146101cb575b600080fd5b61014f610113366004611045565b600560205260009081526040902080546001820154600283015460038401546004909401546001600160a01b0390931693919290919060ff1685565b604080516001600160a01b03909616865260208601949094529284019190915260608301521515608082015260a0015b60405180910390f35b6101a8610196366004611045565b60076020526000908152604090205481565b60405190815260200161017f565b6101c96101c43660046110d4565b6102f9565b005b6101a8600a81565b6101c96101e1366004611045565b610550565b6101c96106c6565b6000546001600160a01b03165b6040516001600160a01b03909116815260200161017f565b6001546101fb906001600160a01b031681565b6102686102343660046110a4565b60066020526000908152604090208054600182015460028301546003909301546001600160a01b0392831693919092169184565b604080516001600160a01b03958616815294909316602085015291830152606082015260800161017f565b6101a860045481565b6101a860035481565b6101c96106fc565b6101c96102bb366004611045565b610a34565b6002546101fb906001600160a01b031681565b6101c96102e1366004611045565b610acf565b6101c96102f43660046110a4565b610b43565b336001546040516331a9108f60e11b8152600481018590526001600160a01b039283169290911690636352211e9060240160206040518083038186803b15801561034257600080fd5b505afa158015610356573d6000803e3d6000fd5b505050506040513d601f19601f8201168201806040525081019061037a9190611068565b6001600160a01b0316146103e05760405162461bcd60e51b815260206004820152602260248201527f637265617465526f6c653a20796f7520646f206e6f74206f776e20746865206e604482015261199d60f21b60648201526084015b60405180910390fd5b6001546001600160a01b03166323b872dd336040516001600160e01b031960e084901b1681526001600160a01b03909116600482015230602482015260448101859052606401600060405180830381600087803b15801561044057600080fd5b505af1158015610454573d6000803e3d6000fd5b50505050600060045460016104699190611199565b60018054600083815260066020526040902091820180546001600160a01b0319166001600160a01b039092169190911790556002810185905560030183905590506104b13390565b600082815260066020908152604080832080546001600160a01b0319166001600160a01b0395909516949094179093553382526007905290812082905560048054916104fc83611212565b9190505550826105093390565b6001600160a01b03167f951c92325e8d812b9d7b16103b0840c865ba42158affc1d47b9282565ea478a48460405161054391815260200190565b60405180910390a3505050565b6000546001600160a01b0316331461057a5760405162461bcd60e51b81526004016103d790611164565b6002546040516370a0823160e01b81523060048201526000916001600160a01b0316906370a082319060240160206040518083038186803b1580156105be57600080fd5b505afa1580156105d2573d6000803e3d6000fd5b505050506040513d601f19601f820116820180604052508101906105f691906110bc565b60025460405163a9059cbb60e01b81526001600160a01b0385811660048301526024820184905292935091169063a9059cbb90604401602060405180830381600087803b15801561064657600080fd5b505af115801561065a573d6000803e3d6000fd5b505050506040513d601f19601f8201168201806040525081019061067e9190611084565b50816001600160a01b03167f47185bfeaa34ad210d128d5a7895842e27012f2f74d46696a180e116568f34fa826040516106ba91815260200190565b60405180910390a25050565b6000546001600160a01b031633146106f05760405162461bcd60e51b81526004016103d790611164565b6106fa6000610cda565b565b3360008181526007602052604090205461076e5760405162461bcd60e51b815260206004820152602d60248201527f707670426174746c653a20706c6561736520726567697374657220796f75722060448201526c1c9bdb1948185d08199a5c9cdd609a1b60648201526084016103d7565b6001600160a01b0380821660009081526007602090815260408083205480845260068352818420825160808101845281548716815260018201549096169386019390935260028301549185019190915260039091015460608401819052909291906107d890610d2a565b6107e142610d2a565b6040516020016107f292919061112e565b6040516020818303038152906040528051906020012060001c905060006004548261081d919061122d565b6000818152600660209081526040808320815160808101835281546001600160a01b039081168252600183015416938101939093526002810154838301526003015460608084019190915287015190870151939450909261087e9190610e4c565b9050600061089483606001518460400151610e4c565b83516001600160a01b038a8116600090815260056020526040902080546001600160a01b0319169190921617815560018101849055600281018290554260039091015590508082111561099f576001600160a01b03808916600090815260056020526040908190206004908101805460ff19166001179055600254600354925163a9059cbb60e01b815293169263a9059cbb92610947928d92016001600160a01b03929092168252602082015260400190565b602060405180830381600087803b15801561096157600080fd5b505af1158015610975573d6000803e3d6000fd5b505050506040513d601f19601f820116820180604052508101906109999190611084565b506109c3565b6001600160a01b0388166000908152600560205260409020600401805460ff191690555b82516001600160a01b0389811660008181526005602090815260409182902060040154825194909516845260ff9094161515938301939093529189917f88cbf59573b8b94b3c800ad2f9ddb2858fba3be21492269016042fef4cf67f6b910160405180910390a35050505050505050565b6000546001600160a01b03163314610a5e5760405162461bcd60e51b81526004016103d790611164565b6001600160a01b038116610ac35760405162461bcd60e51b815260206004820152602660248201527f4f776e61626c653a206e6577206f776e657220697320746865207a65726f206160448201526564647265737360d01b60648201526084016103d7565b610acc81610cda565b50565b6000546001600160a01b03163314610af95760405162461bcd60e51b81526004016103d790611164565b600280546001600160a01b0319166001600160a01b0383169081179091556040517f2a6ce8490320414415367a61709a20bd5e1b02565f5594fbf6c4f84d1ff7c4fb90600090a250565b336000908152600760205260409020548114610bbe5760405162461bcd60e51b815260206004820152603460248201527f7175697446726f6d47616d653a20536f7272792c20796f7520646f206e6f7420604482015273309031b0b73234b230ba32903bb0b93934b7b91760611b60648201526084016103d7565b3360009081526007602090815260408083208390558383526006909152812080546001600160a01b031990811682556001820180549091169055600281018290556003018190556004805491610c13836111fb565b90915550506001546001600160a01b03166323b872dd6000336040516001600160e01b031960e085901b1681526001600160a01b0392831660048201529116602482015260448101849052606401600060405180830381600087803b158015610c7b57600080fd5b505af1158015610c8f573d6000803e3d6000fd5b50505050807fd4d1aaee65bdd191a514d704597570c968f8a11e16b36e7289947e2935f4929f610cbc3390565b6040516001600160a01b03909116815260200160405180910390a250565b600080546001600160a01b038381166001600160a01b0319831681178455604051919092169283917f8be0079c531659141344cd1fd0a4f28419497f9722a3daafe3b4186f6b6457e09190a35050565b606081610d4e5750506040805180820190915260018152600360fc1b602082015290565b8160005b8115610d785780610d6281611212565b9150610d719050600a836111b1565b9150610d52565b60008167ffffffffffffffff811115610da157634e487b7160e01b600052604160045260246000fd5b6040519080825280601f01601f191660200182016040528015610dcb576020820181803683370190505b5090505b8415610e4457610de06001836111e4565b9150610ded600a8661122d565b610df8906030611199565b60f81b818381518110610e1b57634e487b7160e01b600052603260045260246000fd5b60200101906001600160f81b031916908160001a905350610e3d600a866111b1565b9450610dcf565b949350505050565b600080610e5883610d2a565b610e6185610d2a565b610e6a42610d2a565b604051602001610e7c93929190611143565b6040516020818303038152906040528051906020012060001c9050600080610ea386610ed6565b90925090506000610eb483836111e4565b905082610ec1828661122d565b610ecb9190611199565b979650505050505050565b60008082610f345760405162461bcd60e51b815260206004820152602560248201527f7261726974792073636f7265206f66206c6f6f74206d757374206e6f74206265604482015264081b9d5b1b60da1b60648201526084016103d7565b600083118015610f4657506103e88311155b15610f5f57610f56836005610ff0565b91509150915091565b6103e883118015610f7257506107d08311155b15610f8257610f5683600a610ff0565b6107d083118015610f955750610bb88311155b15610fa557610f5683600f610ff0565b610bb883118015610fb85750610fa08311155b15610fc857610f56836014610ff0565b610fa083118015610fdb57506115698311155b15610feb57610f56836019610ff0565b915091565b60008080606461100085876111c5565b61100a91906111b1565b61101490866111e4565b90506000606461102486886111c5565b61102e91906111b1565b6110389087611199565b9196919550909350505050565b600060208284031215611056578081fd5b81356110618161126d565b9392505050565b600060208284031215611079578081fd5b81516110618161126d565b600060208284031215611095578081fd5b81518015158114611061578182fd5b6000602082840312156110b5578081fd5b5035919050565b6000602082840312156110cd578081fd5b5051919050565b600080604083850312156110e6578081fd5b50508035926020909101359150565b60008151815b8181101561111557602081850181015186830152016110fb565b818111156111235782828601525b509290920192915050565b6000610e4461113d83866110f5565b846110f5565b600061115b61113d61115584886110f5565b866110f5565b95945050505050565b6020808252818101527f4f776e61626c653a2063616c6c6572206973206e6f7420746865206f776e6572604082015260600190565b600082198211156111ac576111ac611241565b500190565b6000826111c0576111c0611257565b500490565b60008160001904831182151516156111df576111df611241565b500290565b6000828210156111f6576111f6611241565b500390565b60008161120a5761120a611241565b506000190190565b600060001982141561122657611226611241565b5060010190565b60008261123c5761123c611257565b500690565b634e487b7160e01b600052601160045260246000fd5b634e487b7160e01b600052601260045260246000fd5b6001600160a01b0381168114610acc57600080fdfea2646970667358221220aadf9dd2bd8fa6bdd0ecc345c5a56b315d08bb68ff9bb343fbfd22d5d684c7ec64736f6c63430008040033",
  "linkReferences": {},
  "deployedLinkReferences": {}
}