{
  "_format": "hh-sol-artifact-1",
  "contractName": "cLoot",
  "sourceName": "contracts/cLoot.sol",
  "abi": [
    {
      "inputs": [
        {
          "internalType": "address",
          "name": "_childChainManagerProxy",
          "type": "address"
        }
      ],
      "stateMutability": "nonpayable",
      "type": "constructor"
    },
    {
      "anonymous": false,
      "inputs": [
        {
          "indexed": true,
          "internalType": "address",
          "name": "owner",
          "type": "address"
        },
        {
          "indexed": true,
          "internalType": "address",
          "name": "approved",
          "type": "address"
        },
        {
          "indexed": true,
          "internalType": "uint256",
          "name": "tokenId",
          "type": "uint256"
        }
      ],
      "name": "Approval",
      "type": "event"
    },
    {
      "anonymous": false,
      "inputs": [
        {
          "indexed": true,
          "internalType": "address",
          "name": "owner",
          "type": "address"
        },
        {
          "indexed": true,
          "internalType": "address",
          "name": "operator",
          "type": "address"
        },
        {
          "indexed": false,
          "internalType": "bool",
          "name": "approved",
          "type": "bool"
        }
      ],
      "name": "ApprovalForAll",
      "type": "event"
    },
    {
      "anonymous": false,
      "inputs": [
        {
          "indexed": true,
          "internalType": "address",
          "name": "previousOwner",
          "type": "address"
        },
        {
          "indexed": true,
          "internalType": "address",
          "name": "newOwner",
          "type": "address"
        }
      ],
      "name": "OwnershipTransferred",
      "type": "event"
    },
    {
      "anonymous": false,
      "inputs": [
        {
          "indexed": true,
          "internalType": "address",
          "name": "from",
          "type": "address"
        },
        {
          "indexed": true,
          "internalType": "address",
          "name": "to",
          "type": "address"
        },
        {
          "indexed": true,
          "internalType": "uint256",
          "name": "tokenId",
          "type": "uint256"
        }
      ],
      "name": "Transfer",
      "type": "event"
    },
    {
      "anonymous": false,
      "inputs": [
        {
          "indexed": false,
          "internalType": "address",
          "name": "account",
          "type": "address"
        },
        {
          "indexed": false,
          "internalType": "uint256",
          "name": "tokenId",
          "type": "uint256"
        }
      ],
      "name": "tokenBurnt",
      "type": "event"
    },
    {
      "anonymous": false,
      "inputs": [
        {
          "indexed": false,
          "internalType": "address",
          "name": "account",
          "type": "address"
        },
        {
          "indexed": false,
          "internalType": "uint256",
          "name": "tokenId",
          "type": "uint256"
        }
      ],
      "name": "tokenDeposited",
      "type": "event"
    },
    {
      "inputs": [
        {
          "internalType": "address",
          "name": "to",
          "type": "address"
        },
        {
          "internalType": "uint256",
          "name": "tokenId",
          "type": "uint256"
        }
      ],
      "name": "approve",
      "outputs": [],
      "stateMutability": "nonpayable",
      "type": "function"
    },
    {
      "inputs": [
        {
          "internalType": "address",
          "name": "owner",
          "type": "address"
        }
      ],
      "name": "balanceOf",
      "outputs": [
        {
          "internalType": "uint256",
          "name": "",
          "type": "uint256"
        }
      ],
      "stateMutability": "view",
      "type": "function"
    },
    {
      "inputs": [
        {
          "internalType": "uint256",
          "name": "tokenId",
          "type": "uint256"
        }
      ],
      "name": "burn",
      "outputs": [],
      "stateMutability": "nonpayable",
      "type": "function"
    },
    {
      "inputs": [],
      "name": "childChainManagerProxy",
      "outputs": [
        {
          "internalType": "address",
          "name": "",
          "type": "address"
        }
      ],
      "stateMutability": "view",
      "type": "function"
    },
    {
      "inputs": [
        {
          "internalType": "uint256",
          "name": "tokenId",
          "type": "uint256"
        }
      ],
      "name": "claim",
      "outputs": [],
      "stateMutability": "nonpayable",
      "type": "function"
    },
    {
      "inputs": [
        {
          "internalType": "address",
          "name": "account",
          "type": "address"
        },
        {
          "internalType": "bytes",
          "name": "depositData",
          "type": "bytes"
        }
      ],
      "name": "deposit",
      "outputs": [],
      "stateMutability": "nonpayable",
      "type": "function"
    },
    {
      "inputs": [
        {
          "internalType": "uint256",
          "name": "tokenId",
          "type": "uint256"
        }
      ],
      "name": "getApproved",
      "outputs": [
        {
          "internalType": "address",
          "name": "",
          "type": "address"
        }
      ],
      "stateMutability": "view",
      "type": "function"
    },
    {
      "inputs": [
        {
          "internalType": "uint256",
          "name": "tokenId",
          "type": "uint256"
        }
      ],
      "name": "getChest",
      "outputs": [
        {
          "internalType": "string",
          "name": "",
          "type": "string"
        }
      ],
      "stateMutability": "view",
      "type": "function"
    },
    {
      "inputs": [
        {
          "internalType": "uint256",
          "name": "tokenId",
          "type": "uint256"
        }
      ],
      "name": "getFoot",
      "outputs": [
        {
          "internalType": "string",
          "name": "",
          "type": "string"
        }
      ],
      "stateMutability": "view",
      "type": "function"
    },
    {
      "inputs": [
        {
          "internalType": "uint256",
          "name": "tokenId",
          "type": "uint256"
        }
      ],
      "name": "getHand",
      "outputs": [
        {
          "internalType": "string",
          "name": "",
          "type": "string"
        }
      ],
      "stateMutability": "view",
      "type": "function"
    },
    {
      "inputs": [
        {
          "internalType": "uint256",
          "name": "tokenId",
          "type": "uint256"
        }
      ],
      "name": "getHead",
      "outputs": [
        {
          "internalType": "string",
          "name": "",
          "type": "string"
        }
      ],
      "stateMutability": "view",
      "type": "function"
    },
    {
      "inputs": [
        {
          "internalType": "uint256",
          "name": "tokenId",
          "type": "uint256"
        }
      ],
      "name": "getNeck",
      "outputs": [
        {
          "internalType": "string",
          "name": "",
          "type": "string"
        }
      ],
      "stateMutability": "view",
      "type": "function"
    },
    {
      "inputs": [
        {
          "internalType": "uint256",
          "name": "tokenId",
          "type": "uint256"
        }
      ],
      "name": "getRing",
      "outputs": [
        {
          "internalType": "string",
          "name": "",
          "type": "string"
        }
      ],
      "stateMutability": "view",
      "type": "function"
    },
    {
      "inputs": [
        {
          "internalType": "uint256",
          "name": "tokenId",
          "type": "uint256"
        }
      ],
      "name": "getWaist",
      "outputs": [
        {
          "internalType": "string",
          "name": "",
          "type": "string"
        }
      ],
      "stateMutability": "view",
      "type": "function"
    },
    {
      "inputs": [
        {
          "internalType": "uint256",
          "name": "tokenId",
          "type": "uint256"
        }
      ],
      "name": "getWeapon",
      "outputs": [
        {
          "internalType": "string",
          "name": "",
          "type": "string"
        }
      ],
      "stateMutability": "view",
      "type": "function"
    },
    {
      "inputs": [
        {
          "internalType": "address",
          "name": "owner",
          "type": "address"
        },
        {
          "internalType": "address",
          "name": "operator",
          "type": "address"
        }
      ],
      "name": "isApprovedForAll",
      "outputs": [
        {
          "internalType": "bool",
          "name": "",
          "type": "bool"
        }
      ],
      "stateMutability": "view",
      "type": "function"
    },
    {
      "inputs": [],
      "name": "name",
      "outputs": [
        {
          "internalType": "string",
          "name": "",
          "type": "string"
        }
      ],
      "stateMutability": "view",
      "type": "function"
    },
    {
      "inputs": [],
      "name": "owner",
      "outputs": [
        {
          "internalType": "address",
          "name": "",
          "type": "address"
        }
      ],
      "stateMutability": "view",
      "type": "function"
    },
    {
      "inputs": [
        {
          "internalType": "uint256",
          "name": "tokenId",
          "type": "uint256"
        }
      ],
      "name": "ownerClaim",
      "outputs": [],
      "stateMutability": "nonpayable",
      "type": "function"
    },
    {
      "inputs": [
        {
          "internalType": "uint256",
          "name": "tokenId",
          "type": "uint256"
        }
      ],
      "name": "ownerOf",
      "outputs": [
        {
          "internalType": "address",
          "name": "",
          "type": "address"
        }
      ],
      "stateMutability": "view",
      "type": "function"
    },
    {
      "inputs": [],
      "name": "renounceOwnership",
      "outputs": [],
      "stateMutability": "nonpayable",
      "type": "function"
    },
    {
      "inputs": [
        {
          "internalType": "address",
          "name": "from",
          "type": "address"
        },
        {
          "internalType": "address",
          "name": "to",
          "type": "address"
        },
        {
          "internalType": "uint256",
          "name": "tokenId",
          "type": "uint256"
        }
      ],
      "name": "safeTransferFrom",
      "outputs": [],
      "stateMutability": "nonpayable",
      "type": "function"
    },
    {
      "inputs": [
        {
          "internalType": "address",
          "name": "from",
          "type": "address"
        },
        {
          "internalType": "address",
          "name": "to",
          "type": "address"
        },
        {
          "internalType": "uint256",
          "name": "tokenId",
          "type": "uint256"
        },
        {
          "internalType": "bytes",
          "name": "_data",
          "type": "bytes"
        }
      ],
      "name": "safeTransferFrom",
      "outputs": [],
      "stateMutability": "nonpayable",
      "type": "function"
    },
    {
      "inputs": [
        {
          "internalType": "address",
          "name": "operator",
          "type": "address"
        },
        {
          "internalType": "bool",
          "name": "approved",
          "type": "bool"
        }
      ],
      "name": "setApprovalForAll",
      "outputs": [],
      "stateMutability": "nonpayable",
      "type": "function"
    },
    {
      "inputs": [
        {
          "internalType": "bytes4",
          "name": "interfaceId",
          "type": "bytes4"
        }
      ],
      "name": "supportsInterface",
      "outputs": [
        {
          "internalType": "bool",
          "name": "",
          "type": "bool"
        }
      ],
      "stateMutability": "view",
      "type": "function"
    },
    {
      "inputs": [],
      "name": "symbol",
      "outputs": [
        {
          "internalType": "string",
          "name": "",
          "type": "string"
        }
      ],
      "stateMutability": "view",
      "type": "function"
    },
    {
      "inputs": [
        {
          "internalType": "uint256",
          "name": "index",
          "type": "uint256"
        }
      ],
      "name": "tokenByIndex",
      "outputs": [
        {
          "internalType": "uint256",
          "name": "",
          "type": "uint256"
        }
      ],
      "stateMutability": "view",
      "type": "function"
    },
    {
      "inputs": [
        {
          "internalType": "address",
          "name": "owner",
          "type": "address"
        },
        {
          "internalType": "uint256",
          "name": "index",
          "type": "uint256"
        }
      ],
      "name": "tokenOfOwnerByIndex",
      "outputs": [
        {
          "internalType": "uint256",
          "name": "",
          "type": "uint256"
        }
      ],
      "stateMutability": "view",
      "type": "function"
    },
    {
      "inputs": [
        {
          "internalType": "uint256",
          "name": "tokenId",
          "type": "uint256"
        }
      ],
      "name": "tokenURI",
      "outputs": [
        {
          "internalType": "string",
          "name": "",
          "type": "string"
        }
      ],
      "stateMutability": "view",
      "type": "function"
    },
    {
      "inputs": [],
      "name": "totalSupply",
      "outputs": [
        {
          "internalType": "uint256",
          "name": "",
          "type": "uint256"
        }
      ],
      "stateMutability": "view",
      "type": "function"
    },
    {
      "inputs": [
        {
          "internalType": "address",
          "name": "from",
          "type": "address"
        },
        {
          "internalType": "address",
          "name": "to",
          "type": "address"
        },
        {
          "internalType": "uint256",
          "name": "tokenId",
          "type": "uint256"
        }
      ],
      "name": "transferFrom",
      "outputs": [],
      "stateMutability": "nonpayable",
      "type": "function"
    },
    {
      "inputs": [
        {
          "internalType": "address",
          "name": "newOwner",
          "type": "address"
        }
      ],
      "name": "transferOwnership",
      "outputs": [],
      "stateMutability": "nonpayable",
      "type": "function"
    },
    {
      "inputs": [
        {
          "internalType": "address",
          "name": "_newchildChainMangerAddress",
          "type": "address"
        }
      ],
      "name": "updateChildChainManger",
      "outputs": [],
      "stateMutability": "nonpayable",
      "type": "function"
    },
    {
      "inputs": [
        {
          "internalType": "uint256",
          "name": "tokenId",
          "type": "uint256"
        }
      ],
      "name": "withdraw",
      "outputs": [],
      "stateMutability": "nonpayable",
      "type": "function"
    }
  ],
  "bytecode": "0x60096102c0818152682bb0b93430b6b6b2b960b91b6102e0526080908152600c6103009081526b28bab0b93a32b939ba30b33360a11b6103205260a05260046103408181526313585d5b60e21b6103605260c052610380818152634d61636560e01b6103a05260e0526103c08181526321b63ab160e11b6103e052610100526006610400908152654b6174616e6160d01b61042052610120526008610440818152672330b631b434b7b760c11b61046052610140526104808181526729b1b4b6b4ba30b960c11b6104a05261016052600a6104c081815269131bdb99c814dddbdc9960b21b6104e05261018052600b6105009081526a14da1bdc9d0814dddbdc9960aa1b610520526101a0526105408181526911da1bdcdd0815d85b9960b21b610560526101c0526105809081526911dc985d994815d85b9960b21b6105a0526101e0526105c084815268109bdb994815d85b9960ba1b6105e052610200526106008281526315d85b9960e21b6106205261022052610640908152674772696d6f69726560c01b6106605261024052610680928352684368726f6e69636c6560b81b6106a052610260929092526106c082815263546f6d6560e01b6106e0526102805261074060405261070091825263426f6f6b60e01b610720526102a091909152620001f190600d90601262001d28565b506040805161022081018252600b6101e082019081526a446976696e6520526f626560a81b61020083015281528151808301835260098082526853696c6b20526f626560b81b6020838101919091528084019290925283518085018552600a808252694c696e656e20526f626560b01b8285015284860191909152845180860186526004815263526f626560e01b81850152606085015284518086018652600581526414da1a5c9d60da1b818501526080850152845180860186528181526944656d6f6e204875736b60b01b8185015260a085015284518086018652601081526f223930b3b7b739b5b4b71020b936b7b960811b8185015260c085015284518086018652601581527f53747564646564204c6561746865722041726d6f7200000000000000000000008185015260e08501528451808601865260128152712430b932102632b0ba3432b91020b936b7b960711b8185015261010085015284518086018652600d81526c2632b0ba3432b91020b936b7b960991b8185015261012085015284518086018652600f8082526e486f6c79204368657374706c61746560881b828601526101408601919091528551808701875260118152704f726e617465204368657374706c61746560781b818601526101608601528551808701875282815269141b185d194813585a5b60b21b81860152610180860152855180870187529182526910da185a5b8813585a5b60b21b828501526101a0850191909152845180860190955290845268149a5b99c813585a5b60ba1b918401919091526101c08201929092526200044891600e919062001d8c565b506040805161022081018252600c6101e082019081526b416e6369656e742048656c6d60a01b610200830152815281518083018352600b8082526a4f726e6174652048656c6d60a81b6020838101919091528084019290925283518085018552600a8082526947726561742048656c6d60b01b82850152848601919091528451808601865260098082526846756c6c2048656c6d60b81b8286015260608601919091528551808701875260048082526348656c6d60e01b828701526080870191909152865180880188528481526a2232b6b7b71021b937bbb760a91b8187015260a087015286518088018852600e81526d223930b3b7b713b99021b937bbb760911b8187015260c08701528651808801885260078152660576172204361760cc1b8187015260e0870152865180880188528481526a04c656174686572204361760ac1b8187015261010087015286518088018852600381526204361760ec1b8187015261012087015286518088018852600581526421b937bbb760d91b81870152610140870152865180880188529384526a111a5d9a5b9948121bdbd960aa1b84860152610160860193909352855180870187529081526814da5b1ac8121bdbd960ba1b818501526101808501528451808601865290815269131a5b995b88121bdbd960b21b818401526101a08401528351808501909452835263121bdbd960e21b908301526101c08101919091526200066690600f908162001d8c565b506040805161022081018252600b6101e082018181526a13dc9b985d194810995b1d60aa1b610200840152825282518084018452600881526715d85c8810995b1d60c21b60208281019190915280840191909152835180850185529182526a141b185d19590810995b1d60aa1b82820152828401919091528251808401845260098082526813595cda0810995b1d60ba1b82840152606084019190915283518085018552600a808252691219585d9e4810995b1d60b21b82850152608085019190915284518086018652600e81526d11195b5bdb9a1a59194810995b1d60921b8185015260a085015284518086018652600f8082526e111c9859dbdb9cdada5b8810995b1d608a1b8286015260c086019190915285518087018752601481527f53747564646564204c6561746865722042656c740000000000000000000000008186015260e086015285518087018752601181527012185c99081319585d1a195c8810995b1d607a1b8186015261010086015285518087018752600c81526b1319585d1a195c8810995b1d60a21b81860152610120860152855180870187528181526e084e4d2ced0e8e6d2d8d640a6c2e6d608b1b8186015261014086015285518087018752838152680a6d2d8d640a6c2e6d60bb1b8186015261016086015285518087018752928352680aededed840a6c2e6d60bb1b838501526101808501929092528451808601865290815269098d2dccadc40a6c2e6d60b31b818401526101a0840152835180850190945260048452630a6c2e6d60e31b918401919091526101c0820192909252620008bf916010919062001d8c565b506040805161022081018252600c6101e082019081526b486f6c79204772656176657360a01b610200830152815281518083018352600e81526d4f726e617465204772656176657360901b602082810191909152808301919091528251808401845260078152664772656176657360c81b818301528284015282518084018452600b8082526a436861696e20426f6f747360a81b828401526060840191909152835180850185528181526a486561767920426f6f747360a81b81840152608084015283518085018552600f8082526e44656d6f6e6869646520426f6f747360881b8285015260a085019190915284518086018652601081526f447261676f6e736b696e20426f6f747360801b8185015260c085015284518086018652601581527f53747564646564204c65617468657220426f6f747300000000000000000000008185015260e085015284518086018652601281527148617264204c65617468657220426f6f747360701b8185015261010085015284518086018652600d8082526c4c65617468657220426f6f747360981b82860152610120860191909152855180870187528281526e446976696e6520536c69707065727360881b81860152610140860152855180870187529081526c53696c6b20536c69707065727360981b8185015261016085015284518086018652600a815269576f6f6c2053686f657360b01b81850152610180850152845180860186529182526a4c696e656e2053686f657360a81b828401526101a08401919091528351808501909452600584526453686f657360d81b918401919091526101c082019290925262000b27916011919062001d8c565b506040805161022081018252600e6101e082018181526d486f6c79204761756e746c65747360901b610200840152825282518084018452601081526f4f726e617465204761756e746c65747360801b602082810191909152808401919091528351808501855260098152684761756e746c65747360b81b818301528385015283518085018552600c8082526b436861696e20476c6f76657360a01b828401526060850191909152845180860186528181526b486561767920476c6f76657360a01b81840152608085015284518086018652600d8082526c44656d6f6e27732048616e647360981b8285015260a0860191909152855180870187526011815270447261676f6e736b696e20476c6f76657360781b8185015260c086015285518087018752601681527f53747564646564204c65617468657220476c6f766573000000000000000000008185015260e086015285518087018752601381527f48617264204c65617468657220476c6f7665730000000000000000000000000081850152610100860152855180870187529384526d4c65617468657220476c6f76657360901b84840152610120850193909352845180860186529283526c446976696e6520476c6f76657360981b8383015261014084019290925283518085018552600b8082526a53696c6b20476c6f76657360a81b82840152610160850191909152845180860186529081526a576f6f6c20476c6f76657360a81b81830152610180840152835180850185529182526b4c696e656e20476c6f76657360a01b828201526101a083019190915282518084019093526006835265476c6f76657360d01b908301526101c081019190915262000da490601290600f62001d8c565b506040518060600160405280604051806040016040528060088152602001674e65636b6c61636560c01b815250815260200160405180604001604052806006815260200165105b5d5b195d60d21b81525081526020016040518060400160405280600781526020016614195b99185b9d60ca1b815250815250601390600362000e2f92919062001dde565b506040805160e081018252600960a0820190815268476f6c642052696e6760b81b60c0830152815281518083018352600b8082526a53696c7665722052696e6760a81b60208381019190915280840192909252835180850185529081526a42726f6e7a652052696e6760a81b818301528284015282518084018452600d8082526c506c6174696e756d2052696e6760981b828401526060840191909152835180850190945283526c546974616e69756d2052696e6760981b90830152608081019190915262000f0390601490600562001e30565b506040805161024081018252600861020082018181526737b3102837bbb2b960c11b6102208401528252825180840184526009808252686f66204769616e747360b81b6020838101919091528085019290925284518086018652908152686f6620546974616e7360b81b818301528385015283518085018552828152671bd98814dada5b1b60c21b81830152606084015283518085018552600d8082526c37b3102832b93332b1ba34b7b760991b828401526080850191909152845180860186528181526c6f66204272696c6c69616e636560981b8184015260a08501528451808601865260108082526f1bd988115b9b1a59da1d195b9b595b9d60821b8285015260c0860191909152855180870187528281526c37b310283937ba32b1ba34b7b760991b8185015260e0860152855180870187529384526737b31020b733b2b960c11b84840152610100850193909352845180860186526007808252666f66205261676560c81b8285015261012086019190915285518087018752908152666f66204675727960c81b8184015261014085015284518086018652600a808252691bd988159a5d1c9a5bdb60b21b8285015261016086019190915285518087018752908152690decc40e8d0ca408cdef60b31b8184015261018085015284518086018652600c8082526b37b3102232ba32b1ba34b7b760a11b828501526101a0860191909152855180870187529182526c37b3102932b33632b1ba34b7b760991b828401526101c0850191909152845180860190955284526b6f6620746865205477696e7360a01b908401526101e082019290925262001167916015919062001e82565b50604080516108e08101825260056108a082018181526441676f6e7960d81b6108c0840152825282518084018452600a8082526941706f63616c7970736560b01b60208381019190915280850192909252845180860186528181526920b936b0b3b2b23237b760b11b818401528486015284518086018652838152641099585cdd60da1b81840152606085015284518086018652600880825267084cad0cadadee8d60c31b82850152608086019190915285518087018752600680825265109b1a59da1d60d21b8286015260a08701919091528651808801885285815264109b1bdbd960da1b8186015260c0870152865180880188526007808252664272616d626c6560c81b8287015260e0880191909152875180890189526009808252684272696d73746f6e6560b81b828801526101008901919091528851808a018a5287815264109c9bdbd960da1b818801526101208901528851808a018a528281526621b0b93934b7b760c91b818801526101408901528851808a018a528181526843617461636c79736d60b81b818801526101608901528851808a018a52848152674368696d6572696360c01b818801526101808901528851808a018a5283815265436f7270736560d01b818801526101a08901528851808a018a528581526921b7b9393ab83a34b7b760b11b818801526101c08901528851808a018a52818152682230b6b730ba34b7b760b91b818801526101e08901528851808a018a5287815264088cac2e8d60db1b818801526102008901528851808a018a52878152642232b6b7b760d91b818801526102208901528851808a018a526004808252634469726560e01b828901526102408a01919091528951808b018b5284815265223930b3b7b760d11b818901526102608a01528951808b018b5288815264111c99585960da1b818901526102808a01528951808b018b5281815263446f6f6d60e01b818901526102a08a01528951808b018b52818152634475736b60e01b818901526102c08a01528951808b018b52888152644561676c6560d81b818901526102e08a01528951808b018b528581526722b6b83cb932b0b760c11b818901526103008a01528951808b018b52818152634661746560e01b818901526103208a01528951808b018b52600380825262466f6560e81b828a01526103408b01919091528a51808c018c528281526347616c6560e01b818a01526103608b01528a51808c018c528981526411da1bdd5b60da1b818a01526103808b01528a51808c018c5289815264476c6f6f6d60d81b818a01526103a08b01528a51808c018c528981526408ed8f2e0d60db1b818a01526103c08b01528a51808c018c5289815264476f6c656d60d81b818a01526103e08b01528a51808c018c52828152634772696d60e01b818a01526104008b01528a51808c018c52828152634861746560e01b818a01526104208b01528a51808c018c52898152644861766f6360d81b818a01526104408b01528a51808c018c52858152652437b737bab960d11b818a01526104608b01528a51808c018c52858152652437b93937b960d11b818a01526104808b01528a51808c018c52868152674879706e6f74696360c01b818a01526104a08b01528a51808c018c528581526525b930b5b2b760d11b818a01526104c08b01528a51808c018c5289815264098dec2e8d60db1b818a01526104e08b01528a51808c018c52838152684d61656c7374726f6d60b81b818a01526105008b01528a51808c018c5282815263135a5b9960e21b818a01526105208b01528a51808c018c52848152664d697261636c6560c81b818a01526105408b01528a51808c018c5285815265135bdc989a5960d21b818a01526105608b01528a51808c018c529586526727b13634bb34b7b760c11b868901526105808a01959095528951808b018b528281526813db9cdb185d59da1d60ba1b818901526105a08a01528951808b018b52818152632830b4b760e11b818901526105c08a01528951808b018b52600b81526a50616e64656d6f6e69756d60a81b818901526105e08a01528951808b018b52838152660a0d0decadcd2f60cb1b818901526106008a01528951808b018b5284815265506c6167756560d01b818901526106208a01528951808b018b52818152635261676560e01b818901526106408a01528951808b018b52838152665261707475726560c81b818901526106608a01528951808b018b528181526352756e6560e01b818901526106808a01528951808b018b528881526414dadd5b1b60da1b818901526106a08a01528951808b018b528581526214dbdb60ea1b818901526106c08a01528951808b018b529081526314dbdd5b60e21b818801526106e08901528851808a018a5283815265536f72726f7760d01b818801526107008901528851808a018a528381526514dc1a5c9a5d60d21b818801526107208901528851808a018a528781526453746f726d60d81b818801526107408901528851808a018a528281526615195b5c195cdd60ca1b818801526107608901528851808a018a5282815266151bdc9b595b9d60ca1b818801526107808901528851808a018a529081526856656e6765616e636560b81b818701526107a08801528751808901895281815266566963746f727960c81b818701526107c088015287518089018952868152642b34b832b960d91b818701526107e088015287518089018952918252650acdee4e8caf60d31b828601526108008701919091528651808801885291825262576f6560e81b8285015261082086019190915285518087018752938452640aee4c2e8d60db1b8484015261084085019390935284518086018652928352664c69676874277360c81b838301526108608401929092528351808501909452908352695368696d6d6572696e6760b01b90830152610880810191909152620019d190601690604562001ed4565b506040805161028081018252600461024082018181526342616e6560e01b61026084015282528251808401845281815263149bdbdd60e21b6020828101919091528084019190915283518085018552828152634269746560e01b81830152838501528351808501855282815263536f6e6760e01b81830152606084015283518085018552828152632937b0b960e11b81830152608084015283518085018552600580825264047726173760dc1b8284015260a085019190915284518086018652600a815269125b9cdd1c9d5b595b9d60b21b8184015260c08501528451808601865283815263476c6f7760e01b8184015260e0850152845180860186526006808252652132b73232b960d11b828501526101008601919091528551808701875290815265536861646f7760d01b818401526101208501528451808601865260078152662bb434b9b832b960c91b81840152610140850152845180860186528181526414da1bdd5d60da1b81840152610160850152845180860186529081526411dc9bdddb60da1b8183015261018084015283518085018552828152632a32b0b960e11b818301526101a084015283518085018552828152635065616b60e01b818301526101c08401528351808501855282815263466f726d60e01b818301526101e084015283518085018552600381526229bab760e91b8183015261020084015283518085019094529083526326b7b7b760e11b9083015261022081019190915262001c0290601790601262001d28565b5034801562001c1057600080fd5b506040516200571d3803806200571d83398101604081905262001c33916200202b565b6040518060400160405280600581526020016418d31bdbdd60da1b8152506040518060400160405280600581526020016418d313d3d560da1b815250816000908051906020019062001c8792919062001f26565b50805162001c9d90600190602084019062001f26565b50506001600a555062001cb03362001cd6565b600c80546001600160a01b0319166001600160a01b039290921691909117905562002098565b600b80546001600160a01b038381166001600160a01b0319831681179093556040519116919082907f8be0079c531659141344cd1fd0a4f28419497f9722a3daafe3b4186f6b6457e090600090a35050565b82805482825590600052602060002090810192821562001d7a579160200282015b8281111562001d7a578251805162001d6991849160209091019062001f26565b509160200191906001019062001d49565b5062001d8892915062001fb1565b5090565b82805482825590600052602060002090810192821562001d7a579160200282015b8281111562001d7a578251805162001dcd91849160209091019062001f26565b509160200191906001019062001dad565b82805482825590600052602060002090810192821562001d7a579160200282015b8281111562001d7a578251805162001e1f91849160209091019062001f26565b509160200191906001019062001dff565b82805482825590600052602060002090810192821562001d7a579160200282015b8281111562001d7a578251805162001e7191849160209091019062001f26565b509160200191906001019062001e51565b82805482825590600052602060002090810192821562001d7a579160200282015b8281111562001d7a578251805162001ec391849160209091019062001f26565b509160200191906001019062001ea3565b82805482825590600052602060002090810192821562001d7a579160200282015b8281111562001d7a578251805162001f1591849160209091019062001f26565b509160200191906001019062001ef5565b82805462001f34906200205b565b90600052602060002090601f01602090048101928262001f58576000855562001fa3565b82601f1062001f7357805160ff191683800117855562001fa3565b8280016001018555821562001fa3579182015b8281111562001fa357825182559160200191906001019062001f86565b5062001d8892915062001fd2565b8082111562001d8857600062001fc8828262001fe9565b5060010162001fb1565b5b8082111562001d88576000815560010162001fd3565b50805462001ff7906200205b565b6000825580601f1062002008575050565b601f01602090049060005260206000209081019062002028919062001fd2565b50565b6000602082840312156200203d578081fd5b81516001600160a01b038116811462002054578182fd5b9392505050565b600181811c908216806200207057607f821691505b602082108114156200209257634e487b7160e01b600052602260045260246000fd5b50919050565b61367580620020a86000396000f3fe608060405234801561001057600080fd5b50600436106102065760003560e01c806370a082311161011a578063b88d4fde116100ad578063cf2c52cb1161007c578063cf2c52cb1461044a578063d47f269e1461045d578063e985e9c514610470578063ef68075a146104ac578063f2fde38b146104bf57600080fd5b8063b88d4fde146103fe578063c08a5dd514610411578063c87b56dd14610424578063c961c84f1461043757600080fd5b80639720c969116100e95780639720c969146103b25780639bdc1b69146103c55780639e41b73f146103d8578063a22cb465146103eb57600080fd5b806370a082311461037e578063715018a6146103915780638da5cb5b1461039957806395d89b41146103aa57600080fd5b80632f745c591161019d578063434f48c41161016c578063434f48c41461031f5780634f6ccce71461033257806362f629e7146103455780636352211e1461035857806367209aa81461036b57600080fd5b80632f745c59146102d3578063379607f5146102e657806342842e0e146102f957806342966c681461030c57600080fd5b80630e99990d116101d95780630e99990d1461028857806318160ddd1461029b57806323b872dd146102ad5780632e1a7d4d146102c057600080fd5b806301ffc9a71461020b57806306fdde0314610233578063081812fc14610248578063095ea7b314610273575b600080fd5b61021e610219366004612c62565b6104d2565b60405190151581526020015b60405180910390f35b61023b6104fd565b60405161022a91906131ab565b61025b610256366004612c9a565b61058f565b6040516001600160a01b03909116815260200161022a565b610286610281366004612c39565b610629565b005b61023b610296366004612c9a565b61073f565b6008545b60405190815260200161022a565b6102866102bb366004612a71565b610839565b6102866102ce366004612c9a565b61086b565b61029f6102e1366004612c39565b61091b565b6102866102f4366004612c9a565b6109b1565b610286610307366004612a71565b610a6b565b61028661031a366004612c9a565b610a86565b61028661032d366004612c9a565b610b00565b61029f610340366004612c9a565b610be8565b600c5461025b906001600160a01b031681565b61025b610366366004612c9a565b610c89565b61023b610379366004612c9a565b610d00565b61029f61038c366004612a1e565b610df1565b610286610e78565b600b546001600160a01b031661025b565b61023b610eae565b61023b6103c0366004612c9a565b610ebd565b61023b6103d3366004612c9a565b610fae565b61023b6103e6366004612c9a565b6110a0565b6102866103f9366004612b81565b611193565b61028661040c366004612aac565b611258565b61023b61041f366004612c9a565b611290565b61023b610432366004612c9a565b611381565b610286610445366004612a1e565b611629565b610286610458366004612bbb565b6116e5565b61023b61046b366004612c9a565b6117b0565b61021e61047e366004612a3f565b6001600160a01b03918216600090815260056020908152604080832093909416825291909152205460ff1690565b61023b6104ba366004612c9a565b6118a1565b6102866104cd366004612a1e565b611993565b60006001600160e01b0319821663780e9d6360e01b14806104f757506104f782611a2b565b92915050565b60606000805461050c90613324565b80601f016020809104026020016040519081016040528092919081815260200182805461053890613324565b80156105855780601f1061055a57610100808354040283529160200191610585565b820191906000526020600020905b81548152906001019060200180831161056857829003601f168201915b5050505050905090565b6000818152600260205260408120546001600160a01b031661060d5760405162461bcd60e51b815260206004820152602c60248201527f4552433732313a20617070726f76656420717565727920666f72206e6f6e657860448201526b34b9ba32b73a103a37b5b2b760a11b60648201526084015b60405180910390fd5b506000908152600460205260409020546001600160a01b031690565b600061063482610c89565b9050806001600160a01b0316836001600160a01b031614156106a25760405162461bcd60e51b815260206004820152602160248201527f4552433732313a20617070726f76616c20746f2063757272656e74206f776e656044820152603960f91b6064820152608401610604565b336001600160a01b03821614806106be57506106be813361047e565b6107305760405162461bcd60e51b815260206004820152603860248201527f4552433732313a20617070726f76652063616c6c6572206973206e6f74206f7760448201527f6e6572206e6f7220617070726f76656420666f7220616c6c00000000000000006064820152608401610604565b61073a8383611a7b565b505050565b60606104f782604051806040016040528060048152602001631193d3d560e21b8152506011805480602002602001604051908101604052809291908181526020016000905b828210156108305783829060005260206000200180546107a390613324565b80601f01602080910402602001604051908101604052809291908181526020018280546107cf90613324565b801561081c5780601f106107f15761010080835404028352916020019161081c565b820191906000526020600020905b8154815290600101906020018083116107ff57829003601f168201915b505050505081526020019060010190610784565b50505050611ae9565b610844335b82611e16565b6108605760405162461bcd60e51b815260040161060490613245565b61073a838383611f0d565b600c546001600160a01b031633146108d65760405162461bcd60e51b815260206004820152602860248201527f77697468647261773a20796f75277265206e6f7420616c6c6f77656420746f20604482015267776974686472617760c01b6064820152608401610604565b6108df81610a86565b60408051338152602081018390527f64776496a9bd05a10b89b0b2b8aec45691e64e2563be349a3b1cb2d0dd5ff025910160405180910390a150565b600061092683610df1565b82106109885760405162461bcd60e51b815260206004820152602b60248201527f455243373231456e756d657261626c653a206f776e657220696e646578206f7560448201526a74206f6620626f756e647360a81b6064820152608401610604565b506001600160a01b03919091166000908152600660209081526040808320938352929052205490565b6002600a541415610a045760405162461bcd60e51b815260206004820152601f60248201527f5265656e7472616e637947756172643a207265656e7472616e742063616c6c006044820152606401610604565b6002600a558015801590610a195750611e6281105b610a585760405162461bcd60e51b815260206004820152601060248201526f151bdad95b881251081a5b9d985b1a5960821b6044820152606401610604565b610a63335b826120b8565b506001600a55565b61073a83838360405180602001604052806000815250611258565b610a8f3361083e565b610af45760405162461bcd60e51b815260206004820152603060248201527f4552433732314275726e61626c653a2063616c6c6572206973206e6f74206f7760448201526f1b995c881b9bdc88185c1c1c9bdd995960821b6064820152608401610604565b610afd816120d6565b50565b6002600a541415610b535760405162461bcd60e51b815260206004820152601f60248201527f5265656e7472616e637947756172643a207265656e7472616e742063616c6c006044820152606401610604565b6002600a55600b546001600160a01b03163314610b825760405162461bcd60e51b815260040161060490613210565b611e6181118015610b945750611f4181105b610bd35760405162461bcd60e51b815260206004820152601060248201526f151bdad95b881251081a5b9d985b1a5960821b6044820152606401610604565b610a63610a5d600b546001600160a01b031690565b6000610bf360085490565b8210610c565760405162461bcd60e51b815260206004820152602c60248201527f455243373231456e756d657261626c653a20676c6f62616c20696e646578206f60448201526b7574206f6620626f756e647360a01b6064820152608401610604565b60088281548110610c7757634e487b7160e01b600052603260045260246000fd5b90600052602060002001549050919050565b6000818152600260205260408120546001600160a01b0316806104f75760405162461bcd60e51b815260206004820152602960248201527f4552433732313a206f776e657220717565727920666f72206e6f6e657869737460448201526832b73a103a37b5b2b760b91b6064820152608401610604565b60606104f782604051806040016040528060048152602001634e45434b60e01b8152506013805480602002602001604051908101604052809291908181526020016000905b82821015610830578382906000526020600020018054610d6490613324565b80601f0160208091040260200160405190810160405280929190818152602001828054610d9090613324565b8015610ddd5780601f10610db257610100808354040283529160200191610ddd565b820191906000526020600020905b815481529060010190602001808311610dc057829003601f168201915b505050505081526020019060010190610d45565b60006001600160a01b038216610e5c5760405162461bcd60e51b815260206004820152602a60248201527f4552433732313a2062616c616e636520717565727920666f7220746865207a65604482015269726f206164647265737360b01b6064820152608401610604565b506001600160a01b031660009081526003602052604090205490565b600b546001600160a01b03163314610ea25760405162461bcd60e51b815260040161060490613210565b610eac600061217d565b565b60606001805461050c90613324565b60606104f782604051806040016040528060048152602001631211505160e21b815250600f805480602002602001604051908101604052809291908181526020016000905b82821015610830578382906000526020600020018054610f2190613324565b80601f0160208091040260200160405190810160405280929190818152602001828054610f4d90613324565b8015610f9a5780601f10610f6f57610100808354040283529160200191610f9a565b820191906000526020600020905b815481529060010190602001808311610f7d57829003601f168201915b505050505081526020019060010190610f02565b60606104f7826040518060400160405280600581526020016415d05254d560da1b8152506010805480602002602001604051908101604052809291908181526020016000905b8282101561083057838290600052602060002001805461101390613324565b80601f016020809104026020016040519081016040528092919081815260200182805461103f90613324565b801561108c5780601f106110615761010080835404028352916020019161108c565b820191906000526020600020905b81548152906001019060200180831161106f57829003601f168201915b505050505081526020019060010190610ff4565b60606104f782604051806040016040528060068152602001652ba2a0a827a760d11b815250600d805480602002602001604051908101604052809291908181526020016000905b8282101561083057838290600052602060002001805461110690613324565b80601f016020809104026020016040519081016040528092919081815260200182805461113290613324565b801561117f5780601f106111545761010080835404028352916020019161117f565b820191906000526020600020905b81548152906001019060200180831161116257829003601f168201915b5050505050815260200190600101906110e7565b6001600160a01b0382163314156111ec5760405162461bcd60e51b815260206004820152601960248201527f4552433732313a20617070726f766520746f2063616c6c6572000000000000006044820152606401610604565b3360008181526005602090815260408083206001600160a01b03871680855290835292819020805460ff191686151590811790915590519081529192917f17307eab39ab6107e8899845ad3d59bd9653f200f220920489ca2b5937696c31910160405180910390a35050565b6112623383611e16565b61127e5760405162461bcd60e51b815260040161060490613245565b61128a848484846121cf565b50505050565b60606104f7826040518060400160405280600481526020016352494e4760e01b8152506014805480602002602001604051908101604052809291908181526020016000905b828210156108305783829060005260206000200180546112f490613324565b80601f016020809104026020016040519081016040528092919081815260200182805461132090613324565b801561136d5780601f106113425761010080835404028352916020019161136d565b820191906000526020600020905b81548152906001019060200180831161135057829003601f168201915b5050505050815260200190600101906112d5565b606061138b6129c1565b60405180610120016040528060fd81526020016134b260fd913981526113b0836110a0565b81600160200201819052506040518060600160405280602881526020016136186028913960408201526113e2836118a1565b60608083019190915260408051918201905260288082526133e76020830139608082015261140f83610ebd565b60a082015260408051606081019091526028808252613461602083013960c082015261143a83610fae565b60e08201526040805160608101909152602980825261348960208301396101008201526114668361073f565b610120820152604080516060810190915260298082526134386020830139610140820152611493836117b0565b610160820152604080516060810190915260298082526135af60208301396101808201526114c083610d00565b6101a08201526040805160608101909152602980825261340f60208301396101c08201526114ed83611290565b6101e0820152604080518082018252600d81526c1e17ba32bc3a1f1e17b9bb339f60991b602080830191909152610200840191909152825181840151838501516060860151608087015160a088015160c089015160e08a01516101008b0151995160009a61155d9a909101612d29565b60408051808303601f19018152908290526101208401516101408501516101608601516101808701516101a08801516101c08901516101e08a01516102008b01519799506115b0988a9890602001612d29565b604051602081830303815290604052905060006115fd6115cf86612202565b6115d88461231c565b6040516020016115e9929190612f93565b60405160208183030381529060405261231c565b9050806040516020016116109190613129565b60408051601f1981840301815291905295945050505050565b600b546001600160a01b031633146116535760405162461bcd60e51b815260040161060490613210565b6001600160a01b0381166116c35760405162461bcd60e51b815260206004820152603160248201527f7570646174654368696c64436861696e4d616e6765723a20796f752063616e206044820152706e6f74207365742030206164647265737360781b6064820152608401610604565b600c80546001600160a01b0319166001600160a01b0392909216919091179055565b600c546001600160a01b0316331461174e5760405162461bcd60e51b815260206004820152602660248201527f6465706f7369743a20796f75277265206e6f7420616c6c6f77656420746f2064604482015265195c1bdcda5d60d21b6064820152608401610604565b600061175c82840184612c9a565b90506117688482612490565b604080516001600160a01b0386168152602081018390527fb03fbb2170e7100f1d18eea2f394452ffd20758779061c6a26747127bb0535b9910160405180910390a150505050565b60606104f782604051806040016040528060048152602001631210539160e21b8152506012805480602002602001604051908101604052809291908181526020016000905b8282101561083057838290600052602060002001805461181490613324565b80601f016020809104026020016040519081016040528092919081815260200182805461184090613324565b801561188d5780601f106118625761010080835404028352916020019161188d565b820191906000526020600020905b81548152906001019060200180831161187057829003601f168201915b5050505050815260200190600101906117f5565b60606104f7826040518060400160405280600581526020016410d21154d560da1b815250600e805480602002602001604051908101604052809291908181526020016000905b8282101561083057838290600052602060002001805461190690613324565b80601f016020809104026020016040519081016040528092919081815260200182805461193290613324565b801561197f5780601f106119545761010080835404028352916020019161197f565b820191906000526020600020905b81548152906001019060200180831161196257829003601f168201915b5050505050815260200190600101906118e7565b600b546001600160a01b031633146119bd5760405162461bcd60e51b815260040161060490613210565b6001600160a01b038116611a225760405162461bcd60e51b815260206004820152602660248201527f4f776e61626c653a206e6577206f776e657220697320746865207a65726f206160448201526564647265737360d01b6064820152608401610604565b610afd8161217d565b60006001600160e01b031982166380ac58cd60e01b1480611a5c57506001600160e01b03198216635b5e139f60e01b145b806104f757506301ffc9a760e01b6001600160e01b03198316146104f7565b600081815260046020526040902080546001600160a01b0319166001600160a01b0384169081179091558190611ab082610c89565b6001600160a01b03167f8c5be1e5ebec7d5bd14f71427d1e84f3dd0314c0f7b2291e5b200ac8c7c3b92560405160405180910390a45050565b60606000611b1f84611afa87612202565b604051602001611b0b929190612cfa565b6040516020818303038152906040526125de565b9050600083845183611b31919061337a565b81518110611b4f57634e487b7160e01b600052603260045260246000fd5b602002602001015190506000601583611b68919061337a565b9050600e811115611bcf5760158054839190611b84908661337a565b81548110611ba257634e487b7160e01b600052603260045260246000fd5b90600052602060002001604051602001611bbd929190612de9565b60405160208183030381529060405291505b60138110611e0c57611bdf6129e9565b60168054611bed908661337a565b81548110611c0b57634e487b7160e01b600052603260045260246000fd5b906000526020600020018054611c2090613324565b80601f0160208091040260200160405190810160405280929190818152602001828054611c4c90613324565b8015611c995780601f10611c6e57610100808354040283529160200191611c99565b820191906000526020600020905b815481529060010190602001808311611c7c57829003601f168201915b505050505081600060028110611cbf57634e487b7160e01b600052603260045260246000fd5b602002015260178054611cd2908661337a565b81548110611cf057634e487b7160e01b600052603260045260246000fd5b906000526020600020018054611d0590613324565b80601f0160208091040260200160405190810160405280929190818152602001828054611d3190613324565b8015611d7e5780601f10611d5357610100808354040283529160200191611d7e565b820191906000526020600020905b815481529060010190602001808311611d6157829003601f168201915b505050505081600160028110611da457634e487b7160e01b600052603260045260246000fd5b60200201526013821415611de0578051602080830151604051611dca9392879101612ea7565b6040516020818303038152906040529250611e0a565b8051602080830151604051611df89392879101612f15565b60405160208183030381529060405292505b505b5095945050505050565b6000818152600260205260408120546001600160a01b0316611e8f5760405162461bcd60e51b815260206004820152602c60248201527f4552433732313a206f70657261746f7220717565727920666f72206e6f6e657860448201526b34b9ba32b73a103a37b5b2b760a11b6064820152608401610604565b6000611e9a83610c89565b9050806001600160a01b0316846001600160a01b03161480611ed55750836001600160a01b0316611eca8461058f565b6001600160a01b0316145b80611f0557506001600160a01b0380821660009081526005602090815260408083209388168352929052205460ff165b949350505050565b826001600160a01b0316611f2082610c89565b6001600160a01b031614611f885760405162461bcd60e51b815260206004820152602960248201527f4552433732313a207472616e73666572206f6620746f6b656e2074686174206960448201526839903737ba1037bbb760b91b6064820152608401610604565b6001600160a01b038216611fea5760405162461bcd60e51b8152602060048201526024808201527f4552433732313a207472616e7366657220746f20746865207a65726f206164646044820152637265737360e01b6064820152608401610604565b611ff583838361260f565b612000600082611a7b565b6001600160a01b03831660009081526003602052604081208054600192906120299084906132e1565b90915550506001600160a01b0382166000908152600360205260408120805460019290612057908490613296565b909155505060008181526002602052604080822080546001600160a01b0319166001600160a01b0386811691821790925591518493918716917fddf252ad1be2c89b69c2b068fc378daa952ba7f163c4a11628f55a4df523b3ef91a4505050565b6120d28282604051806020016040528060008152506126c7565b5050565b60006120e182610c89565b90506120ef8160008461260f565b6120fa600083611a7b565b6001600160a01b03811660009081526003602052604081208054600192906121239084906132e1565b909155505060008281526002602052604080822080546001600160a01b0319169055518391906001600160a01b038416907fddf252ad1be2c89b69c2b068fc378daa952ba7f163c4a11628f55a4df523b3ef908390a45050565b600b80546001600160a01b038381166001600160a01b0319831681179093556040519116919082907f8be0079c531659141344cd1fd0a4f28419497f9722a3daafe3b4186f6b6457e090600090a35050565b6121da848484611f0d565b6121e6848484846126fa565b61128a5760405162461bcd60e51b8152600401610604906131be565b6060816122265750506040805180820190915260018152600360fc1b602082015290565b8160005b8115612250578061223a8161335f565b91506122499050600a836132ae565b915061222a565b60008167ffffffffffffffff81111561227957634e487b7160e01b600052604160045260246000fd5b6040519080825280601f01601f1916602001820160405280156122a3576020820181803683370190505b5090505b8415611f05576122b86001836132e1565b91506122c5600a8661337a565b6122d0906030613296565b60f81b8183815181106122f357634e487b7160e01b600052603260045260246000fd5b60200101906001600160f81b031916908160001a905350612315600a866132ae565b94506122a7565b80516060908061233c575050604080516020810190915260008152919050565b6000600361234b836002613296565b61235591906132ae565b6123609060046132c2565b9050600061236f826020613296565b67ffffffffffffffff81111561239557634e487b7160e01b600052604160045260246000fd5b6040519080825280601f01601f1916602001820160405280156123bf576020820181803683370190505b50905060006040518060600160405280604081526020016135d8604091399050600181016020830160005b8681101561244b576003818a01810151603f601282901c8116860151600c83901c8216870151600684901c831688015192909316870151600891821b60ff94851601821b92841692909201901b91160160e01b8352600490920191016123ea565b506003860660018114612465576002811461247657612482565b613d3d60f01b600119830152612482565b603d60f81b6000198301525b505050918152949350505050565b6001600160a01b0382166124e65760405162461bcd60e51b815260206004820181905260248201527f4552433732313a206d696e7420746f20746865207a65726f20616464726573736044820152606401610604565b6000818152600260205260409020546001600160a01b03161561254b5760405162461bcd60e51b815260206004820152601c60248201527f4552433732313a20746f6b656e20616c7265616479206d696e746564000000006044820152606401610604565b6125576000838361260f565b6001600160a01b0382166000908152600360205260408120805460019290612580908490613296565b909155505060008181526002602052604080822080546001600160a01b0319166001600160a01b03861690811790915590518392907fddf252ad1be2c89b69c2b068fc378daa952ba7f163c4a11628f55a4df523b3ef908290a45050565b6000816040516020016125f19190612cde565b60408051601f19818403018152919052805160209091012092915050565b6001600160a01b03831661266a5761266581600880546000838152600960205260408120829055600182018355919091527ff3f7a9fe364faab93b216da50a3214154f22a0a2b415b23a84c8169e8b636ee30155565b61268d565b816001600160a01b0316836001600160a01b03161461268d5761268d8382612807565b6001600160a01b0382166126a45761073a816128a4565b826001600160a01b0316826001600160a01b03161461073a5761073a828261297d565b6126d18383612490565b6126de60008484846126fa565b61073a5760405162461bcd60e51b8152600401610604906131be565b60006001600160a01b0384163b156127fc57604051630a85bd0160e11b81526001600160a01b0385169063150b7a029061273e90339089908890889060040161316e565b602060405180830381600087803b15801561275857600080fd5b505af1925050508015612788575060408051601f3d908101601f1916820190925261278591810190612c7e565b60015b6127e2573d8080156127b6576040519150601f19603f3d011682016040523d82523d6000602084013e6127bb565b606091505b5080516127da5760405162461bcd60e51b8152600401610604906131be565b805181602001fd5b6001600160e01b031916630a85bd0160e11b149050611f05565b506001949350505050565b6000600161281484610df1565b61281e91906132e1565b600083815260076020526040902054909150808214612871576001600160a01b03841660009081526006602090815260408083208584528252808320548484528184208190558352600790915290208190555b5060009182526007602090815260408084208490556001600160a01b039094168352600681528383209183525290812055565b6008546000906128b6906001906132e1565b600083815260096020526040812054600880549394509092849081106128ec57634e487b7160e01b600052603260045260246000fd5b90600052602060002001549050806008838154811061291b57634e487b7160e01b600052603260045260246000fd5b600091825260208083209091019290925582815260099091526040808220849055858252812055600880548061296157634e487b7160e01b600052603160045260246000fd5b6001900381819060005260206000200160009055905550505050565b600061298883610df1565b6001600160a01b039093166000908152600660209081526040808320868452825280832085905593825260079052919091209190915550565b6040518061022001604052806011905b60608152602001906001900390816129d15790505090565b60408051808201909152606081526001602082016129d1565b80356001600160a01b0381168114612a1957600080fd5b919050565b600060208284031215612a2f578081fd5b612a3882612a02565b9392505050565b60008060408385031215612a51578081fd5b612a5a83612a02565b9150612a6860208401612a02565b90509250929050565b600080600060608486031215612a85578081fd5b612a8e84612a02565b9250612a9c60208501612a02565b9150604084013590509250925092565b60008060008060808587031215612ac1578081fd5b612aca85612a02565b9350612ad860208601612a02565b925060408501359150606085013567ffffffffffffffff80821115612afb578283fd5b818701915087601f830112612b0e578283fd5b813581811115612b2057612b206133ba565b604051601f8201601f19908116603f01168101908382118183101715612b4857612b486133ba565b816040528281528a6020848701011115612b60578586fd5b82602086016020830137918201602001949094529598949750929550505050565b60008060408385031215612b93578182fd5b612b9c83612a02565b915060208301358015158114612bb0578182fd5b809150509250929050565b600080600060408486031215612bcf578283fd5b612bd884612a02565b9250602084013567ffffffffffffffff80821115612bf4578384fd5b818601915086601f830112612c07578384fd5b813581811115612c15578485fd5b876020828501011115612c26578485fd5b6020830194508093505050509250925092565b60008060408385031215612c4b578182fd5b612c5483612a02565b946020939093013593505050565b600060208284031215612c73578081fd5b8135612a38816133d0565b600060208284031215612c8f578081fd5b8151612a38816133d0565b600060208284031215612cab578081fd5b5035919050565b60008151808452612cca8160208601602086016132f8565b601f01601f19169290920160200192915050565b60008251612cf08184602087016132f8565b9190910192915050565b60008351612d0c8184602088016132f8565b835190830190612d208183602088016132f8565b01949350505050565b60008a51612d3b818460208f016132f8565b8a51612d4d8183860160208f016132f8565b8a519184010190612d62818360208e016132f8565b8951910190612d75818360208d016132f8565b8851612d878183850160208d016132f8565b8851929091010190612d9d818360208b016132f8565b8651612daf8183850160208b016132f8565b8651929091010190612dc58183602089016132f8565b8451612dd781838501602089016132f8565b9101019b9a5050505050505050505050565b600083516020612dfc82858389016132f8565b600160fd1b9184019182528454600190849080831c81841680612e2057607f821691505b858210811415612e3e57634e487b7160e01b88526022600452602488fd5b808015612e525760018114612e6757612e97565b60ff1984168887015282880186019450612e97565b60008b815260209020895b84811015612e8d5781548a8201890152908701908801612e72565b5050858389010194505b50929a9950505050505050505050565b601160f91b81528351600090612ec48160018501602089016132f8565b600160fd1b6001918401918201528451612ee58160028401602089016132f8565b61011160f51b600292909101918201528351612f088160048401602088016132f8565b0160040195945050505050565b601160f91b81528351600090612f328160018501602089016132f8565b600160fd1b6001918401918201528451612f538160028401602089016132f8565b61011160f51b600292909101918201528351612f768160048401602088016132f8565b62202b3160e81b6004929091019182015260070195945050505050565b6e7b226e616d65223a2022426167202360881b81528251600090612fbe81600f8501602088016132f8565b80830190507f222c20226465736372697074696f6e223a20224c6f6f742069732072616e646f600f8201527f6d697a656420616476656e747572657220676561722067656e65726174656420602f8201527f616e642073746f726564206f6e20636861696e2e2053746174732c20696d6167604f8201527f65732c20616e64206f746865722066756e6374696f6e616c6974792061726520606f8201527f696e74656e74696f6e616c6c79206f6d697474656420666f72206f7468657273608f8201527f20746f20696e746572707265742e204665656c206672656520746f207573652060af8201527f4c6f6f7420696e20616e792077617920796f752077616e742e222c2022696d6160cf8201527f6765223a2022646174613a696d6167652f7376672b786d6c3b6261736536342c60ef82015261010f845161310881838501602089016132f8565b61311e828285010161227d60f01b815260020190565b979650505050505050565b7f646174613a6170706c69636174696f6e2f6a736f6e3b6261736536342c00000081526000825161316181601d8501602087016132f8565b91909101601d0192915050565b6001600160a01b03858116825284166020820152604081018390526080606082018190526000906131a190830184612cb2565b9695505050505050565b602081526000612a386020830184612cb2565b60208082526032908201527f4552433732313a207472616e7366657220746f206e6f6e20455243373231526560408201527131b2b4bb32b91034b6b83632b6b2b73a32b960711b606082015260800190565b6020808252818101527f4f776e61626c653a2063616c6c6572206973206e6f7420746865206f776e6572604082015260600190565b60208082526031908201527f4552433732313a207472616e736665722063616c6c6572206973206e6f74206f6040820152701ddb995c881b9bdc88185c1c1c9bdd9959607a1b606082015260800190565b600082198211156132a9576132a961338e565b500190565b6000826132bd576132bd6133a4565b500490565b60008160001904831182151516156132dc576132dc61338e565b500290565b6000828210156132f3576132f361338e565b500390565b60005b838110156133135781810151838201526020016132fb565b8381111561128a5750506000910152565b600181811c9082168061333857607f821691505b6020821081141561335957634e487b7160e01b600052602260045260246000fd5b50919050565b60006000198214156133735761337361338e565b5060010190565b600082613389576133896133a4565b500690565b634e487b7160e01b600052601160045260246000fd5b634e487b7160e01b600052601260045260246000fd5b634e487b7160e01b600052604160045260246000fd5b6001600160e01b031981168114610afd57600080fdfe3c2f746578743e3c7465787420783d2231302220793d2236302220636c6173733d2262617365223e3c2f746578743e3c7465787420783d2231302220793d223136302220636c6173733d2262617365223e3c2f746578743e3c7465787420783d2231302220793d223132302220636c6173733d2262617365223e3c2f746578743e3c7465787420783d2231302220793d2238302220636c6173733d2262617365223e3c2f746578743e3c7465787420783d2231302220793d223130302220636c6173733d2262617365223e3c73766720786d6c6e733d22687474703a2f2f7777772e77332e6f72672f323030302f73766722207072657365727665417370656374526174696f3d22784d696e594d696e206d656574222076696577426f783d223020302033353020333530223e3c7374796c653e2e62617365207b2066696c6c3a2077686974653b20666f6e742d66616d696c793a2073657269663b20666f6e742d73697a653a20313470783b207d3c2f7374796c653e3c726563742077696474683d223130302522206865696768743d2231303025222066696c6c3d22626c61636b22202f3e3c7465787420783d2231302220793d2232302220636c6173733d2262617365223e3c2f746578743e3c7465787420783d2231302220793d223134302220636c6173733d2262617365223e4142434445464748494a4b4c4d4e4f505152535455565758595a6162636465666768696a6b6c6d6e6f707172737475767778797a303132333435363738392b2f3c2f746578743e3c7465787420783d2231302220793d2234302220636c6173733d2262617365223ea26469706673582212203223b0c023324d09e8f15caf8b05878207cfdd3f6bcb885449be613e3c4fed5664736f6c63430008040033",
  "linkReferences": {},
  "deployedLinkReferences": {}
}