{
  "_format": "hh-sol-artifact-1",
  "contractName": "pLoot",
  "sourceName": "contracts/pLoot.sol",
  "abi": [
    {
      "inputs": [
        {
          "internalType": "address",
          "name": "_childChainManagerAddress",
          "type": "address"
        },
        {
          "internalType": "address",
          "name": "_battleAddress",
          "type": "address"
        }
      ],
      "stateMutability": "nonpayable",
      "type": "constructor"
    },
    {
      "anonymous": false,
      "inputs": [
        {
          "indexed": true,
          "internalType": "address",
          "name": "owner",
          "type": "address"
        },
        {
          "indexed": true,
          "internalType": "address",
          "name": "approved",
          "type": "address"
        },
        {
          "indexed": true,
          "internalType": "uint256",
          "name": "tokenId",
          "type": "uint256"
        }
      ],
      "name": "Approval",
      "type": "event"
    },
    {
      "anonymous": false,
      "inputs": [
        {
          "indexed": true,
          "internalType": "address",
          "name": "owner",
          "type": "address"
        },
        {
          "indexed": true,
          "internalType": "address",
          "name": "operator",
          "type": "address"
        },
        {
          "indexed": false,
          "internalType": "bool",
          "name": "approved",
          "type": "bool"
        }
      ],
      "name": "ApprovalForAll",
      "type": "event"
    },
    {
      "anonymous": false,
      "inputs": [
        {
          "indexed": true,
          "internalType": "address",
          "name": "previousOwner",
          "type": "address"
        },
        {
          "indexed": true,
          "internalType": "address",
          "name": "newOwner",
          "type": "address"
        }
      ],
      "name": "OwnershipTransferred",
      "type": "event"
    },
    {
      "anonymous": false,
      "inputs": [
        {
          "indexed": true,
          "internalType": "address",
          "name": "from",
          "type": "address"
        },
        {
          "indexed": true,
          "internalType": "address",
          "name": "to",
          "type": "address"
        },
        {
          "indexed": true,
          "internalType": "uint256",
          "name": "tokenId",
          "type": "uint256"
        }
      ],
      "name": "Transfer",
      "type": "event"
    },
    {
      "inputs": [
        {
          "internalType": "address",
          "name": "to",
          "type": "address"
        },
        {
          "internalType": "uint256",
          "name": "tokenId",
          "type": "uint256"
        }
      ],
      "name": "approve",
      "outputs": [],
      "stateMutability": "nonpayable",
      "type": "function"
    },
    {
      "inputs": [
        {
          "internalType": "address",
          "name": "owner",
          "type": "address"
        }
      ],
      "name": "balanceOf",
      "outputs": [
        {
          "internalType": "uint256",
          "name": "",
          "type": "uint256"
        }
      ],
      "stateMutability": "view",
      "type": "function"
    },
    {
      "inputs": [],
      "name": "battleAddress",
      "outputs": [
        {
          "internalType": "address",
          "name": "",
          "type": "address"
        }
      ],
      "stateMutability": "view",
      "type": "function"
    },
    {
      "inputs": [],
      "name": "childChainManagerProxy",
      "outputs": [
        {
          "internalType": "address",
          "name": "",
          "type": "address"
        }
      ],
      "stateMutability": "view",
      "type": "function"
    },
    {
      "inputs": [
        {
          "internalType": "address",
          "name": "account",
          "type": "address"
        },
        {
          "internalType": "bytes",
          "name": "depositData",
          "type": "bytes"
        }
      ],
      "name": "deposit",
      "outputs": [],
      "stateMutability": "nonpayable",
      "type": "function"
    },
    {
      "inputs": [
        {
          "internalType": "uint256",
          "name": "tokenId",
          "type": "uint256"
        }
      ],
      "name": "getApproved",
      "outputs": [
        {
          "internalType": "address",
          "name": "",
          "type": "address"
        }
      ],
      "stateMutability": "view",
      "type": "function"
    },
    {
      "inputs": [
        {
          "internalType": "address",
          "name": "owner",
          "type": "address"
        },
        {
          "internalType": "address",
          "name": "operator",
          "type": "address"
        }
      ],
      "name": "isApprovedForAll",
      "outputs": [
        {
          "internalType": "bool",
          "name": "",
          "type": "bool"
        }
      ],
      "stateMutability": "view",
      "type": "function"
    },
    {
      "inputs": [],
      "name": "name",
      "outputs": [
        {
          "internalType": "string",
          "name": "",
          "type": "string"
        }
      ],
      "stateMutability": "view",
      "type": "function"
    },
    {
      "inputs": [],
      "name": "owner",
      "outputs": [
        {
          "internalType": "address",
          "name": "",
          "type": "address"
        }
      ],
      "stateMutability": "view",
      "type": "function"
    },
    {
      "inputs": [
        {
          "internalType": "uint256",
          "name": "tokenId",
          "type": "uint256"
        }
      ],
      "name": "ownerOf",
      "outputs": [
        {
          "internalType": "address",
          "name": "",
          "type": "address"
        }
      ],
      "stateMutability": "view",
      "type": "function"
    },
    {
      "inputs": [],
      "name": "renounceOwnership",
      "outputs": [],
      "stateMutability": "nonpayable",
      "type": "function"
    },
    {
      "inputs": [
        {
          "internalType": "address",
          "name": "from",
          "type": "address"
        },
        {
          "internalType": "address",
          "name": "to",
          "type": "address"
        },
        {
          "internalType": "uint256",
          "name": "tokenId",
          "type": "uint256"
        }
      ],
      "name": "safeTransferFrom",
      "outputs": [],
      "stateMutability": "nonpayable",
      "type": "function"
    },
    {
      "inputs": [
        {
          "internalType": "address",
          "name": "from",
          "type": "address"
        },
        {
          "internalType": "address",
          "name": "to",
          "type": "address"
        },
        {
          "internalType": "uint256",
          "name": "tokenId",
          "type": "uint256"
        },
        {
          "internalType": "bytes",
          "name": "_data",
          "type": "bytes"
        }
      ],
      "name": "safeTransferFrom",
      "outputs": [],
      "stateMutability": "nonpayable",
      "type": "function"
    },
    {
      "inputs": [
        {
          "internalType": "address",
          "name": "operator",
          "type": "address"
        },
        {
          "internalType": "bool",
          "name": "approved",
          "type": "bool"
        }
      ],
      "name": "setApprovalForAll",
      "outputs": [],
      "stateMutability": "nonpayable",
      "type": "function"
    },
    {
      "inputs": [
        {
          "internalType": "bytes4",
          "name": "interfaceId",
          "type": "bytes4"
        }
      ],
      "name": "supportsInterface",
      "outputs": [
        {
          "internalType": "bool",
          "name": "",
          "type": "bool"
        }
      ],
      "stateMutability": "view",
      "type": "function"
    },
    {
      "inputs": [],
      "name": "symbol",
      "outputs": [
        {
          "internalType": "string",
          "name": "",
          "type": "string"
        }
      ],
      "stateMutability": "view",
      "type": "function"
    },
    {
      "inputs": [
        {
          "internalType": "uint256",
          "name": "tokenId",
          "type": "uint256"
        }
      ],
      "name": "tokenURI",
      "outputs": [
        {
          "internalType": "string",
          "name": "",
          "type": "string"
        }
      ],
      "stateMutability": "view",
      "type": "function"
    },
    {
      "inputs": [
        {
          "internalType": "address",
          "name": "from",
          "type": "address"
        },
        {
          "internalType": "address",
          "name": "to",
          "type": "address"
        },
        {
          "internalType": "uint256",
          "name": "tokenId",
          "type": "uint256"
        }
      ],
      "name": "transferFrom",
      "outputs": [],
      "stateMutability": "nonpayable",
      "type": "function"
    },
    {
      "inputs": [
        {
          "internalType": "address",
          "name": "newOwner",
          "type": "address"
        }
      ],
      "name": "transferOwnership",
      "outputs": [],
      "stateMutability": "nonpayable",
      "type": "function"
    },
    {
      "inputs": [
        {
          "internalType": "address",
          "name": "_newbattle",
          "type": "address"
        }
      ],
      "name": "updateBattleAddress",
      "outputs": [],
      "stateMutability": "nonpayable",
      "type": "function"
    },
    {
      "inputs": [
        {
          "internalType": "address",
          "name": "_newchildChainMangerAddress",
          "type": "address"
        }
      ],
      "name": "updateChildChainManger",
      "outputs": [],
      "stateMutability": "nonpayable",
      "type": "function"
    },
    {
      "inputs": [
        {
          "internalType": "uint256",
          "name": "tokenId",
          "type": "uint256"
        }
      ],
      "name": "withdraw",
      "outputs": [],
      "stateMutability": "nonpayable",
      "type": "function"
    }
  ],
  "bytecode": "0x60806040523480156200001157600080fd5b5060405162001b6638038062001b66833981016040819052620000349162000205565b604080518082018252600d81526c1c1bdb1e59dbdb881b5b1bdbdd609a1b6020808301918252835180850190945260068452651c1b531bdbdd60d21b908401528151919291620000879160009162000142565b5080516200009d90600190602084019062000142565b505050620000ba620000b4620000ec60201b60201c565b620000f0565b600780546001600160a01b039384166001600160a01b0319918216179091556008805492909316911617905562000279565b3390565b600680546001600160a01b038381166001600160a01b0319831681179093556040519116919082907f8be0079c531659141344cd1fd0a4f28419497f9722a3daafe3b4186f6b6457e090600090a35050565b82805462000150906200023c565b90600052602060002090601f016020900481019282620001745760008555620001bf565b82601f106200018f57805160ff1916838001178555620001bf565b82800160010185558215620001bf579182015b82811115620001bf578251825591602001919060010190620001a2565b50620001cd929150620001d1565b5090565b5b80821115620001cd5760008155600101620001d2565b80516001600160a01b03811681146200020057600080fd5b919050565b6000806040838503121562000218578182fd5b6200022383620001e8565b91506200023360208401620001e8565b90509250929050565b600181811c908216806200025157607f821691505b602082108114156200027357634e487b7160e01b600052602260045260246000fd5b50919050565b6118dd80620002896000396000f3fe608060405234801561001057600080fd5b50600436106101425760003560e01c806380bddbd3116100b8578063c87b56dd1161007c578063c87b56dd1461029e578063c961c84f146102b1578063cf2c52cb146102c4578063e985e9c5146102d7578063f2fde38b14610313578063f7c2b83d1461032657600080fd5b806380bddbd31461024c5780638da5cb5b1461025f57806395d89b4114610270578063a22cb46514610278578063b88d4fde1461028b57600080fd5b80632e1a7d4d1161010a5780632e1a7d4d146101d757806342842e0e146101ea57806362f629e7146101fd5780636352211e1461021057806370a0823114610223578063715018a61461024457600080fd5b806301ffc9a71461014757806306fdde031461016f578063081812fc14610184578063095ea7b3146101af57806323b872dd146101c4575b600080fd5b61015a610155366004611583565b610339565b60405190151581526020015b60405180910390f35b61017761038b565b604051610166919061166b565b6101976101923660046115bb565b61041d565b6040516001600160a01b039091168152602001610166565b6101c26101bd36600461155a565b6104b7565b005b6101c26101d2366004611392565b6105cd565b6101c26101e53660046115bb565b6105fe565b6101c26101f8366004611392565b610627565b600754610197906001600160a01b031681565b61019761021e3660046115bb565b610642565b610236610231366004611346565b6106b9565b604051908152602001610166565b6101c2610740565b600854610197906001600160a01b031681565b6006546001600160a01b0316610197565b610177610776565b6101c26102863660046114a2565b610785565b6101c26102993660046113cd565b61084a565b6101776102ac3660046115bb565b610882565b6101c26102bf366004611346565b61096a565b6101c26102d23660046114dc565b610a26565b61015a6102e5366004611360565b6001600160a01b03918216600090815260056020908152604080832093909416825291909152205460ff1690565b6101c2610321366004611346565b610aeb565b6101c2610334366004611346565b610b86565b60006001600160e01b031982166380ac58cd60e01b148061036a57506001600160e01b03198216635b5e139f60e01b145b8061038557506301ffc9a760e01b6001600160e01b03198316145b92915050565b60606000805461039a906117c5565b80601f01602080910402602001604051908101604052809291908181526020018280546103c6906117c5565b80156104135780601f106103e857610100808354040283529160200191610413565b820191906000526020600020905b8154815290600101906020018083116103f657829003601f168201915b5050505050905090565b6000818152600260205260408120546001600160a01b031661049b5760405162461bcd60e51b815260206004820152602c60248201527f4552433732313a20617070726f76656420717565727920666f72206e6f6e657860448201526b34b9ba32b73a103a37b5b2b760a11b60648201526084015b60405180910390fd5b506000908152600460205260409020546001600160a01b031690565b60006104c282610642565b9050806001600160a01b0316836001600160a01b031614156105305760405162461bcd60e51b815260206004820152602160248201527f4552433732313a20617070726f76616c20746f2063757272656e74206f776e656044820152603960f91b6064820152608401610492565b336001600160a01b038216148061054c575061054c81336102e5565b6105be5760405162461bcd60e51b815260206004820152603860248201527f4552433732313a20617070726f76652063616c6c6572206973206e6f74206f7760448201527f6e6572206e6f7220617070726f76656420666f7220616c6c00000000000000006064820152608401610492565b6105c88383610bd2565b505050565b6105d73382610c40565b6105f35760405162461bcd60e51b815260040161049290611705565b6105c8838383610d37565b61060781610ec5565b60405181906000903390600080516020611888833981519152908390a450565b6105c88383836040518060200160405280600081525061084a565b6000818152600260205260408120546001600160a01b0316806103855760405162461bcd60e51b815260206004820152602960248201527f4552433732313a206f776e657220717565727920666f72206e6f6e657869737460448201526832b73a103a37b5b2b760b91b6064820152608401610492565b60006001600160a01b0382166107245760405162461bcd60e51b815260206004820152602a60248201527f4552433732313a2062616c616e636520717565727920666f7220746865207a65604482015269726f206164647265737360b01b6064820152608401610492565b506001600160a01b031660009081526003602052604090205490565b6006546001600160a01b0316331461076a5760405162461bcd60e51b8152600401610492906116d0565b6107746000610f4e565b565b60606001805461039a906117c5565b6001600160a01b0382163314156107de5760405162461bcd60e51b815260206004820152601960248201527f4552433732313a20617070726f766520746f2063616c6c6572000000000000006044820152606401610492565b3360008181526005602090815260408083206001600160a01b03871680855290835292819020805460ff191686151590811790915590519081529192917f17307eab39ab6107e8899845ad3d59bd9653f200f220920489ca2b5937696c31910160405180910390a35050565b6108543383610c40565b6108705760405162461bcd60e51b815260040161049290611705565b61087c84848484610fa0565b50505050565b6000818152600260205260409020546060906001600160a01b03166109015760405162461bcd60e51b815260206004820152602f60248201527f4552433732314d657461646174613a2055524920717565727920666f72206e6f60448201526e3732bc34b9ba32b73a103a37b5b2b760891b6064820152608401610492565b600061091860408051602081019091526000815290565b905060008151116109385760405180602001604052806000815250610963565b8061094284610fd3565b6040516020016109539291906115ff565b6040516020818303038152906040525b9392505050565b6006546001600160a01b031633146109945760405162461bcd60e51b8152600401610492906116d0565b6001600160a01b038116610a045760405162461bcd60e51b815260206004820152603160248201527f7570646174654368696c64436861696e4d616e6765723a20796f752063616e206044820152706e6f74207365742030206164647265737360781b6064820152608401610492565b600780546001600160a01b0319166001600160a01b0392909216919091179055565b6007546001600160a01b03163314610a8f5760405162461bcd60e51b815260206004820152602660248201527f6465706f7369743a20796f75277265206e6f7420616c6c6f77656420746f2064604482015265195c1bdcda5d60d21b6064820152608401610492565b6000610a9d828401846115bb565b9050610aa984826110ed565b600854610abf906001600160a01b031682610bd2565b60405181906001600160a01b03861690600090600080516020611888833981519152908290a450505050565b6006546001600160a01b03163314610b155760405162461bcd60e51b8152600401610492906116d0565b6001600160a01b038116610b7a5760405162461bcd60e51b815260206004820152602660248201527f4f776e61626c653a206e6577206f776e657220697320746865207a65726f206160448201526564647265737360d01b6064820152608401610492565b610b8381610f4e565b50565b6006546001600160a01b03163314610bb05760405162461bcd60e51b8152600401610492906116d0565b600880546001600160a01b0319166001600160a01b0392909216919091179055565b600081815260046020526040902080546001600160a01b0319166001600160a01b0384169081179091558190610c0782610642565b6001600160a01b03167f8c5be1e5ebec7d5bd14f71427d1e84f3dd0314c0f7b2291e5b200ac8c7c3b92560405160405180910390a45050565b6000818152600260205260408120546001600160a01b0316610cb95760405162461bcd60e51b815260206004820152602c60248201527f4552433732313a206f70657261746f7220717565727920666f72206e6f6e657860448201526b34b9ba32b73a103a37b5b2b760a11b6064820152608401610492565b6000610cc483610642565b9050806001600160a01b0316846001600160a01b03161480610cff5750836001600160a01b0316610cf48461041d565b6001600160a01b0316145b80610d2f57506001600160a01b0380821660009081526005602090815260408083209388168352929052205460ff165b949350505050565b826001600160a01b0316610d4a82610642565b6001600160a01b031614610db25760405162461bcd60e51b815260206004820152602960248201527f4552433732313a207472616e73666572206f6620746f6b656e2074686174206960448201526839903737ba1037bbb760b91b6064820152608401610492565b6001600160a01b038216610e145760405162461bcd60e51b8152602060048201526024808201527f4552433732313a207472616e7366657220746f20746865207a65726f206164646044820152637265737360e01b6064820152608401610492565b610e1f600082610bd2565b6001600160a01b0383166000908152600360205260408120805460019290610e48908490611782565b90915550506001600160a01b0382166000908152600360205260408120805460019290610e76908490611756565b909155505060008181526002602052604080822080546001600160a01b0319166001600160a01b03868116918217909255915184939187169160008051602061188883398151915291a4505050565b6000610ed082610642565b9050610edd600083610bd2565b6001600160a01b0381166000908152600360205260408120805460019290610f06908490611782565b909155505060008281526002602052604080822080546001600160a01b0319169055518391906001600160a01b03841690600080516020611888833981519152908390a45050565b600680546001600160a01b038381166001600160a01b0319831681179093556040519116919082907f8be0079c531659141344cd1fd0a4f28419497f9722a3daafe3b4186f6b6457e090600090a35050565b610fab848484610d37565b610fb78484848461121d565b61087c5760405162461bcd60e51b81526004016104929061167e565b606081610ff75750506040805180820190915260018152600360fc1b602082015290565b8160005b8115611021578061100b81611800565b915061101a9050600a8361176e565b9150610ffb565b60008167ffffffffffffffff81111561104a57634e487b7160e01b600052604160045260246000fd5b6040519080825280601f01601f191660200182016040528015611074576020820181803683370190505b5090505b8415610d2f57611089600183611782565b9150611096600a8661181b565b6110a1906030611756565b60f81b8183815181106110c457634e487b7160e01b600052603260045260246000fd5b60200101906001600160f81b031916908160001a9053506110e6600a8661176e565b9450611078565b6001600160a01b0382166111435760405162461bcd60e51b815260206004820181905260248201527f4552433732313a206d696e7420746f20746865207a65726f20616464726573736044820152606401610492565b6000818152600260205260409020546001600160a01b0316156111a85760405162461bcd60e51b815260206004820152601c60248201527f4552433732313a20746f6b656e20616c7265616479206d696e746564000000006044820152606401610492565b6001600160a01b03821660009081526003602052604081208054600192906111d1908490611756565b909155505060008181526002602052604080822080546001600160a01b0319166001600160a01b0386169081179091559051839290600080516020611888833981519152908290a45050565b60006001600160a01b0384163b1561131f57604051630a85bd0160e11b81526001600160a01b0385169063150b7a029061126190339089908890889060040161162e565b602060405180830381600087803b15801561127b57600080fd5b505af19250505080156112ab575060408051601f3d908101601f191682019092526112a89181019061159f565b60015b611305573d8080156112d9576040519150601f19603f3d011682016040523d82523d6000602084013e6112de565b606091505b5080516112fd5760405162461bcd60e51b81526004016104929061167e565b805181602001fd5b6001600160e01b031916630a85bd0160e11b149050610d2f565b506001949350505050565b80356001600160a01b038116811461134157600080fd5b919050565b600060208284031215611357578081fd5b6109638261132a565b60008060408385031215611372578081fd5b61137b8361132a565b91506113896020840161132a565b90509250929050565b6000806000606084860312156113a6578081fd5b6113af8461132a565b92506113bd6020850161132a565b9150604084013590509250925092565b600080600080608085870312156113e2578081fd5b6113eb8561132a565b93506113f96020860161132a565b925060408501359150606085013567ffffffffffffffff8082111561141c578283fd5b818701915087601f83011261142f578283fd5b8135818111156114415761144161185b565b604051601f8201601f19908116603f011681019083821181831017156114695761146961185b565b816040528281528a6020848701011115611481578586fd5b82602086016020830137918201602001949094529598949750929550505050565b600080604083850312156114b4578182fd5b6114bd8361132a565b9150602083013580151581146114d1578182fd5b809150509250929050565b6000806000604084860312156114f0578283fd5b6114f98461132a565b9250602084013567ffffffffffffffff80821115611515578384fd5b818601915086601f830112611528578384fd5b813581811115611536578485fd5b876020828501011115611547578485fd5b6020830194508093505050509250925092565b6000806040838503121561156c578182fd5b6115758361132a565b946020939093013593505050565b600060208284031215611594578081fd5b813561096381611871565b6000602082840312156115b0578081fd5b815161096381611871565b6000602082840312156115cc578081fd5b5035919050565b600081518084526115eb816020860160208601611799565b601f01601f19169290920160200192915050565b60008351611611818460208801611799565b835190830190611625818360208801611799565b01949350505050565b6001600160a01b0385811682528416602082015260408101839052608060608201819052600090611661908301846115d3565b9695505050505050565b60208152600061096360208301846115d3565b60208082526032908201527f4552433732313a207472616e7366657220746f206e6f6e20455243373231526560408201527131b2b4bb32b91034b6b83632b6b2b73a32b960711b606082015260800190565b6020808252818101527f4f776e61626c653a2063616c6c6572206973206e6f7420746865206f776e6572604082015260600190565b60208082526031908201527f4552433732313a207472616e736665722063616c6c6572206973206e6f74206f6040820152701ddb995c881b9bdc88185c1c1c9bdd9959607a1b606082015260800190565b600082198211156117695761176961182f565b500190565b60008261177d5761177d611845565b500490565b6000828210156117945761179461182f565b500390565b60005b838110156117b457818101518382015260200161179c565b8381111561087c5750506000910152565b600181811c908216806117d957607f821691505b602082108114156117fa57634e487b7160e01b600052602260045260246000fd5b50919050565b60006000198214156118145761181461182f565b5060010190565b60008261182a5761182a611845565b500690565b634e487b7160e01b600052601160045260246000fd5b634e487b7160e01b600052601260045260246000fd5b634e487b7160e01b600052604160045260246000fd5b6001600160e01b031981168114610b8357600080fdfeddf252ad1be2c89b69c2b068fc378daa952ba7f163c4a11628f55a4df523b3efa2646970667358221220a11c2b75e6fbe649e57703137e77b8b072de3037416d28fefc0dbb096bfd930e64736f6c63430008040033",
  "linkReferences": {},
  "deployedLinkReferences": {}
}