{
  "_format": "hh-sol-artifact-1",
  "contractName": "BattleLoot",
  "sourceName": "contracts/BattleLoot.sol",
  "abi": [
    {
      "anonymous": false,
      "inputs": [
        {
          "indexed": true,
          "internalType": "address",
          "name": "previousOwner",
          "type": "address"
        },
        {
          "indexed": true,
          "internalType": "address",
          "name": "newOwner",
          "type": "address"
        }
      ],
      "name": "OwnershipTransferred",
      "type": "event"
    },
    {
      "anonymous": false,
      "inputs": [
        {
          "indexed": true,
          "internalType": "address",
          "name": "account",
          "type": "address"
        },
        {
          "indexed": false,
          "internalType": "uint256",
          "name": "count",
          "type": "uint256"
        }
      ],
      "name": "battleCounted",
      "type": "event"
    },
    {
      "anonymous": false,
      "inputs": [
        {
          "indexed": true,
          "internalType": "address",
          "name": "warriorAddress",
          "type": "address"
        },
        {
          "indexed": false,
          "internalType": "address",
          "name": "acceptorAddress",
          "type": "address"
        },
        {
          "indexed": false,
          "internalType": "bool",
          "name": "result",
          "type": "bool"
        }
      ],
      "name": "pvpBattledByRanking",
      "type": "event"
    },
    {
      "anonymous": false,
      "inputs": [
        {
          "indexed": true,
          "internalType": "address",
          "name": "warriorAddress",
          "type": "address"
        },
        {
          "indexed": false,
          "internalType": "address",
          "name": "acceptorAddress",
          "type": "address"
        },
        {
          "indexed": false,
          "internalType": "bool",
          "name": "result",
          "type": "bool"
        }
      ],
      "name": "pvpBattledByRarityIndex",
      "type": "event"
    },
    {
      "anonymous": false,
      "inputs": [
        {
          "indexed": true,
          "internalType": "address",
          "name": "receiver",
          "type": "address"
        },
        {
          "indexed": false,
          "internalType": "uint256",
          "name": "totalAmount",
          "type": "uint256"
        }
      ],
      "name": "recordedReward",
      "type": "event"
    },
    {
      "anonymous": false,
      "inputs": [
        {
          "indexed": true,
          "internalType": "address",
          "name": "receiver",
          "type": "address"
        },
        {
          "indexed": false,
          "internalType": "uint256",
          "name": "claimedToken",
          "type": "uint256"
        }
      ],
      "name": "rewardTokenClaimed",
      "type": "event"
    },
    {
      "anonymous": false,
      "inputs": [
        {
          "indexed": true,
          "internalType": "address",
          "name": "receiver",
          "type": "address"
        },
        {
          "indexed": false,
          "internalType": "uint256",
          "name": "totalAmount",
          "type": "uint256"
        }
      ],
      "name": "rewardTokenRefund",
      "type": "event"
    },
    {
      "anonymous": false,
      "inputs": [
        {
          "indexed": true,
          "internalType": "address",
          "name": "newRewardToken",
          "type": "address"
        }
      ],
      "name": "rewardTokenUpdated",
      "type": "event"
    },
    {
      "anonymous": false,
      "inputs": [
        {
          "indexed": true,
          "internalType": "uint256",
          "name": "tokenId",
          "type": "uint256"
        },
        {
          "indexed": false,
          "internalType": "address",
          "name": "playerAddress",
          "type": "address"
        }
      ],
      "name": "roleQuit",
      "type": "event"
    },
    {
      "anonymous": false,
      "inputs": [
        {
          "indexed": true,
          "internalType": "address",
          "name": "role",
          "type": "address"
        },
        {
          "indexed": true,
          "internalType": "uint256",
          "name": "tokenId",
          "type": "uint256"
        },
        {
          "indexed": false,
          "internalType": "uint256",
          "name": "rarityRanking",
          "type": "uint256"
        },
        {
          "indexed": false,
          "internalType": "uint256",
          "name": "rarityIndex",
          "type": "uint256"
        }
      ],
      "name": "roleRegistered",
      "type": "event"
    },
    {
      "inputs": [],
      "name": "DOMAIN_TYPEHASH",
      "outputs": [
        {
          "internalType": "bytes32",
          "name": "",
          "type": "bytes32"
        }
      ],
      "stateMutability": "view",
      "type": "function"
    },
    {
      "inputs": [],
      "name": "MAXROUND",
      "outputs": [
        {
          "internalType": "uint256",
          "name": "",
          "type": "uint256"
        }
      ],
      "stateMutability": "view",
      "type": "function"
    },
    {
      "inputs": [],
      "name": "MAX_BATTLE_PERDAY",
      "outputs": [
        {
          "internalType": "uint256",
          "name": "",
          "type": "uint256"
        }
      ],
      "stateMutability": "view",
      "type": "function"
    },
    {
      "inputs": [],
      "name": "PERMIT_TYPEHASH",
      "outputs": [
        {
          "internalType": "bytes32",
          "name": "",
          "type": "bytes32"
        }
      ],
      "stateMutability": "view",
      "type": "function"
    },
    {
      "inputs": [
        {
          "internalType": "address",
          "name": "",
          "type": "address"
        }
      ],
      "name": "battleDetailsByRanking",
      "outputs": [
        {
          "internalType": "address",
          "name": "acceptorAddress",
          "type": "address"
        },
        {
          "internalType": "uint256",
          "name": "challengerRanking",
          "type": "uint256"
        },
        {
          "internalType": "uint256",
          "name": "acceptorRanking",
          "type": "uint256"
        },
        {
          "internalType": "uint256",
          "name": "failNumber",
          "type": "uint256"
        },
        {
          "internalType": "bool",
          "name": "result",
          "type": "bool"
        }
      ],
      "stateMutability": "view",
      "type": "function"
    },
    {
      "inputs": [
        {
          "internalType": "address",
          "name": "",
          "type": "address"
        }
      ],
      "name": "battleDetailsByRarityIndex",
      "outputs": [
        {
          "internalType": "address",
          "name": "acceptorAddress",
          "type": "address"
        },
        {
          "internalType": "uint256",
          "name": "challengerPower",
          "type": "uint256"
        },
        {
          "internalType": "uint256",
          "name": "acceptorPower",
          "type": "uint256"
        },
        {
          "internalType": "uint256",
          "name": "failNumber",
          "type": "uint256"
        },
        {
          "internalType": "bool",
          "name": "result",
          "type": "bool"
        }
      ],
      "stateMutability": "view",
      "type": "function"
    },
    {
      "inputs": [
        {
          "internalType": "address",
          "name": "_pmlootaddress",
          "type": "address"
        },
        {
          "internalType": "address",
          "name": "rewardTokenAddress",
          "type": "address"
        },
        {
          "internalType": "uint256",
          "name": "_rewardAmountPerRound",
          "type": "uint256"
        }
      ],
      "name": "battle_init",
      "outputs": [],
      "stateMutability": "nonpayable",
      "type": "function"
    },
    {
      "inputs": [],
      "name": "claim",
      "outputs": [],
      "stateMutability": "nonpayable",
      "type": "function"
    },
    {
      "inputs": [
        {
          "internalType": "address",
          "name": "warriorAddress",
          "type": "address"
        }
      ],
      "name": "getCandidateWarriors",
      "outputs": [
        {
          "internalType": "uint256",
          "name": "",
          "type": "uint256"
        },
        {
          "internalType": "uint256[]",
          "name": "",
          "type": "uint256[]"
        },
        {
          "internalType": "uint256[]",
          "name": "",
          "type": "uint256[]"
        },
        {
          "internalType": "uint256[]",
          "name": "",
          "type": "uint256[]"
        }
      ],
      "stateMutability": "view",
      "type": "function"
    },
    {
      "inputs": [
        {
          "internalType": "address",
          "name": "account",
          "type": "address"
        }
      ],
      "name": "getClaimableReward",
      "outputs": [
        {
          "internalType": "uint256",
          "name": "",
          "type": "uint256"
        }
      ],
      "stateMutability": "view",
      "type": "function"
    },
    {
      "inputs": [],
      "name": "getYourStakedToken",
      "outputs": [
        {
          "internalType": "uint256[]",
          "name": "",
          "type": "uint256[]"
        }
      ],
      "stateMutability": "view",
      "type": "function"
    },
    {
      "inputs": [
        {
          "internalType": "address",
          "name": "account",
          "type": "address"
        }
      ],
      "name": "getYourStakedToken",
      "outputs": [
        {
          "internalType": "uint256[]",
          "name": "",
          "type": "uint256[]"
        }
      ],
      "stateMutability": "view",
      "type": "function"
    },
    {
      "inputs": [
        {
          "internalType": "address",
          "name": "",
          "type": "address"
        }
      ],
      "name": "nonces",
      "outputs": [
        {
          "internalType": "uint256",
          "name": "",
          "type": "uint256"
        }
      ],
      "stateMutability": "view",
      "type": "function"
    },
    {
      "inputs": [],
      "name": "owner",
      "outputs": [
        {
          "internalType": "address",
          "name": "",
          "type": "address"
        }
      ],
      "stateMutability": "view",
      "type": "function"
    },
    {
      "inputs": [],
      "name": "pmloot",
      "outputs": [
        {
          "internalType": "contract LootProject",
          "name": "",
          "type": "address"
        }
      ],
      "stateMutability": "view",
      "type": "function"
    },
    {
      "inputs": [
        {
          "internalType": "uint256",
          "name": "tokenId",
          "type": "uint256"
        }
      ],
      "name": "pvpBattleByRanking",
      "outputs": [
        {
          "internalType": "bool",
          "name": "result",
          "type": "bool"
        }
      ],
      "stateMutability": "nonpayable",
      "type": "function"
    },
    {
      "inputs": [
        {
          "internalType": "uint256",
          "name": "tokenId",
          "type": "uint256"
        }
      ],
      "name": "pvpBattleByRarityIndex",
      "outputs": [
        {
          "internalType": "bool",
          "name": "result",
          "type": "bool"
        }
      ],
      "stateMutability": "nonpayable",
      "type": "function"
    },
    {
      "inputs": [
        {
          "internalType": "uint256",
          "name": "tokenId",
          "type": "uint256"
        }
      ],
      "name": "quitFromGame",
      "outputs": [],
      "stateMutability": "nonpayable",
      "type": "function"
    },
    {
      "inputs": [
        {
          "internalType": "uint256",
          "name": "tokenId",
          "type": "uint256"
        },
        {
          "internalType": "uint256",
          "name": "_rartiyRanking",
          "type": "uint256"
        },
        {
          "internalType": "uint256",
          "name": "_rarityIndex",
          "type": "uint256"
        },
        {
          "internalType": "uint256",
          "name": "nonce",
          "type": "uint256"
        },
        {
          "internalType": "uint256",
          "name": "expiry",
          "type": "uint256"
        },
        {
          "internalType": "bool",
          "name": "allowed",
          "type": "bool"
        },
        {
          "internalType": "uint8",
          "name": "v",
          "type": "uint8"
        },
        {
          "internalType": "bytes32",
          "name": "r",
          "type": "bytes32"
        },
        {
          "internalType": "bytes32",
          "name": "s",
          "type": "bytes32"
        }
      ],
      "name": "registerRole",
      "outputs": [],
      "stateMutability": "nonpayable",
      "type": "function"
    },
    {
      "inputs": [
        {
          "internalType": "address",
          "name": "receiver",
          "type": "address"
        }
      ],
      "name": "removeRewardToken",
      "outputs": [],
      "stateMutability": "nonpayable",
      "type": "function"
    },
    {
      "inputs": [],
      "name": "renounceOwnership",
      "outputs": [],
      "stateMutability": "nonpayable",
      "type": "function"
    },
    {
      "inputs": [],
      "name": "rewardAmountPerRound",
      "outputs": [
        {
          "internalType": "uint256",
          "name": "",
          "type": "uint256"
        }
      ],
      "stateMutability": "view",
      "type": "function"
    },
    {
      "inputs": [],
      "name": "rewardToken",
      "outputs": [
        {
          "internalType": "contract IERC20Upgradeable",
          "name": "",
          "type": "address"
        }
      ],
      "stateMutability": "view",
      "type": "function"
    },
    {
      "inputs": [],
      "name": "totalWarriors",
      "outputs": [
        {
          "internalType": "uint256",
          "name": "",
          "type": "uint256"
        }
      ],
      "stateMutability": "view",
      "type": "function"
    },
    {
      "inputs": [
        {
          "internalType": "address",
          "name": "newOwner",
          "type": "address"
        }
      ],
      "name": "transferOwnership",
      "outputs": [],
      "stateMutability": "nonpayable",
      "type": "function"
    },
    {
      "inputs": [
        {
          "internalType": "address",
          "name": "newRewardToken",
          "type": "address"
        }
      ],
      "name": "updateRewardToken",
      "outputs": [],
      "stateMutability": "nonpayable",
      "type": "function"
    },
    {
      "inputs": [
        {
          "internalType": "address",
          "name": "newpmloot",
          "type": "address"
        }
      ],
      "name": "updatepmloot",
      "outputs": [],
      "stateMutability": "nonpayable",
      "type": "function"
    }
  ],
  "bytecode": "0x608060405234801561001057600080fd5b50612df3806100206000396000f3fe608060405234801561001057600080fd5b50600436106101a95760003560e01c80637ecebe00116100f9578063d9bd320111610097578063f2fde38b11610071578063f2fde38b14610459578063f7c618c11461046c578063f8cf31cb1461047f578063fd2fb8be1461049257600080fd5b8063d9bd320114610434578063da06297e1461043d578063dd0ae89a1461044657600080fd5b80639b1e8d50116100d35780639b1e8d50146103d8578063ae49e26d146103fb578063bb21bfa21461040e578063ce084cf91461042157600080fd5b80637ecebe001461037e5780638da5cb5b1461039e57806399acbd6a146103c357600080fd5b8063433ec91c116101665780635ff329af116101405780635ff329af146102fb578063648a3a4c1461032457806368eadb101461032c578063715018a61461037657600080fd5b8063433ec91c146102625780634e71d92d146102e05780635e305b51146102e857600080fd5b80630f60ffd5146101ae5780631d9ac121146101d657806320606b70146101ec57806330adf81f146102135780633874290e1461023a5780633d509c971461024f575b600080fd5b6101c16101bc366004612a91565b6104a5565b60405190151581526020015b60405180910390f35b6101de601481565b6040519081526020016101cd565b6101de7f8b73c3c69bb8fe3d512ecc4cf759cc79239f7b179b0ffacaa9a75d522b39400f81565b6101de7fea2aa0a1be11a07ed86d755c93467f4f82362b452371d1ba94d1715123511acb81565b61024d610248366004612a35565b610696565b005b61024d61025d3660046129f6565b610781565b6102ac6102703660046129f6565b606a60205260009081526040902080546001820154600283015460038401546004909401546001600160a01b0390931693919290919060ff1685565b604080516001600160a01b03909616865260208601949094529284019190915260608301521515608082015260a0016101cd565b61024d6108f7565b61024d6102f63660046129f6565b610b21565b6101de6103093660046129f6565b6001600160a01b03166000908152606d602052604090205490565b6101de600a81565b6102ac61033a3660046129f6565b606960205260009081526040902080546001820154600283015460038401546004909401546001600160a01b0390931693919290919060ff1685565b61024d610b6d565b6101de61038c3660046129f6565b606f6020526000908152604090205481565b6033546001600160a01b03165b6040516001600160a01b0390911681526020016101cd565b6103cb610ba3565b6040516101cd9190612beb565b6103eb6103e63660046129f6565b610cdb565b6040516101cd9493929190612c87565b6101c1610409366004612a91565b610e5f565b61024d61041c366004612ac1565b61101e565b6103cb61042f3660046129f6565b611646565b6101de60685481565b6101de60675481565b6065546103ab906001600160a01b031681565b61024d6104673660046129f6565b611788565b6066546103ab906001600160a01b031681565b61024d61048d3660046129f6565b611823565b61024d6104a0366004612a91565b611897565b336000818152606c602052604081205490919061052f5760405162461bcd60e51b815260206004820152603a60248201527f707670426174746c654279526172697479496e6465783a20706c65617365207260448201527f6567697374657220796f757220726f6c6520617420666972737400000000000060648201526084015b60405180910390fd5b6105398184611a82565b6105a35760405162461bcd60e51b815260206004820152603560248201527f707670426174746c654279526172697479496e6465783a20706c6561736520726044820152741959da5cdd195c881d1bdad95b925908199a5c9cdd605a1b6064820152608401610526565b6001600160a01b0381166000908152606e6020526040902060010154601410156105df5760405162461bcd60e51b815260040161052690612c33565b6000806105eb83610cdb565b93505092505060006105fe868484611b4d565b9050600080600061060e89611c04565b935050925092506000610621858b611cf0565b9050600061062f8385611cf0565b905061063d89868484611d7a565b604080516001600160a01b0388811682528315156020830152929c50918b16917fc5de4c2564f6159cafe0769975aa940fb73ebdaecd9382e78e69f7bbf3e7e6a5910160405180910390a2505050505050505050919050565b600054610100900460ff16806106af575060005460ff16155b6107125760405162461bcd60e51b815260206004820152602e60248201527f496e697469616c697a61626c653a20636f6e747261637420697320616c72656160448201526d191e481a5b9a5d1a585b1a5e995960921b6064820152608401610526565b600054610100900460ff16158015610734576000805461ffff19166101011790555b606580546001600160a01b038087166001600160a01b03199283161790925560668054928616929091169190911790556067829055801561077b576000805461ff00191690555b50505050565b6033546001600160a01b031633146107ab5760405162461bcd60e51b815260040161052690612bfe565b6066546040516370a0823160e01b81523060048201526000916001600160a01b0316906370a082319060240160206040518083038186803b1580156107ef57600080fd5b505afa158015610803573d6000803e3d6000fd5b505050506040513d601f19601f820116820180604052508101906108279190612aa9565b60665460405163a9059cbb60e01b81526001600160a01b0385811660048301526024820184905292935091169063a9059cbb90604401602060405180830381600087803b15801561087757600080fd5b505af115801561088b573d6000803e3d6000fd5b505050506040513d601f19601f820116820180604052508101906108af9190612a75565b50816001600160a01b03167f47185bfeaa34ad210d128d5a7895842e27012f2f74d46696a180e116568f34fa826040516108eb91815260200190565b60405180910390a25050565b336000908152606d602052604090205461095d5760405162461bcd60e51b815260206004820152602160248201527f636c61696d207265776172643a20706c6561736520706c617920746f206561726044820152603760f91b6064820152608401610526565b6066546040516370a0823160e01b81523060048201526001600160a01b03909116906370a082319060240160206040518083038186803b1580156109a057600080fd5b505afa1580156109b4573d6000803e3d6000fd5b505050506040513d601f19601f820116820180604052508101906109d89190612aa9565b336000908152606d60205260409020541115610a455760405162461bcd60e51b815260206004820152602660248201527f636c61696d207265776172643a206e6f20656e6f75676820746f6b656e20746f60448201526520636c61696d60d01b6064820152608401610526565b606654336000818152606d60205260409081902054905163a9059cbb60e01b8152600481019290925260248201526001600160a01b039091169063a9059cbb90604401602060405180830381600087803b158015610aa257600080fd5b505af1158015610ab6573d6000803e3d6000fd5b505050506040513d601f19601f82011682018060405250810190610ada9190612a75565b50336000818152606d60209081526040918290205491519182527fc018771e0337a1e166d56660caef87330265c31a574eec8c6b4c32fad50f85c4910160405180910390a2565b6033546001600160a01b03163314610b4b5760405162461bcd60e51b815260040161052690612bfe565b606580546001600160a01b0319166001600160a01b0392909216919091179055565b6033546001600160a01b03163314610b975760405162461bcd60e51b815260040161052690612bfe565b610ba16000611e8d565b565b336000908152606c60209081526040808320548352606b8252808320600101805482518185028101850190935280835260609493830182828015610c0657602002820191906000526020600020905b815481526020019060010190808311610bf2575b505050505090506000815167ffffffffffffffff811115610c3757634e487b7160e01b600052604160045260246000fd5b604051908082528060200260200182016040528015610c60578160200160208202803683370190505b50905060005b8251811015610cd457828181518110610c8f57634e487b7160e01b600052603260045260246000fd5b6020026020010151828281518110610cb757634e487b7160e01b600052603260045260246000fd5b602090810291909101015280610ccc81612d3f565b915050610c66565b5092915050565b6001600160a01b038082166000908152606c60209081526040808320548352606b825280832081516080810183528154909516855260018101805483518186028101860190945280845294956060958695869589959394858301939192909190830182828015610d6a57602002820191906000526020600020905b815481526020019060010190808311610d56575b5050505050815260200160028201805480602002602001604051908101604052809291908181526020018280548015610dc257602002820191906000526020600020905b815481526020019060010190808311610dae575b5050505050815260200160038201805480602002602001604051908101604052809291908181526020018280548015610e1a57602002820191906000526020600020905b815481526020019060010190808311610e06575b505050919092525050506001600160a01b03969096166000908152606c6020908152604091829020549088015191880151606090980151909891979650945092505050565b336000818152606c6020526040812054909190610edd5760405162461bcd60e51b815260206004820152603660248201527f707670426174746c65427952616e6b696e673a20706c656173652072656769736044820152751d195c881e5bdd5c881c9bdb1948185d08199a5c9cdd60521b6064820152608401610526565b610ee78184611a82565b610f4d5760405162461bcd60e51b815260206004820152603160248201527f707670426174746c65427952616e6b696e673a20706c656173652072656769736044820152701d195c881d1bdad95b925908199a5c9cdd607a1b6064820152608401610526565b6001600160a01b0381166000908152606e602052604090206001015460141015610f895760405162461bcd60e51b815260040161052690612c33565b600080610f9583610cdb565b5092509250506000610fa8868484611b4d565b9050600080610fb688611c04565b509250509150610fc886838584611edf565b604080516001600160a01b0385811682528315156020830152929950918816917f0f4d6c8c1799dd121cfe5f7274877800cad667f498f0e93bd146332e8f1c5e6e910160405180910390a2505050505050919050565b6040805180820182526013815272726567697374657220666f7220626174746c6560681b6020918201528151808301835260018152603160f81b9082015281517f8b73c3c69bb8fe3d512ecc4cf759cc79239f7b179b0ffacaa9a75d522b39400f818301527f605c85ce80f8ea3d1ff18f75acfc9a4e5ae9ce3d2f6f003bdd882cfa179e3bc8818401527fc89efdaa54c0f20c7adf612882df0950f5a951637e0307cdcb4c672f298b8bc660608201524660808201523060a08083018290528451808403909101815260c0830185528051908401207fea2aa0a1be11a07ed86d755c93467f4f82362b452371d1ba94d1715123511acb60e08401523361010084015261012083019190915261014082018a9052610160820189905287151561018080840191909152845180840390910181526101a083019094528351939092019290922061190160f01b6101c08401526101c283018290526101e2830181905290916000906102020160408051808303601f1901815291905280516020909101209050336111e25760405162461bcd60e51b81526020600482015260116024820152700696e76616c69642d616464726573732d3607c1b6044820152606401610526565b60408051600081526020810180835283905260ff881691810191909152606081018690526080810185905260019060a0016020604051602081039080840390855afa158015611235573d6000803e3d6000fd5b505050602060405103516001600160a01b031661124f3390565b6001600160a01b0316146112965760405162461bcd60e51b815260206004820152600e60248201526d1a5b9d985b1a590b5c195c9b5a5d60921b6044820152606401610526565b8715806112a35750874211155b6112e05760405162461bcd60e51b815260206004820152600e60248201526d1c195c9b5a5d0b595e1c1a5c995960921b6044820152606401610526565b336000908152606f602052604081208054916112fb83612d3f565b91905055891461133d5760405162461bcd60e51b815260206004820152600d60248201526c696e76616c69642d6e6f6e636560981b6044820152606401610526565b336065546040516331a9108f60e11b8152600481018f90526001600160a01b039283169290911690636352211e9060240160206040518083038186803b15801561138657600080fd5b505afa15801561139a573d6000803e3d6000fd5b505050506040513d601f19601f820116820180604052508101906113be9190612a19565b6001600160a01b03161461141f5760405162461bcd60e51b815260206004820152602260248201527f637265617465526f6c653a20796f7520646f206e6f74206f776e20746865206e604482015261199d60f21b6064820152608401610526565b6065546001600160a01b03166323b872dd336040516001600160e01b031960e084901b1681526001600160a01b039091166004820152306024820152604481018f9052606401600060405180830381600087803b15801561147f57600080fd5b505af1158015611493573d6000803e3d6000fd5b505050506000606c60006114a43390565b6001600160a01b03168152602081019190915260400160002054611512576068546114d0906001612cc6565b6068805491925060006114e283612d3f565b919050555080606c60006114f33390565b6001600160a01b03168152602081019190915260400160002055611524565b50336000908152606c60205260409020545b606b60008281526020019081526020016000206001018d9080600181540180825580915050600190039060005260206000200160009091909190915055606b60008281526020019081526020016000206002018c90806001815401808255809150506001900390600052602060002001600090919091909150556115a53390565b6000828152606b60209081526040822080546001600160a01b0319166001600160a01b039490941693909317835560039092018054600181018255908252919020018b90558c336001600160a01b03167fd430a9559650419ebd9d75d04bc70c4cd3c336212bd2aab59b57e2d78afd7fc58e8e60405161162f929190918252602082015260400190565b60405180910390a350505050505050505050505050565b6001600160a01b0381166000908152606c60209081526040808320548352606b82528083206001018054825181850281018501909352808352606094938301828280156116b257602002820191906000526020600020905b81548152602001906001019080831161169e575b505050505090506000815167ffffffffffffffff8111156116e357634e487b7160e01b600052604160045260246000fd5b60405190808252806020026020018201604052801561170c578160200160208202803683370190505b50905060005b82518110156117805782818151811061173b57634e487b7160e01b600052603260045260246000fd5b602002602001015182828151811061176357634e487b7160e01b600052603260045260246000fd5b60209081029190910101528061177881612d3f565b915050611712565b509392505050565b6033546001600160a01b031633146117b25760405162461bcd60e51b815260040161052690612bfe565b6001600160a01b0381166118175760405162461bcd60e51b815260206004820152602660248201527f4f776e61626c653a206e6577206f776e657220697320746865207a65726f206160448201526564647265737360d01b6064820152608401610526565b61182081611e8d565b50565b6033546001600160a01b0316331461184d5760405162461bcd60e51b815260040161052690612bfe565b606680546001600160a01b0319166001600160a01b0383169081179091556040517f2a6ce8490320414415367a61709a20bd5e1b02565f5594fbf6c4f84d1ff7c4fb90600090a250565b6118a13382611a82565b61190b5760405162461bcd60e51b815260206004820152603560248201527f7175697446726f6d47616d653a20536f7272792c20796f7520617265206e6f7460448201527410309031b0b73234b230ba32903bb0b93934b7b91760591b6064820152608401610526565b6119153382611fe5565b6119765760405162461bcd60e51b815260206004820152602c60248201527f7175697446726f6d47616d653a206661696c20746f2064656c65746520746f6b60448201526b656e4964207265636f72647360a01b6064820152608401610526565b336000908152606c60209081526040808320548352606b9091529020600101546119c057336000908152606c6020526040812081905560688054916119ba83612d28565b91905055505b6065546001600160a01b03166323b872dd30336040516001600160e01b031960e085901b1681526001600160a01b0392831660048201529116602482015260448101849052606401600060405180830381600087803b158015611a2257600080fd5b505af1158015611a36573d6000803e3d6000fd5b50505050807fd4d1aaee65bdd191a514d704597570c968f8a11e16b36e7289947e2935f4929f611a633390565b6040516001600160a01b0390911681526020015b60405180910390a250565b6001600160a01b0382166000908152606c60209081526040808320548352606b825280832060010180548251818502810185019093528083528493830182828015611aec57602002820191906000526020600020905b815481526020019060010190808311611ad8575b5050505050905060005b8151811015611b4557818181518110611b1f57634e487b7160e01b600052603260045260246000fd5b6020026020010151841415611b3357600192505b80611b3d81612d3f565b915050611af6565b505092915050565b60008151835114611b8c5760405162461bcd60e51b81526020600482015260096024820152680dcdee840dac2e8c6d60bb1b6044820152606401610526565b60005b835181101561178057838181518110611bb857634e487b7160e01b600052603260045260246000fd5b6020026020010151851415611bf257828181518110611be757634e487b7160e01b600052603260045260246000fd5b602002602001015191505b80611bfc81612d3f565b915050611b8f565b6000806000806000611c1586612147565b611c1e42612147565b604051602001611c2f929190612bb5565b6040516020818303038152906040528051906020012060001c9050600060685482611c5a9190612d5a565b611c65906001612cc6565b6000818152606b60205260408120546001600160a01b031697509091508080611c8d89610cdb565b9350935093505082835186611ca29190612d5a565b81518110611cc057634e487b7160e01b600052603260045260246000fd5b60200260200101519750611cd5888484611b4d565b9650611ce2888483611b4d565b955050505050509193509193565b600080611cfc83612147565b611d0585612147565b611d0e42612147565b604051602001611d2093929190612bca565b6040516020818303038152906040528051906020012060001c9050600080611d4786612261565b90925090506000611d588383612d11565b905082611d658286612d5a565b611d6f9190612cc6565b979650505050505050565b6001600160a01b038481166000908152606a6020526040812080546001600160a01b031916928616929092178255600182018490556002909101829055611dc085612386565b81831115611dff576001600160a01b0385166000908152606a60205260409020600401805460ff19166001179055611df78561242d565b506001611e85565b6001600160a01b0385166000908152606a6020526040812060048101805460ff19169055600301805491611e3283612d3f565b90915550506001600160a01b0385166000908152606a602052604090206003015460051415611e8157611e648561242d565b6001600160a01b0385166000908152606a60205260408120600301555b5060005b949350505050565b603380546001600160a01b038381166001600160a01b0319831681179093556040519116919082907f8be0079c531659141344cd1fd0a4f28419497f9722a3daafe3b4186f6b6457e090600090a35050565b6001600160a01b03848116600090815260696020526040812080546001600160a01b031916928616929092178255600182018490556002909101829055611f2585612386565b81831015611f5c576001600160a01b0385166000908152606960205260409020600401805460ff19166001179055611df78561242d565b6001600160a01b038516600090815260696020526040812060048101805460ff19169055600301805491611f8f83612d3f565b90915550506001600160a01b03851660009081526069602052604090206003015460051415611e8157611fc18561242d565b6001600160a01b038516600090815260696020526040812060030155506000611e85565b6001600160a01b0382166000908152606c60209081526040808320548352606b825280832060018101805483518186028101860190945280845291938593929083018282801561205457602002820191906000526020600020905b815481526020019060010190808311612040575b5050505050905060005b815181101561213d5781818151811061208757634e487b7160e01b600052603260045260246000fd5b602002602001015185141561212b578260010181815481106120b957634e487b7160e01b600052603260045260246000fd5b90600052602060002001600090558260020181815481106120ea57634e487b7160e01b600052603260045260246000fd5b906000526020600020016000905582600301818154811061211b57634e487b7160e01b600052603260045260246000fd5b6000918252602082200155600193505b8061213581612d3f565b91505061205e565b50611b45856124a1565b60608161216b5750506040805180820190915260018152600360fc1b602082015290565b8160005b8115612195578061217f81612d3f565b915061218e9050600a83612cde565b915061216f565b60008167ffffffffffffffff8111156121be57634e487b7160e01b600052604160045260246000fd5b6040519080825280601f01601f1916602001820160405280156121e8576020820181803683370190505b5090505b8415611e85576121fd600183612d11565b915061220a600a86612d5a565b612215906030612cc6565b60f81b81838151811061223857634e487b7160e01b600052603260045260246000fd5b60200101906001600160f81b031916908160001a90535061225a600a86612cde565b94506121ec565b600080826122bf5760405162461bcd60e51b815260206004820152602560248201527f7261726974792073636f7265206f66206c6f6f74206d757374206e6f74206265604482015264081b9d5b1b60da1b6064820152608401610526565b6216e360831180156122d45750621e84808311155b156122ed576122e48360056128cb565b91509150915091565b621e8480831180156123025750622625a08311155b15612312576122e483600a6128cb565b622625a0831180156123275750622dc6c08311155b15612337576122e483600f6128cb565b622dc6c08311801561234c5750623567e08311155b1561235c576122e48360146128cb565b623567e0831180156123715750623e8fa08311155b15612381576122e48360196128cb565b915091565b6001600160a01b0381166000908152606e6020526040902080546123c3574281556001810180549060006123b983612d3f565b91905055506123ee565b6123cc82612920565b156123e3576001810180549060006123b983612d3f565b428155600060018201555b816001600160a01b03167fc24769c912936cdb60162592f2a9f2caf1f110ffceaa54dedd1f9d9d849a01f882600101546040516108eb91815260200190565b6067546001600160a01b0382166000908152606d60205260409020546124539190612cc6565b6001600160a01b0382166000818152606d6020526040908190208390555190917f32d4a5eb589da7567ffa04ee91fa4dbd9323cf436315fd97d830ffa7f0a1200c91611a7791815260200190565b6001600160a01b0381166000908152606c60209081526040808320548352606b825280832060018101805483518186028101860190945280845291949390919083018282801561251057602002820191906000526020600020905b8154815260200190600101908083116124fc575b5050505050905060008260020180548060200260200160405190810160405280929190818152602001828054801561256757602002820191906000526020600020905b815481526020019060010190808311612553575b505050505090506000836003018054806020026020016040519081016040528092919081815260200182805480156125be57602002820191906000526020600020905b8154815260200190600101908083116125aa575b50505050509050600080600090505b8451811015612625578481815181106125f657634e487b7160e01b600052603260045260246000fd5b6020026020010151600014612613578161260f81612d3f565b9250505b8061261d81612d3f565b9150506125cd565b5060008167ffffffffffffffff81111561264f57634e487b7160e01b600052604160045260246000fd5b604051908082528060200260200182016040528015612678578160200160208202803683370190505b50905060008267ffffffffffffffff8111156126a457634e487b7160e01b600052604160045260246000fd5b6040519080825280602002602001820160405280156126cd578160200160208202803683370190505b50905060008367ffffffffffffffff8111156126f957634e487b7160e01b600052604160045260246000fd5b604051908082528060200260200182016040528015612722578160200160208202803683370190505b5090506000805b885181101561287c5788818151811061275257634e487b7160e01b600052603260045260246000fd5b602002602001015160001461286a5788818151811061278157634e487b7160e01b600052603260045260246000fd5b60200260200101518583815181106127a957634e487b7160e01b600052603260045260246000fd5b6020026020010181815250508781815181106127d557634e487b7160e01b600052603260045260246000fd5b60200260200101518483815181106127fd57634e487b7160e01b600052603260045260246000fd5b60200260200101818152505086818151811061282957634e487b7160e01b600052603260045260246000fd5b602002602001015183838151811061285157634e487b7160e01b600052603260045260246000fd5b60209081029190910101528161286681612d3f565b9250505b8061287481612d3f565b915050612729565b5083516128929060018b01906020870190612996565b5082516128a89060028b01906020860190612996565b5081516128be9060038b01906020850190612996565b5050505050505050505050565b6000808060646128db8587612cf2565b6128e59190612cde565b6128ef9086612d11565b9050600060646128ff8688612cf2565b6129099190612cde565b6129139087612cc6565b9196919550909350505050565b6001600160a01b0381166000908152606e602090815260408083208151808301909252805480835260019091015492820192909252906129635760019150612990565b80516129729062015180612cc6565b421115801561298657506014816020015111155b1561299057600191505b50919050565b8280548282559060005260206000209081019282156129d1579160200282015b828111156129d15782518255916020019190600101906129b6565b506129dd9291506129e1565b5090565b5b808211156129dd57600081556001016129e2565b600060208284031215612a07578081fd5b8135612a1281612d9a565b9392505050565b600060208284031215612a2a578081fd5b8151612a1281612d9a565b600080600060608486031215612a49578182fd5b8335612a5481612d9a565b92506020840135612a6481612d9a565b929592945050506040919091013590565b600060208284031215612a86578081fd5b8151612a1281612daf565b600060208284031215612aa2578081fd5b5035919050565b600060208284031215612aba578081fd5b5051919050565b60008060008060008060008060006101208a8c031215612adf578485fd5b8935985060208a0135975060408a0135965060608a0135955060808a0135945060a08a0135612b0d81612daf565b935060c08a013560ff81168114612b22578384fd5b8093505060e08a013591506101008a013590509295985092959850929598565b6000815180845260208085019450808401835b83811015612b7157815187529582019590820190600101612b55565b509495945050505050565b60008151815b81811015612b9c5760208185018101518683015201612b82565b81811115612baa5782828601525b509290920192915050565b6000611e85612bc48386612b7c565b84612b7c565b6000612be2612bc4612bdc8488612b7c565b86612b7c565b95945050505050565b602081526000612a126020830184612b42565b6020808252818101527f4f776e61626c653a2063616c6c6572206973206e6f7420746865206f776e6572604082015260600190565b60208082526034908201527f536f7272792c20796f752068617665206578636565646564206d617820626174604082015273746c6520636f756e7420696e206f6e652064617960601b606082015260800190565b848152608060208201526000612ca06080830186612b42565b8281036040840152612cb28186612b42565b90508281036060840152611d6f8185612b42565b60008219821115612cd957612cd9612d6e565b500190565b600082612ced57612ced612d84565b500490565b6000816000190483118215151615612d0c57612d0c612d6e565b500290565b600082821015612d2357612d23612d6e565b500390565b600081612d3757612d37612d6e565b506000190190565b6000600019821415612d5357612d53612d6e565b5060010190565b600082612d6957612d69612d84565b500690565b634e487b7160e01b600052601160045260246000fd5b634e487b7160e01b600052601260045260246000fd5b6001600160a01b038116811461182057600080fd5b801515811461182057600080fdfea2646970667358221220f30478919682adfaeb535b11d2f93bcd6584f8b83151d3c285f628465b7c414164736f6c63430008040033",
  "linkReferences": {},
  "deployedLinkReferences": {}
}