{
  "_format": "hh-sol-artifact-1",
  "contractName": "BattleLoot",
  "sourceName": "contracts/BattleLoot.sol",
  "abi": [
    {
      "inputs": [
        {
          "internalType": "address",
          "name": "_mmlootaddress",
          "type": "address"
        },
        {
          "internalType": "address",
          "name": "rewardTokenAddress",
          "type": "address"
        }
      ],
      "stateMutability": "nonpayable",
      "type": "constructor"
    },
    {
      "anonymous": false,
      "inputs": [
        {
          "indexed": true,
          "internalType": "address",
          "name": "previousOwner",
          "type": "address"
        },
        {
          "indexed": true,
          "internalType": "address",
          "name": "newOwner",
          "type": "address"
        }
      ],
      "name": "OwnershipTransferred",
      "type": "event"
    },
    {
      "anonymous": false,
      "inputs": [
        {
          "indexed": true,
          "internalType": "address",
          "name": "warriorAddress",
          "type": "address"
        },
        {
          "indexed": false,
          "internalType": "address",
          "name": "acceptorAddress",
          "type": "address"
        },
        {
          "indexed": false,
          "internalType": "bool",
          "name": "result",
          "type": "bool"
        }
      ],
      "name": "pvpBattledByRanking",
      "type": "event"
    },
    {
      "anonymous": false,
      "inputs": [
        {
          "indexed": true,
          "internalType": "address",
          "name": "warriorAddress",
          "type": "address"
        },
        {
          "indexed": false,
          "internalType": "address",
          "name": "acceptorAddress",
          "type": "address"
        },
        {
          "indexed": false,
          "internalType": "bool",
          "name": "result",
          "type": "bool"
        }
      ],
      "name": "pvpBattledByRarityIndex",
      "type": "event"
    },
    {
      "anonymous": false,
      "inputs": [
        {
          "indexed": true,
          "internalType": "address",
          "name": "receiver",
          "type": "address"
        },
        {
          "indexed": false,
          "internalType": "uint256",
          "name": "totalAmount",
          "type": "uint256"
        }
      ],
      "name": "recordedReward",
      "type": "event"
    },
    {
      "anonymous": false,
      "inputs": [
        {
          "indexed": true,
          "internalType": "address",
          "name": "receiver",
          "type": "address"
        },
        {
          "indexed": false,
          "internalType": "uint256",
          "name": "claimedToken",
          "type": "uint256"
        }
      ],
      "name": "rewardTokenClaimed",
      "type": "event"
    },
    {
      "anonymous": false,
      "inputs": [
        {
          "indexed": true,
          "internalType": "address",
          "name": "receiver",
          "type": "address"
        },
        {
          "indexed": false,
          "internalType": "uint256",
          "name": "totalAmount",
          "type": "uint256"
        }
      ],
      "name": "rewardTokenRefund",
      "type": "event"
    },
    {
      "anonymous": false,
      "inputs": [
        {
          "indexed": true,
          "internalType": "address",
          "name": "newRewardToken",
          "type": "address"
        }
      ],
      "name": "rewardTokenUpdated",
      "type": "event"
    },
    {
      "anonymous": false,
      "inputs": [
        {
          "indexed": true,
          "internalType": "uint256",
          "name": "tokenId",
          "type": "uint256"
        },
        {
          "indexed": false,
          "internalType": "address",
          "name": "playerAddress",
          "type": "address"
        }
      ],
      "name": "roleQuit",
      "type": "event"
    },
    {
      "anonymous": false,
      "inputs": [
        {
          "indexed": true,
          "internalType": "address",
          "name": "role",
          "type": "address"
        },
        {
          "indexed": true,
          "internalType": "uint256",
          "name": "tokenId",
          "type": "uint256"
        },
        {
          "indexed": false,
          "internalType": "uint256",
          "name": "rarityRanking",
          "type": "uint256"
        },
        {
          "indexed": false,
          "internalType": "uint256",
          "name": "rarityIndex",
          "type": "uint256"
        }
      ],
      "name": "roleRegistered",
      "type": "event"
    },
    {
      "inputs": [],
      "name": "MAXROUND",
      "outputs": [
        {
          "internalType": "uint256",
          "name": "",
          "type": "uint256"
        }
      ],
      "stateMutability": "view",
      "type": "function"
    },
    {
      "inputs": [
        {
          "internalType": "address",
          "name": "",
          "type": "address"
        }
      ],
      "name": "battleDetailsByRanking",
      "outputs": [
        {
          "internalType": "address",
          "name": "acceptorAddress",
          "type": "address"
        },
        {
          "internalType": "uint256",
          "name": "challengerRanking",
          "type": "uint256"
        },
        {
          "internalType": "uint256",
          "name": "acceptorRanking",
          "type": "uint256"
        },
        {
          "internalType": "uint256",
          "name": "failNumber",
          "type": "uint256"
        },
        {
          "internalType": "bool",
          "name": "result",
          "type": "bool"
        }
      ],
      "stateMutability": "view",
      "type": "function"
    },
    {
      "inputs": [
        {
          "internalType": "address",
          "name": "",
          "type": "address"
        }
      ],
      "name": "battleDetailsByRarityIndex",
      "outputs": [
        {
          "internalType": "address",
          "name": "acceptorAddress",
          "type": "address"
        },
        {
          "internalType": "uint256",
          "name": "challengerPower",
          "type": "uint256"
        },
        {
          "internalType": "uint256",
          "name": "acceptorPower",
          "type": "uint256"
        },
        {
          "internalType": "uint256",
          "name": "failNumber",
          "type": "uint256"
        },
        {
          "internalType": "bool",
          "name": "result",
          "type": "bool"
        }
      ],
      "stateMutability": "view",
      "type": "function"
    },
    {
      "inputs": [
        {
          "internalType": "uint256",
          "name": "",
          "type": "uint256"
        }
      ],
      "name": "candidateWarriors",
      "outputs": [
        {
          "internalType": "address",
          "name": "warriorAddress",
          "type": "address"
        }
      ],
      "stateMutability": "view",
      "type": "function"
    },
    {
      "inputs": [],
      "name": "claim",
      "outputs": [],
      "stateMutability": "nonpayable",
      "type": "function"
    },
    {
      "inputs": [],
      "name": "getPlayerStakedToken",
      "outputs": [
        {
          "internalType": "uint256[]",
          "name": "",
          "type": "uint256[]"
        }
      ],
      "stateMutability": "view",
      "type": "function"
    },
    {
      "inputs": [],
      "name": "mmloot",
      "outputs": [
        {
          "internalType": "contract LootProject",
          "name": "",
          "type": "address"
        }
      ],
      "stateMutability": "view",
      "type": "function"
    },
    {
      "inputs": [],
      "name": "owner",
      "outputs": [
        {
          "internalType": "address",
          "name": "",
          "type": "address"
        }
      ],
      "stateMutability": "view",
      "type": "function"
    },
    {
      "inputs": [
        {
          "internalType": "uint256",
          "name": "tokenId",
          "type": "uint256"
        }
      ],
      "name": "pvpBattleByRanking",
      "outputs": [],
      "stateMutability": "nonpayable",
      "type": "function"
    },
    {
      "inputs": [
        {
          "internalType": "uint256",
          "name": "tokenId",
          "type": "uint256"
        }
      ],
      "name": "pvpBattleByRarityIndex",
      "outputs": [],
      "stateMutability": "nonpayable",
      "type": "function"
    },
    {
      "inputs": [
        {
          "internalType": "uint256",
          "name": "tokenId",
          "type": "uint256"
        }
      ],
      "name": "quitFromGame",
      "outputs": [],
      "stateMutability": "nonpayable",
      "type": "function"
    },
    {
      "inputs": [
        {
          "internalType": "address",
          "name": "receiver",
          "type": "address"
        }
      ],
      "name": "refundRewardToken",
      "outputs": [],
      "stateMutability": "nonpayable",
      "type": "function"
    },
    {
      "inputs": [
        {
          "internalType": "uint256",
          "name": "tokenId",
          "type": "uint256"
        },
        {
          "internalType": "uint256",
          "name": "_rartiyRanking",
          "type": "uint256"
        },
        {
          "internalType": "uint256",
          "name": "_rarityIndex",
          "type": "uint256"
        }
      ],
      "name": "registerRole",
      "outputs": [],
      "stateMutability": "nonpayable",
      "type": "function"
    },
    {
      "inputs": [],
      "name": "renounceOwnership",
      "outputs": [],
      "stateMutability": "nonpayable",
      "type": "function"
    },
    {
      "inputs": [],
      "name": "rewardAmountPerRound",
      "outputs": [
        {
          "internalType": "uint256",
          "name": "",
          "type": "uint256"
        }
      ],
      "stateMutability": "view",
      "type": "function"
    },
    {
      "inputs": [],
      "name": "rewardToken",
      "outputs": [
        {
          "internalType": "contract IERC20",
          "name": "",
          "type": "address"
        }
      ],
      "stateMutability": "view",
      "type": "function"
    },
    {
      "inputs": [],
      "name": "totalWarriors",
      "outputs": [
        {
          "internalType": "uint256",
          "name": "",
          "type": "uint256"
        }
      ],
      "stateMutability": "view",
      "type": "function"
    },
    {
      "inputs": [
        {
          "internalType": "address",
          "name": "newOwner",
          "type": "address"
        }
      ],
      "name": "transferOwnership",
      "outputs": [],
      "stateMutability": "nonpayable",
      "type": "function"
    },
    {
      "inputs": [
        {
          "internalType": "address",
          "name": "newRewardToken",
          "type": "address"
        }
      ],
      "name": "updateRewardToken",
      "outputs": [],
      "stateMutability": "nonpayable",
      "type": "function"
    },
    {
      "inputs": [
        {
          "internalType": "address",
          "name": "",
          "type": "address"
        }
      ],
      "name": "warriorsIndex",
      "outputs": [
        {
          "internalType": "uint256",
          "name": "",
          "type": "uint256"
        }
      ],
      "stateMutability": "view",
      "type": "function"
    }
  ],
  "bytecode": "0x60806040523480156200001157600080fd5b5060405162002466380380620024668339810160408190526200003491620000de565b6200003f3362000071565b600180546001600160a01b039384166001600160a01b0319918216179091556002805492909316911617905562000115565b600080546001600160a01b038381166001600160a01b0319831681178455604051919092169283917f8be0079c531659141344cd1fd0a4f28419497f9722a3daafe3b4186f6b6457e09190a35050565b80516001600160a01b0381168114620000d957600080fd5b919050565b60008060408385031215620000f1578182fd5b620000fc83620000c1565b91506200010c60208401620000c1565b90509250929050565b61234180620001256000396000f3fe608060405234801561001057600080fd5b506004361061012c5760003560e01c80638da5cb5b116100ad578063e48a079011610071578063e48a0790146102fe578063f2fde38b1461031e578063f7c618c114610331578063f8cf31cb14610344578063fd2fb8be1461035757600080fd5b80638da5cb5b1461029f578063ae49e26d146102b0578063c82f7448146102c3578063d9bd3201146102ec578063da06297e146102f557600080fd5b80634e71d92d116100f45780634e71d92d1461021c578063648a3a4c1461022457806368eadb101461023a5780636c93ae8414610284578063715018a61461029757600080fd5b80630d5845aa146101315780630f60ffd51461014657806311d33bae146101595780633fac1ed314610189578063433ec91c1461019e575b600080fd5b61014461013f36600461210f565b61036a565b005b6101446101543660046120df565b6105fb565b60015461016c906001600160a01b031681565b6040516001600160a01b0390911681526020015b60405180910390f35b610191610bbb565b60405161018091906121a9565b6101e86101ac366004612080565b600660205260009081526040902080546001820154600283015460038401546004909401546001600160a01b0390931693919290919060ff1685565b604080516001600160a01b03909616865260208601949094529284019190915260608301521515608082015260a001610180565b610144610c29565b61022c600a81565b604051908152602001610180565b6101e8610248366004612080565b600560205260009081526040902080546001820154600283015460038401546004909401546001600160a01b0390931693919290919060ff1685565b610144610292366004612080565b610dde565b610144610f54565b6000546001600160a01b031661016c565b6101446102be3660046120df565b610f8a565b61016c6102d13660046120df565b6007602052600090815260409020546001600160a01b031681565b61022c60045481565b61022c60035481565b61022c61030c366004612080565b60086020526000908152604090205481565b61014461032c366004612080565b611522565b60025461016c906001600160a01b031681565b610144610352366004612080565b6115bd565b6101446103653660046120df565b611631565b336001546040516331a9108f60e11b8152600481018690526001600160a01b039283169290911690636352211e9060240160206040518083038186803b1580156103b357600080fd5b505afa1580156103c7573d6000803e3d6000fd5b505050506040513d601f19601f820116820180604052508101906103eb91906120a3565b6001600160a01b0316146104515760405162461bcd60e51b815260206004820152602260248201527f637265617465526f6c653a20796f7520646f206e6f74206f776e20746865206e604482015261199d60f21b60648201526084015b60405180910390fd5b6001546001600160a01b03166323b872dd336040516001600160e01b031960e084901b1681526001600160a01b03909116600482015230602482015260448101869052606401600060405180830381600087803b1580156104b157600080fd5b505af11580156104c5573d6000803e3d6000fd5b505050506000600860006104d63390565b6001600160a01b0316815260208101919091526040016000205461054457600454610502906001612222565b6004805491925060006105148361229b565b919050555080600860006105253390565b6001600160a01b03168152602081019190915260400160002055610556565b50336000908152600860205260409020545b60008181526007602090815260408083206001808201805480830182559086528486200189905560028201805480830182559086528486200188905581546001600160a01b03191633908117835560039092018054918201815585529383902090930185905580518681529182018590528692917fd430a9559650419ebd9d75d04bc70c4cd3c336212bd2aab59b57e2d78afd7fc5910160405180910390a350505050565b3360008181526008602052604090205461067d5760405162461bcd60e51b815260206004820152603a60248201527f707670426174746c654279526172697479496e6465783a20706c65617365207260448201527f6567697374657220796f757220726f6c652061742066697273740000000000006064820152608401610448565b61068682611819565b6106f05760405162461bcd60e51b815260206004820152603560248201527f707670426174746c654279526172697479496e6465783a20706c6561736520726044820152741959da5cdd195c881d1bdad95b925908199a5c9cdd605a1b6064820152608401610448565b6001600160a01b0380821660009081526008602090815260408083205480845260078352818420825160808101845281549096168652600181018054845181870281018701909552808552929694919385830193909283018282801561077557602002820191906000526020600020905b815481526020019060010190808311610761575b50505050508152602001600282018054806020026020016040519081016040528092919081815260200182805480156107cd57602002820191906000526020600020905b8154815260200190600101908083116107b9575b505050505081526020016003820180548060200260200160405190810160405280929190818152602001828054801561082557602002820191906000526020600020905b815481526020019060010190808311610811575b5050505050815250509050600061083b856118de565b610844426118de565b604051602001610855929190612173565b6040516020818303038152906040528051906020012060001c905060006004548261088091906122b6565b6000818152600760209081526040808320815160808101835281546001600160a01b03168152600182018054845181870281018701909552808552969750949590949193858101939291908301828280156108fa57602002820191906000526020600020905b8154815260200190600101908083116108e6575b505050505081526020016002820180548060200260200160405190810160405280929190818152602001828054801561095257602002820191906000526020600020905b81548152602001906001019080831161093e575b50505050508152602001600382018054806020026020016040519081016040528092919081815260200182805480156109aa57602002820191906000526020600020905b815481526020019060010190808311610996575b5050505050815250509050600081602001516001836020015151866109cf91906122b6565b6109d9919061226d565b815181106109f757634e487b7160e01b600052603260045260246000fd5b602002602001015190506000610a1186600001518a611a00565b9150506000610a24846000015184611a00565b9150506000610a33838c611c57565b90506000610a418386611c57565b86516001600160a01b038d8116600090815260066020526040902080546001600160a01b0319169190921617815560018101849055600201819055905080821115610aba576001600160a01b038b166000908152600660205260409020600401805460ff19166001179055610ab58b611ce1565b610b3c565b6001600160a01b038b16600090815260066020526040812060048101805460ff19169055600301805491610aed8361229b565b90915550506001600160a01b038b1660009081526006602052604090206003015460051415610b3c57610b1f8b611ce1565b6001600160a01b038b166000908152600660205260408120600301555b85516001600160a01b038c166000818152600660205260409081902060040154905191927fc5de4c2564f6159cafe0769975aa940fb73ebdaecd9382e78e69f7bbf3e7e6a592610ba59260ff16906001600160a01b039290921682521515602082015260400190565b60405180910390a2505050505050505050505050565b3360009081526008602090815260408083205483526007825291829020600101805483518184028101840190945280845260609392830182828015610c1f57602002820191906000526020600020905b815481526020019060010190808311610c0b575b5050505050905090565b6002546040516370a0823160e01b81523060048201526001600160a01b03909116906370a082319060240160206040518083038186803b158015610c6c57600080fd5b505afa158015610c80573d6000803e3d6000fd5b505050506040513d601f19601f82011682018060405250810190610ca491906120f7565b336000908152600960205260409020541015610d025760405162461bcd60e51b815260206004820152601f60248201527f636c61696d3a206e6f20656e6f75676820746f6b656e20746f20636c61696d006044820152606401610448565b600254336000818152600960205260409081902054905163a9059cbb60e01b8152600481019290925260248201526001600160a01b039091169063a9059cbb90604401602060405180830381600087803b158015610d5f57600080fd5b505af1158015610d73573d6000803e3d6000fd5b505050506040513d601f19601f82011682018060405250810190610d9791906120bf565b50336000818152600960209081526040918290205491519182527fc018771e0337a1e166d56660caef87330265c31a574eec8c6b4c32fad50f85c4910160405180910390a2565b6000546001600160a01b03163314610e085760405162461bcd60e51b8152600401610448906121ed565b6002546040516370a0823160e01b81523060048201526000916001600160a01b0316906370a082319060240160206040518083038186803b158015610e4c57600080fd5b505afa158015610e60573d6000803e3d6000fd5b505050506040513d601f19601f82011682018060405250810190610e8491906120f7565b60025460405163a9059cbb60e01b81526001600160a01b0385811660048301526024820184905292935091169063a9059cbb90604401602060405180830381600087803b158015610ed457600080fd5b505af1158015610ee8573d6000803e3d6000fd5b505050506040513d601f19601f82011682018060405250810190610f0c91906120bf565b50816001600160a01b03167f47185bfeaa34ad210d128d5a7895842e27012f2f74d46696a180e116568f34fa82604051610f4891815260200190565b60405180910390a25050565b6000546001600160a01b03163314610f7e5760405162461bcd60e51b8152600401610448906121ed565b610f886000611d5b565b565b336000818152600860205260409020546110055760405162461bcd60e51b815260206004820152603660248201527f707670426174746c65427952616e6b696e673a20706c656173652072656769736044820152751d195c881e5bdd5c881c9bdb1948185d08199a5c9cdd60521b6064820152608401610448565b61100e82611819565b6110745760405162461bcd60e51b815260206004820152603160248201527f707670426174746c65427952616e6b696e673a20706c656173652072656769736044820152701d195c881d1bdad95b925908199a5c9cdd607a1b6064820152608401610448565b6001600160a01b038082166000908152600860209081526040808320548084526007835281842082516080810184528154909616865260018101805484518187028101870190955280855292969491938583019390928301828280156110f957602002820191906000526020600020905b8154815260200190600101908083116110e5575b505050505081526020016002820180548060200260200160405190810160405280929190818152602001828054801561115157602002820191906000526020600020905b81548152602001906001019080831161113d575b50505050508152602001600382018054806020026020016040519081016040528092919081815260200182805480156111a957602002820191906000526020600020905b815481526020019060010190808311611195575b505050505081525050905060006111bf856118de565b6111c8426118de565b6040516020016111d9929190612173565b6040516020818303038152906040528051906020012060001c905060006004548261120491906122b6565b6000818152600760209081526040808320815160808101835281546001600160a01b031681526001820180548451818702810187019095528085529697509495909491938581019392919083018282801561127e57602002820191906000526020600020905b81548152602001906001019080831161126a575b50505050508152602001600282018054806020026020016040519081016040528092919081815260200182805480156112d657602002820191906000526020600020905b8154815260200190600101908083116112c2575b505050505081526020016003820180548060200260200160405190810160405280929190818152602001828054801561132e57602002820191906000526020600020905b81548152602001906001019080831161131a575b50505050508152505090506000816020015160018360200151518661135391906122b6565b61135d919061226d565b8151811061137b57634e487b7160e01b600052603260045260246000fd5b60200260200101519050600061139586600001518a611a00565b50905060006113a8846000015184611a00565b5084516001600160a01b038b8116600090815260056020526040902080546001600160a01b0319169190921617815560018101849055600201819055905080821015611422576001600160a01b0389166000908152600560205260409020600401805460ff1916600117905561141d89611ce1565b6114a5565b6001600160a01b038916600090815260056020526040812060048101805460ff191690556003018054916114558361229b565b90915550506001600160a01b03891660009081526005602081905260409091206003015414156114a55761148889611ce1565b6001600160a01b0389166000908152600560205260408120600301555b83516001600160a01b038a166000818152600560205260409081902060040154905191927f0f4d6c8c1799dd121cfe5f7274877800cad667f498f0e93bd146332e8f1c5e6e9261150e9260ff16906001600160a01b039290921682521515602082015260400190565b60405180910390a250505050505050505050565b6000546001600160a01b0316331461154c5760405162461bcd60e51b8152600401610448906121ed565b6001600160a01b0381166115b15760405162461bcd60e51b815260206004820152602660248201527f4f776e61626c653a206e6577206f776e657220697320746865207a65726f206160448201526564647265737360d01b6064820152608401610448565b6115ba81611d5b565b50565b6000546001600160a01b031633146115e75760405162461bcd60e51b8152600401610448906121ed565b600280546001600160a01b0319166001600160a01b0383169081179091556040517f2a6ce8490320414415367a61709a20bd5e1b02565f5594fbf6c4f84d1ff7c4fb90600090a250565b61163a81611819565b6116a35760405162461bcd60e51b815260206004820152603460248201527f7175697446726f6d47616d653a20536f7272792c20796f75277265206e6f7420604482015273309031b0b73234b230ba32903bb0b93934b7b91760611b6064820152608401610448565b6116ac81611dab565b61170d5760405162461bcd60e51b815260206004820152602c60248201527f7175697446726f6d47616d653a206661696c20746f2064656c65746520746f6b60448201526b656e4964207265636f72647360a01b6064820152608401610448565b336000908152600860209081526040808320548352600790915290206001015461175757336000908152600860205260408120819055600480549161175183612284565b91905055505b6001546001600160a01b03166323b872dd30336040516001600160e01b031960e085901b1681526001600160a01b0392831660048201529116602482015260448101849052606401600060405180830381600087803b1580156117b957600080fd5b505af11580156117cd573d6000803e3d6000fd5b50505050807fd4d1aaee65bdd191a514d704597570c968f8a11e16b36e7289947e2935f4929f6117fa3390565b6040516001600160a01b0390911681526020015b60405180910390a250565b336000908152600860209081526040808320548352600782528083206001018054825181850281018501909352808352849383018282801561187a57602002820191906000526020600020905b815481526020019060010190808311611866575b5050505050905060005b81518110156118d7578181815181106118ad57634e487b7160e01b600052603260045260246000fd5b60200260200101518414156118c157600192505b60009250806118cf8161229b565b915050611884565b5050919050565b6060816119025750506040805180820190915260018152600360fc1b602082015290565b8160005b811561192c57806119168161229b565b91506119259050600a8361223a565b9150611906565b60008167ffffffffffffffff81111561195557634e487b7160e01b600052604160045260246000fd5b6040519080825280601f01601f19166020018201604052801561197f576020820181803683370190505b5090505b84156119f85761199460018361226d565b91506119a1600a866122b6565b6119ac906030612222565b60f81b8183815181106119cf57634e487b7160e01b600052603260045260246000fd5b60200101906001600160f81b031916908160001a9053506119f1600a8661223a565b9450611983565b949350505050565b6001600160a01b038216600090815260086020908152604080832054835260078252808320600101805482518185028101850190935280835284938493929190830182828015611a6f57602002820191906000526020600020905b815481526020019060010190808311611a5b575b505050506001600160a01b0387166000908152600860209081526040808320548352600782528083206002018054825181850281018501909352808352959650929490935090830182828015611ae457602002820191906000526020600020905b815481526020019060010190808311611ad0575b505050506001600160a01b0388166000908152600860209081526040808320548352600782528083206003018054825181850281018501909352808352959650929490935090830182828015611b5957602002820191906000526020600020905b815481526020019060010190808311611b45575b5050505050905081518351148015611b72575080518251145b611baa5760405162461bcd60e51b81526020600482015260096024820152680dcdee840dac2e8c6d60bb1b6044820152606401610448565b60005b8351811015611c4c57838181518110611bd657634e487b7160e01b600052603260045260246000fd5b6020026020010151871415611c3a57828181518110611c0557634e487b7160e01b600052603260045260246000fd5b60200260200101519550818181518110611c2f57634e487b7160e01b600052603260045260246000fd5b602002602001015194505b80611c448161229b565b915050611bad565b505050509250929050565b600080611c63836118de565b611c6c856118de565b611c75426118de565b604051602001611c8793929190612188565b6040516020818303038152906040528051906020012060001c9050600080611cae86611f06565b90925090506000611cbf838361226d565b905082611ccc82866122b6565b611cd69190612222565b979650505050505050565b6003546001600160a01b03821660009081526009602052604081208054909190611d0c908490612222565b90915550506001600160a01b0381166000818152600960209081526040918290205491519182527f32d4a5eb589da7567ffa04ee91fa4dbd9323cf436315fd97d830ffa7f0a1200c910161180e565b600080546001600160a01b038381166001600160a01b0319831681178455604051919092169283917f8be0079c531659141344cd1fd0a4f28419497f9722a3daafe3b4186f6b6457e09190a35050565b33600090815260086020908152604080832054835260078252808320600181018054835181860281018601909452808452919385939290830182828015611e1157602002820191906000526020600020905b815481526020019060010190808311611dfd575b5050505050905060005b8151811015611efe57818181518110611e4457634e487b7160e01b600052603260045260246000fd5b6020026020010151851415611ee857826001018181548110611e7657634e487b7160e01b600052603260045260246000fd5b9060005260206000200160009055826002018181548110611ea757634e487b7160e01b600052603260045260246000fd5b9060005260206000200160009055826003018181548110611ed857634e487b7160e01b600052603260045260246000fd5b6000918252602082200155600193505b6000935080611ef68161229b565b915050611e1b565b505050919050565b60008082611f645760405162461bcd60e51b815260206004820152602560248201527f7261726974792073636f7265206f66206c6f6f74206d757374206e6f74206265604482015264081b9d5b1b60da1b6064820152608401610448565b6216e36083118015611f795750621e84808311155b15611f9257611f8983600561202b565b91509150915091565b621e848083118015611fa75750622625a08311155b15611fb757611f8983600a61202b565b622625a083118015611fcc5750622dc6c08311155b15611fdc57611f8983600f61202b565b622dc6c083118015611ff15750623567e08311155b1561200157611f8983601461202b565b623567e0831180156120165750623e8fa08311155b1561202657611f8983601961202b565b915091565b60008080606461203b858761224e565b612045919061223a565b61204f908661226d565b90506000606461205f868861224e565b612069919061223a565b6120739087612222565b9196919550909350505050565b600060208284031215612091578081fd5b813561209c816122f6565b9392505050565b6000602082840312156120b4578081fd5b815161209c816122f6565b6000602082840312156120d0578081fd5b8151801515811461209c578182fd5b6000602082840312156120f0578081fd5b5035919050565b600060208284031215612108578081fd5b5051919050565b600080600060608486031215612123578182fd5b505081359360208301359350604090920135919050565b60008151815b8181101561215a5760208185018101518683015201612140565b818111156121685782828601525b509290920192915050565b60006119f8612182838661213a565b8461213a565b60006121a061218261219a848861213a565b8661213a565b95945050505050565b6020808252825182820181905260009190848201906040850190845b818110156121e1578351835292840192918401916001016121c5565b50909695505050505050565b6020808252818101527f4f776e61626c653a2063616c6c6572206973206e6f7420746865206f776e6572604082015260600190565b60008219821115612235576122356122ca565b500190565b600082612249576122496122e0565b500490565b6000816000190483118215151615612268576122686122ca565b500290565b60008282101561227f5761227f6122ca565b500390565b600081612293576122936122ca565b506000190190565b60006000198214156122af576122af6122ca565b5060010190565b6000826122c5576122c56122e0565b500690565b634e487b7160e01b600052601160045260246000fd5b634e487b7160e01b600052601260045260246000fd5b6001600160a01b03811681146115ba57600080fdfea26469706673582212204716280fe4e66805705d7803e3c123b4ad2da2ad4021c7c57a0bcbc2af966e8664736f6c63430008040033",
  "linkReferences": {},
  "deployedLinkReferences": {}
}